:020000040800F2
:100000009054002081020008532E0008AD290008FA
:10001000512E000815090008153B000800000000DB
:10002000000000000000000000000000A101000826
:100030006109000800000000FD010008F13200081D
:100040009B0200089B0200089B0200089B0200081C
:100050009B0200089B0200089B020008630900083D
:100060009B0200089B020008690900089B02000827
:100070009B0200089B0200081909000825090008D6
:100080009B0200089B0200089B0200089B020008DC
:100090009B0200089B0200089B0200089B020008CC
:1000A0009B0200089B0200089B0200089B020008BC
:1000B0009B02000800000000000000009B020008F6
:1000C0009B0200089B0200089B0200089B0200089C
:1000D0009B020008FD3A00089B0200089B020008F2
:1000E0009B0200089B0200080000000000000000C6
:1000F0000000000000000000000000000000000000
:10010000000000009B020008000000009B020008A5
:1001100000000000000000009B0200089B02000895
:100120009B0200089B0200089B0200089B0200083B
:100130009B0200080000000000000000000000001A
:100140009B0200089B0200089B0200089B0200081B
:100150009B0200089B0200089B0200089B0200080B
:100160009B0200089B0200089B02000800000000A0
:100170009B0200089B0200089B0200080000000090
:100180009B0200089B0200089B020008DFF80CD0CD
:1001900000F0AEFB004800477D4500089054002069
:1001A0002C4B1968086800F05AB880F30988BFF32F
:1001B0006F8F4FF0000080F311887047000000003F
:1001C00008480068006880F308884FF0000080F35A
:1001D000148862B661B6BFF34F8FBFF36F8F00DF35
:1001E00000BF00BF08ED00E0DFF80C00016841F43B
:1001F00070010160704700BF88ED00E0EFF30980F7
:10020000BFF36F8F134B1A681EF0100F08BF20ED5D
:10021000108A20E9F04F106009B44FF0500080F3CD
:100220001188BFF34F8FBFF36F8F05F03BF84FF08E
:10023000000080F3118809BC1968086800F014B840
:100240001EF0100F08BF00F014B880F30988BFF348
:100250006F8F70473C000020EFF30580704730C877
:10026000B0E8C04FFFF7A1BF30C8B0E8C04FFFF7FC
:10027000E7BFB0EC088AB0EC08CAFFF7E6BF0000A1
:100280000648804706480047FEE7FEE7FEE7FEE730
:10029000FEE7FEE7FEE7FEE7FEE7FEE7BD33000808
:1002A0008D0100082DE9F05F0546002092469B462F
:1002B00088460646814640241BE02846414647467C
:1002C000224600F0BFF953465A46C01A914110D356
:1002D00011461846224600F0A6F92D1A67EB0108D0
:1002E0004F4622460120002100F09DF917EB00093E
:1002F0004E41201EA4F10104DFDC484631462A4667
:10030000434600F000B830BCBDE8C09F40EA01039E
:100310009B0703D009E008C9121F08C0042AFAD2BB
:1003200003E011F8013B00F8013B521EF9D270477F
:10033000D2B201E000F8012B491EFBD27047002227
:10034000F6E710B513460A4604461946FFF7F0FFD4
:10035000204610BD2DE9FE4F804681EA0300C00F04
:100360000C46009021F0004123F00045B8EB02005C
:10037000A94105D24046214690461C460B460246FE
:1003800023F00040104347D0270DC7F30A00C3F302
:100390000A510290401A019040286BDAC3F313000F
:1003A00040F4801B0098924620B10023D2EB030A50
:1003B00063EB0B0B01985946C0F14002504600F028
:1003C00032F906460D4650465946019A00F04AF960
:1003D00010EB08006141002487EA115284EAE773B8
:1003E0001A4340D0009A62B3019A012A4FEA075299
:1003F00015DC001B61EB02014FF0004202EA0752DC
:10040000CDE90042001C41F5801132462B4600F038
:1004100081F903B000F045B840462146F9E7001BDA
:1004200061EB0201001C41F5801300185B412018AC
:10043000A2F5001747EB030140EAD570B6196D41EC
:1004400011E06D084FEA360645EAC0754FEA0752DB
:10045000001B61EB0201001C41F5801149084FEAC5
:1004600030000019514132462B4603B000F01CB851
:1004700000F041B90098012240000023D0EB0202B5
:1004800063EBE073009821464FEAE074B8EB00009C
:1004900061EB0401E9E783F000435BE781F0004191
:1004A00058E730BCBDE8C08F30BCBDE8C04FFFF797
:1004B000DFBF2DE9FE4F81EA030404F0004421F080
:1004C000004100944FF0000B23F0004350EA010478
:1004D0005ED052EA03045BD0C3F30A54C1F30A5559
:1004E0002C44A4F2F3340194A0FB0254C1F3130191
:1004F00041F48011C3F3130343F4801301FB02445E
:1005000000FB034E840A970A44EA815447EA835762
:10051000A4FB076802958D0A05FB07854FEA932C1B
:1005200004FB0C542705029D4FEA065847EA16378C
:10053000B5EB08056EEB070C870E920E47EA8117A4
:1005400042EA8312A7FB0201B6EB0B0164EB000445
:100550002B0D43EA0C335E1844EB1C50DA4651462F
:10056000E7FB0201C5F313044FEA0B3343EA1453CC
:100570004FEA0432019C43EA0603A4F10C040294FE
:10058000009CCDE900B400F0C5F803B000F003B85A
:1005900000200146F9E730BCBDE8C08F00F0004202
:1005A00030F000400AD0C10D01F56071C0F31600B3
:1005B00042EA0151C208400711437047002001463A
:1005C000704701F0004330B421F0004150EA0102CD
:1005D00006D00A0DA2F56072C1F31301002A02DCF5
:1005E00030BC00207047440F44EAC104C100E01849
:1005F00030BC00EBC25000F047B830B50B460146A6
:1006000000202022012409E021FA02F59D4205D3B1
:1006100003FA02F5491B04FA02F52844151EA2F15B
:100620000102F1DC30BD202A04DB203A00FA02F19D
:10063000002070479140C2F1200320FA03F31943D0
:1006400090407047202A04DB203A21FA02F0002172
:10065000704721FA02F3D040C2F1200291400843D2
:1006600019467047202A06DBCB17203A41FA02F0E0
:1006700043EAE07306E041FA02F3D040C2F12002FF
:1006800091400843194670470029A8BF7047401C95
:10069000490008BF20F00100704710B4B0FA80FC98
:1006A00000FA0CF050EA010404BF10BC704749B1D5
:1006B000CCF1200421FA04F411FA0CF118BF012145
:1006C00021430843A3EB0C01CB1D4FEA00614FEA25
:1006D000102042BF002010BC704700EBC3501044F4
:1006E0000029A4BF10BC7047401C490008BF20F07F
:1006F000010010BC704710B5141E73F1000408DA35
:10070000401C41F1000192185B411A4301D120F0D5
:10071000010010BD2DE9F04D92469B4611B1B1FA92
:1007200081F202E0B0FA80F220329046FFF77BFFC0
:1007300004460F4640EA0A0041EA0B0153465A4676
:10074000084313D0114653EA010019D0C8F1400202
:100750005046FFF777FF05460E465046594642463B
:10076000FFF761FF084305D0012004E02046394629
:10077000BDE8F08D0020054346EAE0762C43374380
:100780000A986305E40AA0EB08000022FD0A44EA87
:1007900047540A3002D500200146E9E70105101947
:1007A0006941DDE9084500196941BDE8F04DA2E75E
:1007B0002DE9F04D81EA030404F0004B21F00045DF
:1007C00014464FF0000A23F0004150EA050220D001
:1007D00054EA01021DD0C5F30A570246C5F31303BC
:1007E000C1F31300C1F30A5640F4801543F480139B
:1007F000A7EB0608101BD64608F2FD3873EB050080
:1008000002D308F1010801E092185B41B8F1000F32
:1008100003DA00200146BDE8F08D00204FF480117E
:10082000064684460EE0171B73EB050705D3121B23
:1008300063EB050306434CEA010C49084FEA30001C
:1008400092185B4150EA0107EDD152EA030012D041
:1008500082EA040083EA0501084305D0101BAB417E
:1008600006D20122002306E000224FF0004302E0FE
:100870006FF0010253101AEB06004CEB085110EB1D
:100880000A0041EB0B01BDE8F04DFFF734BFC1F3A7
:100890000A52C1F3130140F2FF3341F480119A422E
:1008A00002DA00200146704740F233439A42A2F236
:1008B000334202DC5242FFF7C5BEFFF7B4BE000070
:1008C00030B5041E71F1000404DB4FF000444042D7
:1008D00064EB0101141E73F1000405DB1C464FF0AC
:1008E0000043524263EB0403994208BF904230BD7B
:1008F000064C074D06E0E06840F0010394E807006D
:1009000098471034AC42F6D3FFF744FC405E000831
:10091000605E0008FEE70000014800F087B80000B4
:100920009C3F0020014800F081B80000543F0020A7
:1009300030B590F8444004F01C050124AC40056C2F
:100940006C60046863608468102C04D10468A26041
:100950000468E16003E00468A1600468E26030BDFF
:100960007047022000F0EEB9102000F0EBB970479C
:100970000146002291F82500022808D00420C8630F
:1009800000BF002081F8240000BF012070470868E4
:10099000006820F00E000B6818600868006820F0FE
:1009A00001000B68186091F8440000F01C0301205E
:1009B00098400B6C5860012081F8250000BF002092
:1009C00081F8240000BF1046E0E770B5044600251A
:1009D00094F82500022803D00420E063012520E0DC
:1009E0002068006820F00E00216808602068006818
:1009F00020F001002168086094F8440000F01C0118
:100A000001208840216C4860012084F8250000BF47
:100A1000002084F8240000BFA06B10B12046A16B19
:100A20008847284670BD0146C86B704770B50446BC
:100A3000206C05682068066894F8440000F01C01EA
:100A4000042088402840E0B106F00400C8B12068C6
:100A5000006800F0200028B92068006820F0040039
:100A60002168086094F8440000F01C0104208840CC
:100A7000216C4860206B002856D02046216B8847A7
:100A800052E094F8440000F01C0102208840284005
:100A900018B306F0020000B32068006800F02000E0
:100AA00040B92068006820F00A0021680860012031
:100AB00084F8250094F8440000F01C0102208840CE
:100AC000216C486000BF002084F8240000BFE06A69
:100AD00050B32046E16A884726E094F8440000F0CD
:100AE0001C01082088402840F0B106F00800D8B169
:100AF0002068006820F00E002168086094F8440027
:100B000000F01C0101208840216C48600120E06356
:100B100084F8250000BF002084F8240000BF606B2B
:100B200010B12046616B884770BD000010B50146CA
:100B300009B9012010BD3E4B086898420BD23D4BCD
:100B40000868C01A1423B0FBF3F0800048643948E9
:100B5000083808640AE0364B0868C01A1423B0FB52
:100B6000F3F080004864324808380864022081F8B5
:100B700025000868026847F6F0708243D1E9020355
:100B800018430B6918434B6918438B691843CB69A9
:100B900018430B6A18430243086802608868B0F57E
:100BA000804F3AD0234B083B086C98421BD1D0F8B9
:100BB000A80091F8443003F01C040F23A34098438D
:100BC0001C4BA033186091F8443003F01C034868B4
:100BD0009840184B083BD3F8A8301843154B083BF6
:100BE000C3F8A80019E01248A030006891F844301A
:100BF00003F01C040F23A34098430D4BA03318604F
:100C000091F8443003F01C0348689840084BA03327
:100C10001B681843064BA03318600020C8630120EE
:100C200081F82500002081F8240000BF82E7000041
:100C300008040240080002402DE9F04104460D4638
:100C400016461F464FF0000800BF94F82400012804
:100C500002D10220BDE8F081012084F8240000BF09
:100C600094F8250001282CD1022084F825000020CA
:100C7000E0632068006820F00100216808603B46BE
:100C8000324629462046FFF753FE206B30B12068DC
:100C9000006840F00E00216808600BE020680068E2
:100CA00020F00400216808602068006840F00A0015
:100CB000216808602068006840F001002168086031
:100CC00006E000BF002084F8240000BF4FF00208B7
:100CD0004046BFE770B5044600F02CF906462546AD
:100CE000681C10B104480068054400BF00F022F9F8
:100CF000801BA842FAD370BD3400002010B5044612
:100D0000102C08D1084801780078401C064B187058
:100D100006A002F06FFF022C04D109480088401C95
:100D20000749088010BD000008000020746869733E
:100D30002069732070696E342025640D0A0000005C
:100D40000A00002010B5044604480068204020B185
:100D5000024804602046FFF7D1FF10BD1404014093
:100D600078B503460022CBE0012696400D6805EADF
:100D70000604002C72D04D68022D02D04D68122D51
:100D800013D1D60803F1200555F826005507EE0EBD
:100D90000F25B540A8435607F60E0D69B540284308
:100DA000D60803F1200545F82600186856000325EB
:100DB000B540A8430D7905F003055600B54028431A
:100DC00018604D68012D08D04D68022D05D04D6882
:100DD000112D02D04D68122D13D1986856000325AD
:100DE000B540A8435600CD68B54028439860586880
:100DF00001259540A8430D79C5F30015954028437A
:100E00005860D86856000325B540A84356008D6841
:100E1000B5402843D8604D6805F08055B5F1805F36
:100E20006DD100BF394D2D6E45F00105374E356649
:100E300035462D6E05F00105009500BF00BF4FEA55
:100E4000B635960855F8260095072E0F0F25B540A4
:100E5000A843B3F1904F02D1002515E04FE02C4D8F
:100E6000AB4201D101250FE02A4DAB4201D1022551
:100E70000AE0294DAB4201D1032505E0274DAB42E5
:100E800001D1042500E007259607360FB540284319
:100E9000234D960845F82600224D2868A0434D684A
:100EA00005F48035B5F5803F00D120431D4D286005
:100EB0002D1D2868A0434D6805F40035B5F5003FA9
:100EC00000D12043174D2D1D28602D1D2868A043FB
:100ED0004D6805F48015B5F5801F00D12043114DF4
:100EE000083528602D1D2868A0434D6805F40015BD
:100EF000B5F5001F00D120430A4D0C352860521C67
:100F00000D68D540002D7FF42FAF78BD0010024052
:100F10000004004800080048000C00480010004889
:100F200008000140000401400AB1816100E08162D3
:100F30007047000001480068704700002C00002046
:100F4000024692F8410020282DD100BF92F84000BF
:100F5000012801D102207047012082F8400000BF23
:100F6000242082F841001068006820F00100136816
:100F700018601068006820F48050136818601068CA
:100F800000680843136818601068006840F00100AA
:100F900013681860202082F8410000BF002082F80A
:100FA000400000BFD7E70220D5E710B502460B4648
:100FB00092F8410020282AD100BF92F84000012871
:100FC00001D1022010BD012082F8400000BF242082
:100FD00082F841001068006820F001001468206069
:100FE0001068016821F4706141EA03211068016012
:100FF0001068006840F0010014682060202082F82A
:10100000410000BF002082F8400000BFDAE7022064
:10101000D8E70146486C7047014691F84100704797
:1010200010B504460CB9012010BD94F8410028B950
:10103000002084F84000204600F0B6F9242084F80F
:1010400041002068006820F00100216808606068A5
:1010500020F07060216808612068806820F40040FA
:1010600021688860E068012805D1A06840F400404C
:101070002168886004E0A06840F40440216888602A
:10108000E068022802D18002216848602068406838
:1010900013490843216848602068C06820F4004074
:1010A0002168C860D4E904010843A16940EA01202D
:1010B0002168C860D4E907010843216808602068F6
:1010C000006840F001002168086000206064202072
:1010D00084F841000020206384F8420000BFA3E7A9
:1010E000008000022DE9F8430446894616461F4653
:1010F000DDF8208094F84100202873D100BF94F8D7
:101100004000012802D10220BDE8F883012084F8C4
:10111000400000BFFFF70EFF054619230122D1034F
:101120002046009501F0BEFC08B10120ECE722202A
:1011300084F84100102084F8420000206064666258
:1011400067856063608DFF280CD9FF2020853C48AF
:10115000009094F828204FF080734946204601F013
:1011600087FC0BE0608D20853548009094F828209E
:101170004FF000734946204601F07AFC3FE02A46D2
:101180004146204601F0BEFC08B10120BCE72068C2
:10119000406A616A0870606A401C6062208D401E6F
:1011A0002085608D401E6085608D40B3208D30BBF2
:1011B0004346002280212046009501F073FC08B1CF
:1011C0000120A1E7608DFF280DD9FF202085002098
:1011D000009094F828204FF080734946204601F093
:1011E00047FC0CE02AE0608D20850020009094F8F8
:1011F00028204FF000734946204601F039FC608DED
:101200000028BCD12A464146204601F0CBFC08B15B
:10121000012079E720202168C861206840680949D9
:10122000084021684860202084F84100002084F8AC
:10123000420000BF84F8400000BF65E7022063E77A
:101240000024008000E800FE2DE9F84304468946AA
:1012500016461F46DDF8208094F84100202871D101
:1012600000BF94F84000012802D10220BDE8F883B5
:10127000012084F8400000BFFFF75CFE05461923FB
:101280000122D1032046009501F00CFC08B1012099
:10129000ECE7212084F84100102084F8420000206F
:1012A0006064666267856063608DFF280BD9FF20EC
:1012B00020853B48009094F82820C30249462046E8
:1012C00001F0D6FB0AE0608D20853548009094F847
:1012D000282003034946204601F0CAFB3FE02A4686
:1012E0004146204601F089FC08B10120BEE7606A52
:1012F000007821688862606A401C6062608D401ED0
:101300006085208D401E2085608D40B3208D30BBD0
:101310004346002280212046009501F0C3FB08B11E
:101320000120A3E7608DFF280DD9FF202085002034
:10133000009094F828204FF080734946204601F031
:1013400097FB0CE02AE0608D20850020009094F847
:1013500028204FF000734946204601F089FB608D3C
:101360000028BCD12A464146204601F01BFC08B1AA
:1013700001207BE720202168C86120684068094976
:10138000084021684860202084F84100002084F84B
:10139000420000BF84F8400000BF67E7022065E715
:1013A0000020008000E800FE10B586B0044614213D
:1013B00001A8FEF7C4FF1849206888422AD100BF5F
:1013C0001648C06C40F002001449C8640846C06C5E
:1013D00000F00200009000BF00BF4FF44060019099
:1013E0001220029001200390032004900420059015
:1013F00001A90B48FFF7B4FC00BF0848806D40F41A
:101400008000064988650846806D00F480000090E1
:1014100000BF00BF06B010BD0058004000100240E1
:10142000000400480348006803490968084401496A
:10143000086070472C0000203400002010B5002404
:10144000032000F0ADF80F2000F008F808B10124E7
:1014500001E000F02FF8204610BD000070B50446F2
:10146000002511480068D8B10F4800684FF47A7120
:10147000B1FBF0F00D490968B1FBF0F6304600F021
:10148000CFFF58B9102C07D200222146501E00F081
:1014900045F80748046004E0012502E0012500E06A
:1014A0000125284670BD00003400002038000020CF
:1014B0003000002008B500BF0F48006E40F001006A
:1014C0000D4908660846006E00F00100009000BF5C
:1014D00000BF00BF0846806D40F080508865084618
:1014E000806D00F08050009000BF00BF00220F21EF
:1014F000901E00F013F808BD001002400146084697
:10150000002809DB00F01F0301229A4043099B00D9
:1015100003F1E023C3F8002100BF70472DE9F05F1D
:1015200080460D461646002702F088FB07463946DE
:101530002A46334601F00700C0F1070ABAF1040F4A
:1015400002D94FF0040A01E0C0F1070AD14600F1C8
:10155000040ABAF1070F02D24FF0000A01E0A0F12D
:10156000030AD4464FF0010A0AFA09FAAAF1010A5D
:101570000AEA020A0AFA0CFA4FF0010B0BFA0CFB0A
:10158000ABF1010B0BEA030B4AEA0B042146404680
:1015900002F05CFB00F000B830BCBDE8C09F00006A
:1015A00000BF00F00702064B19684FF6FF03194011
:1015B000044B0B4343EA0221014B196000BF704703
:1015C0000CED00E00000FA050246B2F5007F2AD1DA
:1015D0001D48006800F4C060B0F5007F32D01A48A2
:1015E000006820F4C06040F40070174B1860174882
:1015F000006832235843164BB0FBF3F0411C00E067
:10160000491E1148406900F48060B0F5806F01D137
:101610000029F5D10C48406900F48060B0F5806F76
:1016200010D1032070470848006800F4C060B0F58E
:10163000806F07D00448006820F4C06040F48060E8
:10164000014B18600020EDE70070004038000020DA
:1016500040420F000248006800F4C060704700007C
:10166000007000400348006840F480700149086041
:1016700070470000007000400348006840F004001C
:101680000149086070470000001002402DE9F8434E
:1016900004460025A846208800F40060B0F5006FDD
:1016A00026D1606C68B1B0F5000F03D0B0F5400FE3
:1016B0000ED10CE0E848C06840F48030E649C860CC
:1016C00008E00021201D01F0D5FC054602E001E004
:1016D000012500BF00BF55B9DF488830006820F4FD
:1016E0004000616C0843DC49C1F8880000E0A8466E
:1016F000206800F40030B0F5003F75D14FF00009CC
:10170000D548806D012121EA107078B100BFD24820
:10171000806D40F08050D04988650846806D00F0AB
:101720008050009000BF00BF4FF00109CB48006817
:1017300040F48070C9490860FFF7FCFB074606E0EB
:10174000FFF7F8FBC01B022801D9032505E0C348B9
:10175000006800F480700028F2D000BF7DBBBE4856
:101760009030006800F44076CEB1E06DB04216D003
:10177000B9489030006820F44076B748D0F890001F
:1017800040F48030B449C1F890000846D0F8900089
:1017900020F48030C1F890000846C0F8906006F050
:1017A0000100A8B1FFF7C6FB074609E0FFF7C2FB3F
:1017B000C01B41F28831884202D9032507E016E0B8
:1017C000A5489030006800F002000028EED000BF6D
:1017D0005DB9A1489030006820F44070E16D084385
:1017E0009D49C1F8900003E00CE0A84600E0A8463F
:1017F000B9F1010F05D19848806D20F080509649CD
:10180000886500BF207800F0010048B19248883018
:10181000006820F00300216A08438F49C1F888005E
:10182000207800F00200022809D18B488830006837
:1018300020F00C00616A08438749C1F888002078CD
:1018400000F00400042809D183488830006820F0A3
:101850003000A16A08438049C1F88800207800F070
:101860002000202809D17C488830006820F440609E
:10187000E16A08437849C1F88800208800F40070C4
:10188000B0F5007F09D174488830006820F440200A
:10189000E16B08437049C1F88800208800F480603B
:1018A000B0F5806F09D16C488830006820F4401092
:1018B000216C08436849C1F88800207800F0400096
:1018C000402809D164488830006820F44050216BDA
:1018D00008436149C1F88800207800F08000802822
:1018E00009D15D488830006820F44040616B0843AE
:1018F0005949C1F88800208800F48070B0F5807FD5
:1019000009D155488830006820F44030A16B084365
:101910005149C1F88800208800F40050B0F5005FFC
:101920001FD14D488830006820F04060A16C08430A
:10193000494988310860A06CB0F1006F06D1464873
:10194000C06840F480104449C8600AE0A06CB0F15F
:10195000806F06D10121201D01F08CFB054605B1E9
:10196000A846206800F40020B0F5002F1FD13A48A7
:101970008830006820F04060E16C084336498831C7
:101980000860E06CB0F1006F06D13348C06840F4E5
:1019900080103149C8600AE0E06CB0F1806F06D178
:1019A0000121201D01F066FB054605B1A84620680F
:1019B00000F48020B0F5802F1FD1274888300068C0
:1019C00020F04060216D0843234988310860206D74
:1019D000B0F1006F06D12048C06840F480101E4965
:1019E000C8600AE0206DB0F1806F06D10121201D92
:1019F00001F040FB054605B1A846208800F4804070
:101A0000B0F5804F14D114488830006820F0405061
:101A1000616D0843104988310860606DB0F1805FE6
:101A200006D10221201D01F025FB054605B1A8467F
:101A3000208800F40040B0F5004F09D106488830F6
:101A4000006820F08040A16D08430349C1F8880078
:101A50004046BDE8F88300000010024000700040DE
:101A60002DE9F04104460D4614B90120BDE8F0818E
:101A70005548006800F00700A8420ED2524800689E
:101A800020F007002843504908600846006800F02D
:101A90000700A84201D00120E8E7207800F001000B
:101AA000002840D06068032806D14848006800F04C
:101AB0000070D8B90120D9E76068022806D14348F0
:101AC000006800F4003088B90120CFE7606830B9C1
:101AD0003E48006800F0020040B90120C6E73B48DC
:101AE000006800F4806008B90120BFE737488068CB
:101AF00020F003006168084334498860FFF71AFA50
:101B0000064608E0FFF716FA801B41F2883188424A
:101B100001D90320AAE72D48806800F00C00616815
:101B2000B0EB810FEED1207800F00200022807D13F
:101B30002648806820F0F000A168084323498860A7
:101B40002148006800F00700A8420ED91E4800682E
:101B500020F0070028431C4908600846006800F090
:101B60000700A84201D0012080E7207800F004009F
:101B7000042807D11548806820F4E060E168084334
:101B800012498860207800F00800082808D10F4822
:101B9000806820F46050216940EAC1000B498860E8
:101BA00000F046F809498968C1F30311084A515CFD
:101BB00001F01F01C8400749086007480068FFF7A7
:101BC0004DFC0746384651E7002002400010024015
:101BD000E45D000838000020300000200148006863
:101BE000704700003800002000B5FFF7F7FF0549F7
:101BF0008968C1F30221044A515C01F01F01C84009
:101C000000BD000000100240F45D000800B5FFF7C1
:101C1000E5FF05498968C1F3C221044A515C01F01E
:101C20001F01C84000BD000000100240F45D000824
:101C3000F0B500230020DFF8D4C0DCF808C00CF0B9
:101C40000C01DFF8C8C0DCF80CC00CF0030719B1B8
:101C50000C291ED1012F1CD1DFF8B0C0DCF800C068
:101C60000CF0080CBCF1000F06D1DFF8A0C0DCF8C6
:101C700094C0CCF3032305E0DFF890C0DCF800C08B
:101C8000CCF30313DFF888C05CF8233041B9184661
:101C900006E0042901D11F4802E0082900D11E48AE
:101CA0000C2932D1DFF864C0DCF80CC00CF003045E
:101CB000012C09D0022C02D0032C04D101E0154ADA
:101CC00004E0154A02E000BF1A4600BF00BFDFF87B
:101CD0003CC0DCF80CC0CCF3021C0CF10106DFF8B0
:101CE0002CC0DCF80CC0CCF3062C0CFB02FCBCFBBB
:101CF000F6F2DFF818C0DCF80CC0CCF3416C0CF144
:101D0000010C4FEA4C05B2FBF5F0F0BD00100240AB
:101D1000FC5D00080024F40000127A002DE9F8436D
:101D2000044614B90120BDE8F883F948806800F042
:101D30000C07F748C06800F00306207800F0100098
:101D4000102876D11FB10C2F75D1012E73D1F04818
:101D5000006800F0020018B1A06908B90120E2E7AC
:101D6000EB48216A006800F0080020B1E8480068EC
:101D700000F0F00005E0E6489430006800F4706080
:101D8000000981421FD9206A01F038FA08B1012008
:101D9000C9E700BFDE48006840F00800DC49086081
:101DA0000846006820F0F000216A0843D84908601E
:101DB00000BF0846406820F47F40E16940EA012006
:101DC000D34948601EE000BFD148006840F00800D9
:101DD000CF4908600846006820F0F000216A0843F7
:101DE000CB49086000BF0846406820F47F40E169A5
:101DF00040EA0120C6494860206A01F0FFF908B1B5
:101E0000012090E7FFF714FFC1498968C1F303116E
:101E1000C04A515C01F01F01C840BF490860BF487B
:101E20000068FFF71BFB8046B8F1000F4ED040461C
:101E300079E74BE0FFE7A06980B3B548006840F060
:101E40000100B3490860FFF775F8054606E0FFF7A3
:101E500071F8401B022801D9032064E7AC480068F0
:101E600000F002000028F2D000BFA948006840F04E
:101E70000800A74908600846006820F0F000216AC1
:101E80000843A349086000BF0846406820F47F402B
:101E9000E16940EA01209E49486017E0FFE79C485D
:101EA000006820F001009A490860FFF743F80546F2
:101EB00006E0FFF73FF8401B022801D9032032E774
:101EC0009348006800F002000028F2D1207800F06A
:101ED000010000285CD0082F03D00C2F0AD1032E5C
:101EE00008D18B48006800F4003088B3606878BB84
:101EF000012018E700BF6068B0F5803F06D1844834
:101F0000006840F48030824908601AE06068B0F5EB
:101F1000A02F0BD17E48006840F480207C490860E7
:101F20000846006840F4803008600AE0784800689D
:101F300020F48030764908600846006820F480204C
:101F4000086000BF606890B1FEF7F4FF054607E047
:101F50001EE0FEF7EFFF401B642801D90320E2E6F4
:101F60006B48006800F400300028F2D010E0FEF763
:101F7000E1FF054606E0FEF7DDFF401B642801D9BE
:101F80000320D0E66248006800F400300028F2D157
:101F9000207800F00200022852D1042F03D00C2F29
:101FA00014D1022E12D15A48006800F4806018B192
:101FB000E06808B90120B6E65548406820F0F850BE
:101FC000217C40EA01605249486039E0E06800B392
:101FD0004F48006840F480704D490860FEF7AAFF42
:101FE000054606E0FEF7A6FF401B022801D90320A4
:101FF00099E64748006800F480600028F2D0444821
:10200000406820F0F850217C40EA01604049486077
:1020100016E03F48006820F480703D490860FEF7F4
:1020200089FF054606E0FEF785FF401B022801D91F
:10203000032078E63648006800F480600028F2D17A
:10204000207800F00800082836D16069D0B1304807
:102050009430006840F001002D49C1F89400FEF76B
:1020600069FF054606E0FEF765FF401B022801D91F
:10207000032058E626489430006800F0020000284B
:10208000F1D019E022489430006820F00100204986
:10209000C1F89400FEF74EFF054606E0FEF74AFF42
:1020A000401B022801D903203DE6194894300068FE
:1020B00000F002000028F1D1207800F0040004288C
:1020C00073D14FF000091248806D00F0805078B94C
:1020D00000BF0F48806D40F080500D49886508466C
:1020E000806D00F08050009000BF00BF4FF00109EC
:1020F0000B48006800F4807008BB0948006840F491
:10210000807007490860FEF715FF054611E00000E2
:1021100000100240E45D000838000020300000207C
:1021200000700040FEF706FF401B022801D9032083
:10213000F9E5B748006800F480700028F2D000BFCD
:10214000A068012808D1B348006840F00100B149F7
:102150009039C1F8900021E0A06805280FD1AD4862
:10216000006840F00400AB499039C1F8900008467F
:10217000D0F8900040F00100C1F890000EE0A548B2
:10218000006820F00100A3499039C1F8900008468A
:10219000D0F8900020F00400C1F8900000BFA068C3
:1021A000A0B1FEF7C7FE054609E02EE0FEF7C2FE2D
:1021B000401B41F28831884201D90320B3E595489C
:1021C000006800F002000028F0D012E0FEF7B2FE36
:1021D000054608E0FEF7AEFE401B41F2883188421A
:1021E00001D903209FE58B48006800F00200002819
:1021F000F0D1B9F1010F07D186489038806D20F0F9
:10220000805084499039886500BF207800F0200014
:10221000202838D1606AD8B17E480830006840F084
:1022200001007C499039C1F89800FEF783FE05460D
:1022300006E0FEF77FFE401B022801D9032072E56D
:1022400074480830006800F002000028F1D01AE05D
:1022500070480830006820F001006E499039C1F8DC
:102260009800FEF767FE054606E0FEF763FE401B9A
:10227000022801D9032056E566480830006800F0BE
:1022800002000028F1D1A06A00285BD00C2F78D082
:10229000A06A022857D15F489038006820F080700B
:1022A0005C4990390860FEF745FE054606E0FEF7FA
:1022B00041FE401B022801D9032034E555489038DF
:1022C000006800F000700028F1D1D4E90B10401E26
:1022D00041EA0011606B41EA0021A08F0122C2EBAC
:1022E000500041EA40514020005DC2EB500041EAFD
:1022F00040613820005D41EAC06046499039C968B4
:10230000454A1140084343499039C860084600686F
:1023100040F0807008600846C06840F08070C86077
:10232000FEF708FE054606E0FEF704FE401B022805
:1023300001D90320F7E437489038006800F00070B6
:102340000028F1D061E033489038006820F08070B8
:102350003049903908600846006800F0006020B9F4
:102360000846C06820F00300C8602A489038C0685A
:102370002A49084027499039C860FEF7DBFD054629
:1023800007E00EE0FEF7D6FD401B022801D903202E
:10239000C9E420489038006800F000700028F1D1AE
:1023A00033E0A06A012800D1BDE41A489038C6681D
:1023B00006F00301E06A814225D106F07001206B2E
:1023C000401EB1EB001F1ED106F4FE41606BB1EB65
:1023D000002F18D106F078413820005DB1EBC06FB6
:1023E00011D106F4C001A08F0122C2EB5000B1EB65
:1023F000405F08D106F0C0614020005DC2EB500094
:10240000B1EB406F01D001208DE400208BE400008F
:1024100000700040901002408C809D01FFFFEEFE96
:1024200070B504462546681EB0F1807F01D30120B7
:102430000FE0681E4FF0E02148610F214FF0FF30A0
:1024400001F004FC00204FF0E021886107200861C2
:10245000002070BD704770B50446656FA66F206898
:10246000806800F08000802819D1212D17D12068C4
:10247000806820F0800021688860A06E60B1A06E46
:10248000FEF776FA40B1A06EFEF7CDFA202803D110
:102490001020E067032070BD204601F0ECF82068B2
:1024A000806800F04000402819D1222E17D1206802
:1024B000806820F0400021688860E06E60B1E06EC6
:1024C000FEF756FA40B1E06EFEF7ADFA202803D1D0
:1024D0001020E0670320DEE7204601F0ABF8002083
:1024E000D9E770472DE9F04704462068C5692068A0
:1024F00006682068876805F00F08B8F1000F0CD156
:1025000005F0200048B106F0200030B1206E10B177
:102510002046216E8847BDE8F087B8F1000F71D0E2
:1025200007F0010018B906F49070002879D005F082
:10253000010048B106F4807030B1012021680862C2
:10254000E06F40F00100E06705F0020048B107F0DD
:10255000010030B1022021680862E06F40F0040001
:10256000E06705F0040048B107F0010030B1042035
:1025700021680862E06F40F00200E06705F00800A3
:1025800060B106F0200010B907F0010030B108205A
:1025900021680862E06F40F00800E067E06F80B3F8
:1025A00005F0200038B106F0200020B1206E10B1F7
:1025B0002046216E8847D4F87C902068806800F01F
:1025C0004000402802D009F0080020B3204601F066
:1025D00031F82068806800F04000402817D120685A
:1025E000806820F0400021688860E06E58B1204883
:1025F000E16E8863E06EFEF7E8F910B1E06E816B82
:1026000088470DE00DE02046FFF76BFF08E020460D
:10261000FFF767FF04E02046FFF763FF0020E06755
:1026200079E705F4801050B107F4800038B14FF419
:102630008010216808622046FFF70CFF6BE705F069
:10264000800040B106F0800028B1606E10B12046D5
:10265000616E88475FE705F0400030B106F040004A
:1026600018B1204600F0F7FF55E700BF53E7000020
:102670007335000810B504460CB9012010BDA069DF
:1026800000B100E000BF606F28B9002084F870003E
:10269000204600F029F8242060672068006820F0B8
:1026A000010021680860204600F0EEFF012800D1FB
:1026B000E4E7606A10B1204600F0A8FE2068406898
:1026C00020F49040216848602068806820F02A004B
:1026D000216888602068006840F001002168086077
:1026E000204600F00FFFC9E710B586B0044614215C
:1026F00001A8FDF724FE36492068884266D100BF54
:102700003448006E40F48040324908660846006E46
:1027100000F48040009000BF00BF00BF0846C06CBE
:1027200040F00200C8640846C06C00F0020000904F
:1027300000BF00BFC0200190022002900020039043
:10274000032004900720059001A92348FEF708FB09
:102750002248234908600220486000212048816007
:10276000C16080210161002141618161C16101621B
:10277000FEF7DCF908B1FEF7FAF800BF1848E0668A
:10278000846200BF1548143816490860022048606A
:102790001021144881600021C16080210161002165
:1027A00041618161C1610162FEF7C0F908B1FEF7C4
:1027B000DEF800BF0B48A066846200BF002205213E
:1027C0002520FEF7ABFE2520FEF798FE06B010BDD3
:1027D0000038014000100240000400485800024048
:1027E000543F00209C3F002070B504460E4615461D
:1027F000A06F202850D106B10DB9012070BD00BFD7
:1028000094F87000012801D10220F7E7012084F834
:10281000700000BF6665A4F858500020E0672220D1
:10282000A067E06EF8B11D48E16EC8621C48E16E19
:1028300008631C48E16E48630020E16E88632368EA
:1028400003F124012B46626DE06EFEF7F5F950B1FD
:102850001020E06700BF002084F8700000BF202037
:1028600060670120CAE700BF002084F8700000BF45
:102870002068006840F480702168086020688068E3
:1028800040F00100216888602068806840F04000C6
:10289000216888600020B1E70220AFE7E135000839
:1028A000273600088B350008704770472DE9F84F30
:1028B00004460E4617469946606F20285CD106B143
:1028C00017B9012000F05AB800BF94F87000012831
:1028D00001D10220F6E7012084F8700000BF00203B
:1028E000E06721206067FEF725FB8246A4F8507060
:1028F000A4F85270A068B0F5805F04D1206910B9C7
:102900000025B04602E035464FF000081DE0534672
:10291000002280212046CDF8009001F0BAF808B1DD
:102920000320CFE745B9B8F80000C0F308002168DC
:10293000088508F1020803E02878216808856D1CE5
:10294000B4F85200401EA4F85200B4F85200002817
:10295000DDD15346002240212046CDF8009001F001
:1029600098F808B10320ADE72020606700BF002081
:1029700084F8700000BFA5E70220A3E718BCBDE8FB
:10298000E08F0000816E0968096821F00101826E04
:1029900012681160034A0168914202D10021024A83
:1029A0001170704700380140A0000020FEE7016868
:1029B0008969C1F3400111B1002102689162016887
:1029C000896901F0010129B90168896941F00101B2
:1029D000026891617047000070B504460D461646C6
:1029E00020688069C0F3001000283DD017E0681C03
:1029F000A8B1FEF79FFA801BA84200D87DB9606C91
:102A000040F020006064202084F84100002084F819
:102A1000420000BF84F8400000BF012070BD206864
:102A20008069C0F340100028E1D010202168C861FF
:102A300020202168C8612046FFF7B9FF2068406860
:102A40000A49084021684860606C40F004006064F6
:102A5000202084F84100002084F8420000BF84F860
:102A6000400000BF0120D9E70020D7E700E800FEC2
:102A7000F0B5059C05686D684FF4806606EA54560B
:102A800066F0FC2646F4C046B543C1F309064FF490
:102A90007F0707EA02473E431E4326433543066845
:102AA0007560F0BD2DE9F04104460E4617461D46FF
:102AB000DDF8188019E0681CB8B1FEF73BFAA0EB0E
:102AC0000800A84200D885B9606C40F0200060641E
:102AD000202084F84100002084F8420000BF84F8E0
:102AE000400000BF0120BDE8F081206880693040CF
:102AF000B04201D1012000E00020B842DBD000202C
:102B0000F1E7000070B504460D46164640E0324637
:102B100029462046FFF760FF08B1012070BD2068FC
:102B20008069C0F34010F8B120688069C0F380006C
:102B300018B1208D08B10020F0E720202168C8617D
:102B40002068406816490840216848600020606499
:102B5000202084F84100002084F8420000BF84F85F
:102B6000400000BF0120D9E7FEF7E4F9801BA8422E
:102B700000D86DB9606C40F020006064202084F8BB
:102B8000410000BF002084F8400000BF0120C5E7DD
:102B900020688069C0F380000028B8D00020BDE71D
:102BA00000E800FE70B504460D4616461DE03246AC
:102BB00029462046FFF710FF08B1012070BDFEF73F
:102BC000B9F9801BA84200D87DB9606C40F02000A4
:102BD0006064202084F84100002084F8420000BF97
:102BE00084F8400000BF0120E8E720688069C0F356
:102BF00040100028DBD00020E0E770B504460D4609
:102C000016461FE0324629462046FFF7E5FE08B18A
:102C1000012070BD681CA8B1FEF78CF9801BA8428A
:102C200000D87DB9606C40F020006064202084F8FA
:102C30004100002084F8420000BF84F8400000BF3B
:102C40000120E6E720688069C0F340000028D9D061
:102C50000020DEE708B500BF0E48806C40F00100A0
:102C60000C4988640846806C00F00100009000BFA9
:102C700000BF002205210E20FEF750FC0E20FEF7BB
:102C80003DFC002205210F20FEF748FC0F20FEF737
:102C900035FC08BD0010024000B58FB01C220C4965
:102CA00008A8FDF733FB002108A801F095FC0949AD
:102CB00008601C2206491C3101A8FDF727FB0021F2
:102CC00001A801F089FC044908600FB000BD0000B4
:102CD000AC5D0008240000202800002000B587B06B
:102CE000142102A8FDF72BFB00BF2F48C06C40F059
:102CF00004002D49C8640846C06C00F0040001902F
:102D000000BF00BF00BF0846C06C40F00100C864AF
:102D10000846C06C00F00100019000BF00BF00BF7A
:102D20000846C06C40F00200C8640846C06C00F061
:102D30000200019000BF00BF002204211B48FEF7E3
:102D4000F3F8102002901A4803900020049002A982
:102D50004FF09040FEF704F80220029015480390CF
:102D60000020049002A91148FDF7FAFF0420029008
:102D70000120039004900020059002A90B48FDF764
:102D8000EFFF002205210720FEF7C8FB0720FEF712
:102D9000B5FB002205210A20FEF7C0FB0A20FEF742
:102DA000ADFB07B000BD0000001002400004004869
:102DB000000021100000111010B5124812490860DF
:102DC000124848600021104881600121C160002143
:102DD000016141618161C1610162FEF721F908B1C0
:102DE000FDF7C5FD00210848FEF7AAF808B1FDF778
:102DF000BEFD00210448FEF7D8F808B1FDF7B7FD85
:102E000010BD000000580040883E0020EC9C90104F
:102E100010B50D480D4908604FF4E13048600021BD
:102E20000A488160C16001610C214161002181611A
:102E3000C16101620020054948620846FFF71AFC9B
:102E400008B1FDF794FD10BD00380140D43E0020CC
:102E5000FEE7704710B50848007838B100F0AAF8CE
:102E600001F092FF05A000F0C5FE10BD0FA000F01C
:102E7000C1FE00BFF9E700000C000020716D613653
:102E800039383120696E69742073756363657373B3
:102E9000203A20675F73656E736F722066756E638C
:102EA00074696F6E206F70656E0D0A00716D61360A
:102EB00039383120706F776572206F66660D0A00B1
:102EC00037B582B00C46154600BF41F28830012369
:102ED00002AA242100901A48FEF7B6F908B1FDF7BE
:102EE00046FD00BF1648FEF797F82028FAD114488F
:102EF000FEF78FF80428E8D06420FDF7EBFE00BF52
:102F000041F288302B462246242100900C48FEF7DF
:102F1000E9F808B1FDF72BFD00BF0948FEF77CF882
:102F20002028FAD10648FEF774F80428E8D000BF3C
:102F30000348FEF771F82028FAD105B030BD000033
:102F4000883E002010B504462146112000F010F8FC
:102F500010BD10B5B6242146362000F009F86420D3
:102F6000FDF7B8FE00242146362000F001F810BD20
:102F70007CB504460D468DF804408DF8055000BF21
:102F800042F21070022301AA242100900848FEF7A3
:102F90005BF908B1FDF7EBFC00BF0548FEF73CF814
:102FA0002028FAD10248FEF734F80428E8D07CBD86
:102FB000883E002008B5002000908020FFF7C2FF67
:102FC0006420FDF787FEFFF7C4FF8020FFF7BAFFFC
:102FD0006420FDF77FFE012269460020FFF770FFA5
:102FE0009DF80000B0281CD101210F20FFF7C0FF81
:102FF00005211020FFF7BCFF01212B20FFF7B8FFB0
:1030000020211620FFF7B4FF20211920FFF7B0FF81
:1030100000212020FFF7ACFF80211120FFF7A8FF3F
:1030200027E002210F20FFF7A3FFE2211020FFF786
:103030009FFF07211820FFF79BFF01211A20FFF7B0
:1030400097FF00212C20FFF793FF0A212E20FFF786
:103050008FFF00212020FFF78BFF82211120FFF737
:1030600087FF80215F20FFF783FF00215F20FFF7AC
:103070007FFF08BD2DE9F04104460F4600255B485F
:10308000C06800F0030090B15848C06800F0030029
:103090002168884209D1206838B15448C068C0F31B
:1030A0000210401C6168884233D0012531E020685D
:1030B000012804D0022809D003281AD10DE04B487A
:1030C000006800F0020000B9012514E047480068DC
:1030D00000F4806000B901250DE04448006800F468
:1030E000003028B94148006800F4802000B901256B
:1030F00001E0012500BF00BF5DB9D4E90010401E0A
:1031000041EA00103949C96821F073010843374981
:10311000C860002D67D13548006820F080603349D1
:103120000860FDF707FF064606E0FDF703FF801B7A
:10313000022801D9032505E02C48006800F0006052
:103140000028F2D100BFC5BB67B9A0680002217B8F
:1031500040EAC16025490969254A114008432349CD
:10316000086120E0012F0FD1A0680002218A01220E
:10317000C2EB510140EA41501C4909691D4A114006
:1031800008431A4908610EE0A0680002217D01226F
:10319000C2EB510140EA416014490969164A1140E5
:1031A0000843124908611148006840F080600F49E7
:1031B0000860FDF7BFFE064607E014E0FDF7BAFE23
:1031C000801B022801D9032505E00848006800F0AB
:1031D00000600028F2D000BF2DB904480069A16941
:1031E0000843024908612846BDE8F081001002400A
:1031F000FF80FF07FF809FFFFF80FFF9F8B50446BF
:1032000000262348806D00F0805018B1FEF722FAA6
:10321000054616E000BF1E48806D40F080501C49F6
:1032200088650846806D00F08050009000BF00BFA8
:10323000FEF710FA05461648806D20F080501449BC
:103240008865B5F5007F07D1802C10D9A02C01D955
:1032500002260CE001260AE0802C01D9032606E0B4
:10326000802C01D1022602E0702C00D101260948F1
:10327000006820F0070030430649086008460068EF
:1032800000F00700B04201D00120F8BD0020FCE7AB
:10329000001002400020024008B500BF4FF0FF328E
:1032A00069460F48006802F00DFA0098408801282E
:1032B00006D14FF4FA720099091D0A48FFF794FAF3
:1032C000002100984288001D815400980178021D59
:1032D00005A000F08FFC002000990870DEE70000D8
:1032E00004000020D43E002025642D25730000003A
:1032F00010B5FEF797F802F073FB012803D0BDE884
:10330000104002F0C9B810BD00B5AFB044211EA8EE
:10331000FDF715F8142119A8FDF711F8602101A88F
:10332000FDF70DF8FEF79EF92348006820F018001D
:1033300021499039C1F8900014201E90012020905E
:1033400024900020259060202690022028900121C2
:103350001EA8C16201632821416307218163022104
:10336000C1630164FEF7DAFC08B1FDF700FB0F2032
:10337000199003201A9000201B901C901D9004218E
:1033800019A8FEF76DFB08B1FDF7F1FA8120019055
:10339000002009900E9001A8FEF778F908B1FDF71A
:1033A000E6FA4FF40070FEF70FF908B1FDF7DFFA07
:1033B000FEF762F92FB000BD90100240104800687F
:1033C00040F470000E4908600E48006840F00100AB
:1033D0000C49086000208860084600680A490840D7
:1033E000084908608814C8600846006820F48020F6
:1033F000086000208861C80301498039086070476F
:1034000088ED00E000100240FFFFF6EA90F824107B
:1034100001F0010139B10168496821F40031826A83
:1034200011430268516090F8241001F00201022952
:1034300007D10168496821F48031C26A11430268EA
:10344000516090F8241001F00401042907D10168AB
:10345000496821F48021026B11430268516090F8A1
:10346000241001F00801082907D10168496821F4F6
:103470000041426B11430268516090F8241001F042
:103480001001102907D10168896821F48051826BED
:1034900011430268916090F8241001F02001202966
:1034A00007D10168896821F40051C26B1143026899
:1034B000916090F8241001F04001402913D1016877
:1034C000496821F48011026C114302685160016C5B
:1034D000B1F5801F07D10168496821F4C001426C31
:1034E00011430268516090F8241001F08001802996
:1034F00007D10168496821F40021826C11430268F8
:103500005160704738B504460020E067FDF712FDB2
:1035100005462068006800F0080008280CD16FF00C
:103520007E402B4600224FF400110090204600F010
:10353000B0FA08B1032038BD2068006800F004002C
:1035400004280CD16FF07E402B4600224FF48001FE
:103550000090204600F09DFA08B10320EBE7202000
:103560006067A06700BF002084F8700000BF00BF44
:10357000E1E770B50546AC6A0020A4F85A00A4F84B
:1035800052002046FEF7ADFF70BD2DE9F041054623
:10359000AC6A666FA76F2068806800F080008028A2
:1035A00007D1212E05D10020A4F85200204600F0BA
:1035B00062F82068806800F04000402807D1222F80
:1035C00005D10020A4F85A00204600F033F8E06F3F
:1035D00040F01000E0672046FEF783FFBDE8F08171
:1035E00070B50546AC6A2868006800F02000B0B9E4
:1035F0000020A4F85A002068006820F48070216838
:1036000008602068806820F00100216888602068D8
:10361000806820F04000216888602020A067204654
:10362000FFF742F970BD70B50446A56A2846FFF75A
:103630003CF970BD0168096821F49071026811605D
:103640000168896821F00101026891602021816789
:1036500000210166704710B504462068006820F01C
:1036600040002168086020206067002060662046D6
:10367000FFF788F910BD0168096821F0C0010268F0
:1036800011602021416770472DE9F84F044600265C
:10369000002000908246F4492068884200D100E072
:1036A00000BF2169A068084361690843E16940EAF5
:1036B000010920680068ED49084040EA09002168D6
:1036C00008602068406820F44050E16808432168A1
:1036D0004860D4F81890E4492068884202D0206AF3
:1036E00040EA09092068806820F4306040EA090057
:1036F0002168886000BFDE492068884216D1DD4815
:10370000006800F0030030B1012808D0022804D07E
:10371000032808D105E0012507E0022505E004257E
:1037200003E0082501E0102500BF54E0D2492068DD
:10373000884216D1CF48006800F00C0030B1042850
:1037400008D0082804D00C2808D105E0002507E09F
:10375000022505E0042503E0082501E0102500BF4F
:1037600039E0C6492068884216D1C248006800F096
:10377000300030B1102808D0202804D0302808D1DB
:1037800005E0002507E0022505E0042503E0082503
:1037900001E0102500BF1EE0B3492068884219D11E
:1037A000B448006800F4406048B1B0F5806F0AD0BA
:1037B000B0F5006F05D0B0F5406F08D105E00025E9
:1037C00007E0022505E0042503E0082501E01025B7
:1037D00000BF00E0102500BFA3492068884272D1D5
:1037E000042D10D003DC3DB1022D13D108E0082DCB
:1037F0000DD0102D0ED10EE0FEF7F6F982460DE049
:10380000DFF87CA20AE0FEF713FA824606E04FF4E6
:10381000004A03E000BF0120009000BF00BFBAF1E2
:10382000000F0AD0606800EB4000504503D8606884
:103830000003504502D2012000900FE1042D2ED04C
:1038400003DC3DB1022D51D118E0082D3CD0102DE4
:103850004CD14CE0FEF7C8F94FF48071A0FB013168
:10386000606840081F1841F10001D4F804C06246A6
:1038700000233846FCF716FD06463BE0D4F804C0AA
:103880004FEA5C0000217F4BC71841EB01086246FC
:103890000B4638464146FCF705FD06462AE0FEF792
:1038A000C7F94FF48071A0FB0130616849085F18C7
:1038B00040F10001D4F804C0624600233846FCF70A
:1038C000F1FC064616E022E0D4F804C04FEA5C00A2
:1038D00000214FF40003C71841EB010862460B4674
:1038E00038464146FCF7DEFC064603E000BF0120F7
:1038F000009000BF00BFB6F5407F05D3B6F5801F2E
:1039000002D22068C660A9E001200090A6E0E0692C
:10391000B0F5004F57D1042D28D005DC4DB1012D55
:1039200011D0022D36D118E0082D29D0102D31D11B
:1039300031E0FEF759F94000616800EB5100B0FB3F
:10394000F1F086B22AE0FEF761F94000616800EB11
:103950005100B0FBF1F086B220E04B49606801EB0A
:1039600050006168B0FBF1F086B217E0FEF760F935
:103970004000616800EB5100B0FBF1F086B20DE051
:103980004FF48031606801EB50006168B0FBF1F0EA
:1039900086B203E000BF0120009000BF00BF102EE0
:1039A0000ED3B6F5803F0BD24FF6F07006EA000B4F
:1039B000C6F342004BEA000B2068C0F80CB04DE0A3
:1039C000012000904AE0042D26D005DC4DB1012DE8
:1039D00010D0022D33D116E0082D26D0102D2ED177
:1039E0002EE0FEF701F9616800EB5100B0FBF1F049
:1039F00086B228E0FEF70AF9616800EB5100B0FBDF
:103A0000F1F086B21FE01E49606801EB500061686A
:103A1000B0FBF1F086B216E0FEF70AF9616800EB40
:103A20005100B0FBF1F086B20DE04FF40041606848
:103A300001EB50006168B0FBF1F086B203E000BF1B
:103A40000120009000BF00BF102E05D3B6F5803FC7
:103A500002D22068C66001E00120009000202066AC
:103A60006066009800F012B800800040F369FFEF34
:103A700000380140881002400044004000480040E7
:103A80000024F400000024F40048E80118BCBDE85C
:103A9000E08F2DE9F04104460D4617469846069EF4
:103AA0001FE0701CE8B1FDF745FAA0EB0800B0423A
:103AB00000D8B6B92068006820F4D070216808608A
:103AC0002068806820F001002168886020206067FD
:103AD000A06700BF002084F8700000BF0320BDE88D
:103AE000F0812068C0692840A84201D1012000E08F
:103AF0000020B842D5D00020F1E7000010B50448FE
:103B000000F00AF8BDE810400148FEF7EBBC0000E9
:103B1000D43E0020FEE7000038B5044600200090A7
:103B20002068C069C0F3001000284DD01020216823
:103B300008622046FEF78FFC29492068884243D15D
:103B4000E06E00684068C0F5FA70B0F5FA7F17D8EB
:103B5000E06E00684068C0F5FA7022490968488044
:103B600003202049096848701E48006840880028E2
:103B700006DD00236A461B491B48006801F022FD50
:103B8000184800684088012816DD002511E0C5EBC3
:103B90008510164911F8300048B9C5EB851001EBC6
:103BA000C00010490860681C0968087003E0681CC0
:103BB000C5B21E2DEBDB00BF4FF4FA720948016855
:103BC000091D2046FEF710FE009838B14FF08050D6
:103BD00007490860BFF34F8FBFF36F8F38BD0000F8
:103BE00000380140000000200400002024010020D3
:103BF00004ED00E00FB4054B10B503A9044A029888
:103C000000F00EF910BC5DF814FB000061450008DF
:103C10009C0000200FB4084B10B504A902AA039819
:103C200000F0FEF8044602A9002000F093FC2046B4
:103C300010BC5DF814FB0000554500080248006800
:103C4000C0F30220704700000CED00E010B5002822
:103C500004DB0A07130E054A135406E00A07140E84
:103C6000034A00F00F031B1FD45410BD00E400E012
:103C700018ED00E002E008C8121F08C1002AFAD1BE
:103C800070477047002001E001C1121F002AFBD1DC
:103C9000704700002DE9FF5F82B00021DDE90430AC
:103CA000020DDDF840B0034318D044F61050A2F2E4
:103CB000FF3242431514119801281FD0A5EB0B00C9
:103CC000401C5FEA000A4FF000064E4FDFF83891C3
:103CD000B046504615D5CAF1000413E011980124EE
:103CE0004AA3012801D16FEA0B010298119AC0E999
:103CF0000031C0E9024206B000F08EB8CBF10000FE
:103D0000DFE704460021404A491842EB0450CDE960
:103D1000001012E0E00707D032463B4640464946D5
:103D2000FCF7C7FB8046894632463B46104619469B
:103D3000FCF7BFFB06460F466410002CEAD1DDE914
:103D40000401DDE90023BAF1000F06DAFCF7B1FB4C
:103D500042464B46FCF7ADFB05E0FCF729FD424629
:103D60004B46FCF725FD04460E460022284BFCF787
:103D7000A7FD03D84FF0FF30014607E00022254B96
:103D800020463146FCF7E6FAFCF781FD102409E0F5
:103D9000002C0ADB0A220023FCF784FA039B303252
:103DA0001A55641E50EA0102F2D1641C039AC4F150
:103DB00011031444119A012A03D0012208430DD1A2
:103DC0000AE0084304D000204FF0110B119072E775
:103DD000A3EB0B056D1E0DE05B4504DD4FF000020B
:103DE00005F1010504E003DA4FF00002A5F1010539
:103DF000002AECD002981199C0E90231C0E90045CF
:103E000079E70000000014400000F03F300000009F
:103E10000000F0430000E03F30BCBDE8C09F000060
:103E20002DE9FF4F95B09B468946064600250FE2D7
:103E3000252877D100242746F84A0121059400E07F
:103E4000044316F8013F203B01FA03F01042F7D17A
:103E500030782A2811D06FF02F033078A0F130028B
:103E6000092A16D8059A44F0020402EB820203EBF9
:103E700042021044761C0590EFE759F8042B059296
:103E8000002A03DA504244F40054059044F002043E
:103E9000761C30782E2816D116F8010F44F0040451
:103EA0002A280DD06FF02F023078A0F13003092BB3
:103EB00009D807EB870302EB4303C718761CF3E727
:103EC00059F8047B761C30786C280FD006DC4C281F
:103ED00017D068280DD06A2814D104E0742810D0B7
:103EE0007A280FD10DE044F400140AE044F4801461
:103EF00001E044F440147278824202D104F5801447
:103F0000761C761C307866280BD013DC582877D0C6
:103F100009DC002875D04528F6D04628F4D047287B
:103F20001AD19DE118E0632835D0642879D065283E
:103F300012D195E1702873D008DC6728F1D0692888
:103F40006FD06E280DD06F2806D1B5E073282CD025
:103F5000752875D0782874D05A46179990476D1CEB
:103F600075E1C4F30250022809D003280DD0D9F816
:103F7000001004280DD00D6009F1040967E1D9F89B
:103F80000010EA17C1E90052F6E7D9F800100D80D9
:103F9000F2E70D70F0E719F8041B8DF8001000200F
:103FA0008DF80100EA46012003E059F804AB4FF018
:103FB000FF3061074FF0000102D40DE008F101016C
:103FC0008846B9420FDA8045F8DB1AF80810002954
:103FD000F4D108E008F1010188468142FADB1AF8C1
:103FE00008100029F6D105985B46A0EB080721468A
:103FF0003846179A00F097FA284400EB080507E0C6
:104000004DE029E10DE01AF8010B5A461799904747
:10401000B8F10108F7D25B4621463846179A13E1FA
:1040200042E00A220092C4F302524FF0000A022A30
:1040300008D059F804CB032A4FEAEC710AD00DE0FE
:1040400029E02AE009F1070121F00702F2E802C1A4
:10405000914609E00FFA8CFC4FEAEC71042A03D177
:104060004FFA8CFC4FEAEC71002907DA0A4600216E
:10407000DCF1000C61EB02012D2202E0220504D5E7
:104080002B228DF80420012203E0E20701D0202238
:10409000F7E7904659E00A2102E010220DE01021D6
:1040A0004FF0000A00910BE010224FF0000A44F09C
:1040B00004040827009203E008224FF0000A00924F
:1040C000C4F30252022A05D059F804CB0021032A76
:1040D00008D009E009F1070121F00702F2E802C166
:1040E000914605E01FFA8CFC042A01D10CF0FF0C6C
:1040F0004FF00008220728D5702806D0009B83F0D7
:10410000100353EA0A0305D00EE040228DF8042084
:10411000012208E05CEA010206D030228DF804207A
:104120008DF8050002229046009B83F0080353EAB5
:104130000A030AD15CEA010201D1620705D53022E7
:104140008DF804204FF001087F1E582804D034A0B9
:1041500003900EA802900DE036A0F9E753466046A2
:10416000009AFCF79FF884460398825C0298401EF0
:10417000029002705CEA0100F0D1029806A9081AC8
:1041800000F1200A600702D524F4803400E0012702
:10419000574502DDA7EB0A0000E0002000EB0A0112
:1041A000009005984144401A0590E00306D45B4610
:1041B0002146179A059800F0B6F90544002706E055
:1041C00001A85A46C05D179990476D1C7F1C474552
:1041D000F6DBE0030CD55B462146179A059800F004
:1041E000A2F9054404E030205A46179990476D1C07
:1041F0000099481E00900029F5DC08E00298029919
:104200005A460078491C0291179990476D1CBAF1E3
:104210000001AAF1010AF1DC65E1000009280100B2
:10422000303132333435363738396162636465662C
:1042300000000000303132333435363738394142EE
:10424000434445460000000000F05BF90544761C3D
:10425000307800287FF4ECAD19B0284600F04EB954
:10426000620700D4062709F1070222F0070CFCE8D8
:104270000223E14603F000485FEA080C02D00FF287
:10428000702C0DE05FEA045C02D50FF2682C07E0A9
:104290005FEAC47C02D00FF2602C01E0AFF2700C38
:1042A0004FF0FF3823F00043CDF850C065280CD004
:1042B00006DC452809D046281DD047283DD13DE0E1
:1042C000662818D067287ED138E00021112F01DB45
:1042D000112000E0781CCDE9000106A90EA8FFF727
:1042E000D9FCDDE90F010E9A03910021009207F13C
:1042F000010A04914DE04FF000400097CDE9011014
:1043000006A90EA8FFF7C6FCDDE90F0203920E9B7B
:1043100011990022DDF80CA00093049211B9791CC8
:1043200000EB010AB7EB0A0004D4C0F1FF3007F13B
:10433000010A0490AAEB0700019044E0012F00DA83
:1043400001270021112F01DD112000E03846CDE9C1
:10435000000106A90EA8FFF79DFCDDE90F010E9AEA
:104360000391002104910092BA4621070CD40399CD
:10437000514500DA8A46BAF1010F05DD009AAAF12B
:104380000101515C302908D0B84202DA10F1040F63
:1043900006DA0121CDE9011015E0AAF10101E9E7F2
:1043A000002805DC049901440491AAEB000102E015
:1043B000411C514500DD8A460499401A401C019079
:1043C0004FF000400290200704D40198504501DBD3
:1043D000CDF8048000208DF84F0002980DF14F07B2
:1043E000B0F1004F25D02B200E9002984FF002081C
:1043F00000280CDA404202902D200E9007E00A219E
:104400000298FCF7FAF83031029007F8011DB8F174
:104410000001A8F10108F2DC02980028EFD1791E12
:104420000E980870307800F0200040F0450007F842
:10443000020D12A8C01B00F107081498007800B103
:10444000012000EB0A01019801EBE071059841445D
:10445000401A401E0590E00306D45B462146179A99
:10446000059800F060F805441498007818B15A4691
:10447000179990476D1CE00324D55B462146179A97
:10448000059800F050F805441CE00498002807DB6C
:10449000DDE90301884203DD0098405C179901E0E3
:1044A000179930205A469047049805F10105401CA1
:1044B00004900198401E019004D12E205A4617996D
:1044C00090476D1CBAF10001AAF1010ADDDC05E09C
:1044D00017F8010B5A46179990476D1CB8F1000167
:1044E000A8F10108F4DC5B462146179A0598ABE673
:1044F0002D0000002B0000002000000030BCBDE8B3
:10450000C08F2DE9F041044600251E461746880459
:1045100004D405E039462020B0476D1C641EF9D54F
:104520002846BDE8F0812DE9F041044600251E46ED
:104530009046C80301D5302700E02027880404D521
:1045400005E041463846B0476D1C641EF9D5284643
:10455000BDE8F0810A68531C0B60107070470000C2
:1045600013B50C464FF6FF73012269460248FEF769
:104570009DF900981CBD0000D43E0020FCF75EFFB2
:10458000FEF7C2FE00F08EFCFEF7A8FBFEF762FB12
:10459000FEF73EFCFEF710FC00F062FCFEF77CFB31
:1045A00000F015F800BFFEE701460020842901D085
:1045B000CA1C1044704770B5044625460DB1294603
:1045C00000E00121084600F0B1FD002070BD10B5EB
:1045D00000F008FE002010BD7FB504460D4660695E
:1045E00098B1A06988B1B4F90800FFF7DDFF06466D
:1045F000D4E90510CDE9006102902B462269D4E987
:10460000001001F08EF9039013E0B4F90800FFF7F1
:10461000CBFF064603A8CDE90060238A9AB22B4659
:10462000D4E9001001F048F9012802D0002004B0BC
:1046300070BD0398FBE700002DE9F04105460E46EA
:104640001C4807681C480068001D00F037FC50B982
:104650001948006890F82C10012088401749096813
:10466000814316480160681C38B936B112480168A8
:10467000091D134800F06CFC1AE07C190E48006814
:104680004460BC4207D20C480168091D0D4800680F
:1046900000F044FC0CE008480168091D0A48006865
:1046A00000F03CFC09480068844201D207480460DD
:1046B000BDE8F081500000203C00002054000020A4
:1046C000C040002044000020400000206C0000207A
:1046D00010B5044600F048FC23480068401C2249FD
:1046E00008602248006840B9204804600846006815
:1046F00001280DD100F0A4F90AE01D48006838B97E
:104700001A480068C06AE16A884201D81748046004
:1047100018480068401C1749086094F82C100120C4
:10472000884015490968084313490860E16A01EBAC
:104730008101124A02EB8100211D00F009FC00F00A
:104740003DFC0B48006868B108480068C06AE16A2F
:10475000884207D24FF0805009490860BFF34F8F5D
:10476000BFF36F8F10BD00004C0000203C00002004
:10477000580000206800002054000020E43F002082
:1047800004ED00E010B516E000F0EEFB0C48C06848
:10479000C468201D00F092FB0A480068401E0949C9
:1047A000086009480068401E0749086000F006FCE0
:1047B000204600F05EF8044800680028E4D110BDEF
:1047C000AC4000204C0000204800002070B504469A
:1047D0000D46206C70B1216CE0680844E0606168AF
:1047E000E068884201D32068E0602846226CE168D6
:1047F000FBF78CFD70BD2DE9F04104460F461546D0
:104800004FF00008A66B206C40B9206860BB606860
:1048100001F09AF980460020606025E07DB93946B4
:10482000226CA068FBF772FD216CA0680844A060B0
:10483000D4E90110884217D32068A06014E03946FB
:10484000226CE068FBF762FD216CE068401AE060D2
:104850002168E068884203D2216C6068401AE060F9
:10486000022D01D106B1761E701CA0634046BDE842
:10487000F08110B5044694F8510030B9206B00F077
:10488000BBFB204600F0B8FB1AE094F85100012869
:1048900003D1204600F0B0FB12E094F8510002284A
:1048A00001D1012000E0002050B900BF502080F36A
:1048B0001188BFF34F8FBFF36F8F00BF00BFFEE7BC
:1048C00010BD000030B540F6B833174800F00704BB
:1048D0002CB1C01D20F00700134C041B1B1B02460B
:1048E000124C22600024114D6C60D018083820F062
:1048F00007000F4C206000240D4D2D686C600C4D9E
:104900002D682C601146441A4C60094C24680C60D8
:10491000084D4C682C60084D4C682C604FF00044EA
:10492000064D2C6030BD0000D440002078000020EF
:104930008000002088000020840000208C000020DF
:1049400000BFFFF71FFF064800680128F9D94FF0A4
:10495000805004490860BFF34F8FBFF36F8FF0E7BB
:10496000E43F002004ED00E02DE9F04106460D464D
:1049700017469846069C0DB9246000E02760E66360
:1049800025640121204600F0D1FDBDE8F0812DE92C
:10499000FF5F81460F469246DDE90E6B109CAAF13F
:1049A0000100216B01EB800828F0070808F00700E0
:1049B00008B9012000E0002050B900BF502080F36A
:1049C0001188BFF34F8FBFF36F8F00BF00BFFEE7AB
:1049D000002507E0795D04F134004155785D00B9A8
:1049E00002E06D1C102DF5D300BF002143200155BE
:1049F000072E00D30626E66266640020A064201D10
:104A000000F089FA04F1180000F085FA2461C6F17B
:104A10000700A06164620020E06484F85000494609
:104A20004046039A00F09AF92060BBF1000F01D0D4
:104A3000CBF8004000F000B83FBCBDE8C09F0000CC
:104A400010B5002407E004EB84010F4A02EB81005B
:104A500000F054FA641C072CF5D30C4800F04EFA11
:104A60000B4800F04BFA0B4800F048FA0A4800F0F7
:104A700045FA0A4800F042FA044809490860044827
:104A80000849086010BD0000E43F0020704000208D
:104A90008440002098400020AC400020C04000200E
:104AA000400000204400002010B50146164800E0F8
:104AB000006803688B42FBD30246436813448B4271
:104AC00004D143684C682344436001460A464B685E
:104AD00013440468A34211D10C4C03682468A34218
:104AE00008D04B680468646823444B6003681B6803
:104AF0000B6005E0054B1B680B6001E003680B6071
:104B0000884200D0016010BD7800002080000020A5
:104B100070B5054600F028FAA86B08B9012400E03A
:104B2000002400F04BFA204670BD00000A490968D5
:104B3000096809B9012100E0002121B14FF0FF31DE
:104B4000064A116006E004490968C968C868034A52
:104B50004168116070470000400000206C00002098
:104B60000E480068401C08B9012000E0002050B940
:104B700000BF502080F31188BFF34F8FBFF36F8FBA
:104B800000BF00BFFEE700BF502080F31188BFF3D5
:104B90004F8FBFF36F8F00BF00BFFEE79000002074
:104BA00070B5044600F0E0F994F9455010E0606AF1
:104BB00008B9012000E0002038B904F1240001F018
:104BC00027F818B100F0ECFA00E003E0681E45B2E7
:104BD000002DECDC00BFFF2084F8450000F0EEF96A
:104BE00000F0C2F994F9445010E0206908B901209E
:104BF00000E0002048B904F1100001F009F808B104
:104C000000F0CEFA681E45B200E001E0002DECDCB9
:104C100000BFFF2084F8440000F0D0F970BD000010
:104C20002DE9F04104464FF0000800F033FB464800
:104C3000006808B9FFF746FE444800682040002895
:104C40006BD1D4B1083404F00700B0B104F0070010
:104C5000C0F10800044404F0070008B9012000E096
:104C6000002050B900BF502080F31188BFF34F8F50
:104C7000BFF36F8F00BF00BFFEE7002C4DD034485C
:104C80000068844249D8334E3046056801E02E461C
:104C90002D686868A04202D228680028F7D12A4807
:104CA0000068854239D0306800F108082868306013
:104CB0006868001B102819D92F1907F0070008B9D8
:104CC000012000E0002050B900BF502080F311887F
:104CD000BFF34F8FBFF36F8F00BF00BFFEE7686861
:104CE000001B78606C603846FFF7DEFE1849686884
:104CF0000968081A164908600846006816490968D4
:104D0000884203D212480068134908600F49686856
:104D10000968084368600020286000F0C5FF08F0BB
:104D2000070008B9012000E0002050B900BF502062
:104D300080F31188BFF34F8FBFF36F8F00BF00BFA9
:104D4000FEE74046BDE8F081800000208C00002096
:104D5000840000207800002088000020001F4FF011
:104D600080730360001F21F001030360001F054BE7
:104D7000036014380260001F6FF0020303602038E4
:104D800070470000614B0008704700002DED068B56
:104D900092B0402102A8FBF7D2FAFEF75BF800BF01
:104DA0004FF47A70FFF707FC402102A8FBF7C7FA1F
:104DB000012204212048FCF7B7F800201F49088091
:104DC0003220FFF7F8FB002204211B48FCF7ACF867
:104DD0001A48008800EE100AB8EE400A10EE100AD9
:104DE000FBF7DCFB41EC1A0B9FED150B53EC102B82
:104DF000FBF75FFB41EC190B9FED130B53EC102BF2
:104E0000FBF749FB41EC180BFBF7DBFB1049086093
:104E100008460068FBF7C2FB41EC180B8DED008BD8
:104E2000064802880BA102A8FEF7F4FE02A90BA017
:104E3000FEF7E0FEB4E70000000400480A0000208E
:104E4000000000000000B03F0000000000084940E2
:104E50002000002025642025660D0A00257300002F
:104E600010B543F610310C48FBF769FA01200B49E5
:104E7000096808704FF4FA7208480168091D08486B
:104E8000FDF7B2FC06480068006840F010000449D5
:104E90000968086010BD0000240100200000002007
:104EA000D43E002010B5002204211E2000F00EFB8D
:104EB0000149086010BD00000400002001460A6995
:104EC000D1E901309860D1E9010358605068884207
:104ED00001D188685060002008611068401E106091
:104EE00010687047034B0360034B0B608023136013
:104EF00070470000343C0020883C002000F108018D
:104F000041604FF0FF31816000F10801C160016133
:104F100000210160704700210161704710B5024611
:104F20000B685C1C0CB9106907E002F1080000E096
:104F30004068446824689C42FAD944684C604C68D4
:104F4000A160886041600A611468641C146010BD2F
:104F500042684A6093688B60936859609160086109
:104F600003685B1C0360704700BF502080F311880A
:104F7000BFF34F8FBFF36F8F00BF0E480068401C18
:104F80000C49086008460068012812D10A480068E8
:104F9000C0B208B9012000E0002050B900BF502085
:104FA00080F31188BFF34F8FBFF36F8F00BF00BF37
:104FB000FEE770479000002004ED00E00D48006817
:104FC00050B900BF502080F31188BFF34F8FBFF35B
:104FD0006F8F00BF00BFFEE706480068401E05490E
:104FE00008600846006820B9002080F3118800BFDF
:104FF00000BF70479000002070B506463546002E71
:105000003FD0083D2C461F4960680968084008B138
:10501000012000E0002050B900BF502080F311882B
:10502000BFF34F8FBFF36F8F00BF00BFFEE7206855
:1050300008B9012000E0002050B900BF502080F3E3
:105040001188BFF34F8FBFF36F8F00BF00BFFEE724
:105050000C4960680968084098B1206888B9094916
:10506000606809688843606000F014F90649606868
:1050700009680844044908602046FFF715FD00F060
:1050800013FE70BD8C0000208400002000204FF033
:10509000E02108618861064800684FF47A71B0FB2E
:1050A000F1F0401E4FF0E021486107200861704791
:1050B0003800002070B5FBF7CFF80446102C16D34B
:1050C00004F1E02090F8F05315480078854201DBA8
:1050D000012000E0002050B900BF502080F311886B
:1050E000BFF34F8FBFF36F8F00BF00BFFEE70D48C8
:1050F000006800F4E0600C490968884201D801208A
:1051000000E0002050B900BF502080F31188BFF3A9
:105110004F8FBFF36F8F00BF00BFFEE770BD000071
:10512000940000200CED00E09800002070B50446CB
:105130000025D4B11248006808B9012000E0002021
:1051400050B900BF502080F31188BFF34F8FBFF3D9
:105150006F8F00BF00BFFEE700F09CF800212046E3
:10516000FFF76AFA00F0A0FD05463DB94FF0805008
:1051700004490860BFF34F8FBFF36F8F70BD00000D
:105180007400002004ED00E0034909680160034950
:105190000968416070470000640000205000002052
:1051A00001200149086070476000002070B5044686
:1051B0000D4654B900BF502080F31188BFF34F8FC4
:1051C000BFF36F8F00BF00BFFEE7054801681831CD
:1051D0002046FFF7A3FE01212846FFF72DFA70BDF8
:1051E0003C00002010B586B000200590049003AA72
:1051F00004A905A8FFF776FE0022DDE90410134696
:10520000CDE9002102901CA11D48039A00F089FB02
:105210001C4908600846006808B1012400E0002429
:10522000012C15D100BF502080F31188BFF34F8FA0
:10523000BFF36F8F00BF4FF0FF30134908600120AC
:105240001249086000201249086000F071F810E06F
:10525000601C08B1012000E0002050B900BF5020C0
:1052600080F31188BFF34F8FBFF36F8F00BF00BF74
:10527000FEE706B010BD000049444C4500000000A8
:1052800041490008700000206C00002058000020F8
:105290005000002002480068401C01490860704727
:1052A000740000201D48006818B101201C490860E6
:1052B00032E000201A4908601A480068B0FA80F00D
:1052C000C0F11F0101EB8100174A52F8200008B11C
:1052D000012000E0002050B900BF502080F3118869
:1052E000BFF34F8FBFF36F8F00BF00BFFEE701EB2F
:1052F00081020D4B03EB820042685268426000F16C
:1053000008024368934202D1426852684260426890
:10531000D268064B1A6000BF70470000740000207E
:105320006000002054000020E43F00203C000020EA
:105330001CB5524800685249884201D0012000E063
:10534000002050B900BF502080F31188BFF34F8F69
:10535000BFF36F8F00BF00BFFEE7484800684849B1
:10536000491E884201D0012000E0002050B900BF52
:10537000502080F31188BFF34F8FBFF36F8F00BFB2
:1053800000BFFEE73F49084600780190FF200A462B
:1053900010700846007800909DF8000000F0F000C2
:1053A0009DF80020904201D1012000E0002050B97A
:1053B00000BF502080F31188BFF34F8FBFF36F8F72
:1053C00000BF00BFFEE79DF8000000F050002E4A2D
:1053D000107007202D4A106009E02C480068401E1C
:1053E0002A4A10609DF800004006000E00909DF8CB
:1053F000000000F080008028EFD024480068C0F151
:105400000700042801D1012000E0002050B900BFAE
:10541000502080F31188BFF34F8FBFF36F8F00BF11
:1054200000BFFEE7194800680002184A10601046E5
:10543000008800F4E0601060124A019810700F4874
:105440002030006840F470000C49203108600846A4
:10545000006840F070400860FFF718FE00200C491B
:105460000860FAF7C1FE0B48006840F04040094967
:105470000860FAF7A5FE00201CBD000000ED00E06A
:1054800071C20F4100E400E0940000209800002069
:105490009000002034EF00E010B500BF502080F3F2
:1054A0001188BFF34F8FBFF36F8F00BF00F0A8FAD2
:1054B00018B14FF080500449086000BF002080F30D
:1054C000118800BF10BD000004ED00E02DE9F84395
:1054D00005460E4690460DB1012000E0002050B96F
:1054E00000BF502080F31188BFF34F8FBFF36F8F41
:1054F00000BF00BFFEE70EB9002701E005FB06F77D
:1055000007F14800FFF78CFB04465CB104F1480941
:10551000002084F8460043464A4631462846009417
:10552000FFF722FA2046BDE8F883000070B5054673
:105530000E462C4654B900BF502080F31188BFF3AB
:105540004F8FBFF36F8F00BF00BFFEE7FFF70CFD6B
:10555000D4E90F12206801FB020060600020A06304
:105560002068A060E06B401E226C216800FB0210E6
:10557000E060FF2084F8440084F845009EB920696B
:1055800008B9012000E00020A8B904F1100000F0E3
:105590003FFB80B14FF0805009490860BFF34F8F47
:1055A000BFF36F8F07E004F11000FFF7A7FC04F1D1
:1055B0002400FFF7A3FCFFF701FD012070BD0000F0
:1055C00004ED00E02DE9F05F07468A4690461E464E
:1055D0003C4654B900BF502080F31188BFF34F8F71
:1055E000BFF36F8F00BF00BFFEE7BAF1000F01D11C
:1055F000206C08B9012000E0002050B900BF502005
:1056000080F31188BFF34F8FBFF36F8F00BF00BFD0
:10561000FEE7022E02D1E06B012801D1012000E05B
:10562000002050B900BF502080F31188BFF34F8F86
:10563000BFF36F8F00BF00BFFEE7FFF73BFD00BF6A
:105640005021EFF3118081F31188BFF34F8FBFF327
:105650006F8F00BF0546A06BE16B884201D3022E1D
:1056600023D194F945B0324651462046FFF7C3F89E
:105670000BF1010088B9606A08B9012000E0002040
:1056800080B904F1240000F0C3FA58B1B8F1000F5A
:1056900008D00120C8F8000004E00BF1010040B27E
:1056A00084F845004FF0010901E04FF0000900BF08
:1056B00085F3118800BF484600F000B830BCBDE853
:1056C000C09F00002DE9F74183B005460E464FF01C
:1056D00000082C4654B900BF502080F31188BFF356
:1056E0004F8FBFF36F8F00BF00BFFEE70EB9206C76
:1056F00008B9012000E0002050B900BF502080F31D
:105700001188BFF34F8FBFF36F8F00BF00BFFEE75D
:1057100000F066F908B9059808B9012000E00020FA
:1057200050B900BF502080F31188BFF34F8FBFF3F3
:105730006F8F00BF00BFFEE700BFFFF715FCA76B30
:10574000F7B131462046FFF741F8781EA063206983
:1057500008B9012000E0002060B904F1100000F059
:1057600057FA38B14FF080502F490860BFF34F8F80
:10577000BFF36F8FFFF722FC012006B0BDE8F08178
:10578000059818B9FFF71AFC0020F6E7B8F1000FEA
:1057900004D101A8FFF7F8FC4FF00108FFF70EFC59
:1057A000FFF778FDFFF7E0FB94F94400401C10B9C7
:1057B000002084F8440094F94500401C10B90020F2
:1057C00084F84500FFF7FAFB05A901A800F02EF8C0
:1057D000F0B92046FFF79CF9A0B104F12400059927
:1057E000FFF7E4FC2046FFF7DBF900F05DFA002844
:1057F000A3D14FF080500C490860BFF34F8FBFF327
:105800006F8F9AE72046FFF7CBF900F04DFA94E747
:105810002046FFF7C5F900F047FA2046FFF778F970
:1058200000288AD00020A8E704ED00E070B5054606
:105830000C4655B900BF502080F31188BFF34F8F3D
:10584000BFF36F8F00BF00BFFEE754B900BF502009
:1058500080F31188BFF34F8FBFF36F8F00BF00BF7E
:10586000FEE7FFF781FB124802686868131A206898
:10587000401C08B9002617E00E49286809688842CC
:1058800004D06868904201D801260DE02068984253
:1058900007D92068C01A20602846FFF775FC00264B
:1058A00002E0002020600126FFF788FB304670BD33
:1058B00050000020640000202DE9FF4F85B0804695
:1058C00089461746DDE912ABB800FFF7A9F906468D
:1058D00056B15420FFF7A4F904460CB1266304E046
:1058E0003046FFF789FB00E000248CB1002084F8EB
:1058F0005100CDE900ABCDE902403A464946404669
:10590000089BFFF744F82046FEF7E2FE012501E080
:105910004FF0FF35284609B000F000B830BCBDE8B4
:10592000C08F2DE9F04F85B00746884691469A46CC
:10593000DDE90EB6109C0EB1012000E0002050B948
:1059400000BF502080F31188BFF34F8FBFF36F8FDC
:1059500000BF00BFFEE70CB1012000E0002050B9FD
:1059600000BF502080F31188BFF34F8FBFF36F8FBC
:1059700000BF00BFFEE7542003900398542801D1D4
:10598000012000E0002050B900BF502080F31188B2
:10599000BFF34F8FBFF36F8F00BF00BFFEE7B4B1FF
:1059A000AEB125462C462E63022085F8510000201A
:1059B00004A953464A46CDE900B1CDE9025041461B
:1059C0003846FEF7E4FF2846FEF782FE01E000209D
:1059D0000490049805B000F000B830BCBDE8C08F5A
:1059E0000549096809B9012005E00449096809B9B0
:1059F000022000E0002070475800002074000020C2
:105A00002DE9F0414FF0000844480068002877D1A4
:105A100043480068451C4248056015BB4148006882
:105A2000006808B9012000E0002050B900BF5020F4
:105A300080F31188BFF34F8FBFF36F8F00BF00BF9C
:105A4000FEE7384807683848006836490860364835
:105A5000076036480068401C34490860FFF766F864
:105A600000BF3348006885423CD300BF2D48006822
:105A7000006808B9012000E0002020B14FF0FF309D
:105A80002B4908602DE027480068C068C468666834
:105A9000B54202D22648066023E0201DFFF70EFA29
:105AA000A06A18B104F11800FFF708FA94F82C1056
:105AB000012088401F49096808431E490860E16ABF
:105AC00001EB81011C4A02EB8100211DFFF740FA26
:105AD0001A49E06A0968C96A8842C7D34FF00108C9
