:020000040800F2
:1000000000000120F14100081D1600081F1600081D
:10001000211600082316000825160008000000001D
:10002000000000000000000000000000D1510008A6
:100030002716000800000000715200082916000869
:100040004142000841420008414200084142000884
:100050004142000841420008414200083D160008A4
:10006000414200084142000847160008414200088A
:10007000414200084142000851160008611600087C
:100080004142000841420008414200084142000844
:100090004142000841420008414200087116000830
:1000A0004142000841420008414200084142000824
:1000B000414200080000000000000000414200082A
:1000C0004142000841420008414200084142000804
:1000D000414200087D1600084142000841420008E4
:1000E00041420008414200080000000000000000FA
:1000F0000000000000000000000000000000000000
:1001000000000000414200080000000041420008D9
:1001100000000000000000004142000841420008C9
:1001200041420008414200084142000841420008A3
:100130004142000800000000000000000000000034
:100140004142000841420008414200084142000883
:100150004142000841420008414200084142000873
:1001600041420008414200084142000800000000EE
:1001700041420008414200084142000800000000DE
:1001800041420008414200084142000800000000CE
:1001900010B5054C237833B9044B13B10448AFF3C1
:1001A00000800123237010BD8000002000000000AB
:1001B0002467000808B5034B1BB103490348AFF39C
:1001C000008008BD000000008400002024670008B3
:1001D00081F0004102E000BF83F0004330B54FEAF8
:1001E00041044FEA430594EA050F08BF90EA020F65
:1001F0001FBF54EA000C55EA020C7FEA645C7FEAF8
:10020000655C00F0E2804FEA5454D4EB5555B8BF1A
:100210006D420CDD2C4480EA020281EA030382EA8B
:10022000000083EA010180EA020281EA0303362D1D
:1002300088BF30BD11F0004F4FEA01314FF4801CF0
:100240004CEA113102D0404261EB410113F0004F02
:100250004FEA03334CEA133302D0524263EB4303B9
:1002600094EA050F00F0A780A4F10104D5F1200E57
:100270000DDB02FA0EFC22FA05F2801841F10001B2
:1002800003FA0EF2801843FA05F359410EE0A5F186
:1002900020050EF1200E012A03FA0EFC28BF4CF0B7
:1002A000020C43FA05F3C01851EBE37101F000456D
:1002B00007D54FF0000EDCF1000C7EEB00006EEB7A
:1002C0000101B1F5801F1BD3B1F5001F0CD3490804
:1002D0005FEA30004FEA3C0C04F101044FEA44525B
:1002E00012F5800F80F09A80BCF1004F08BF5FEAE2
:1002F000500C50F1000041EB045141EA050130BDC2
:100300005FEA4C0C404141EB010111F4801FA4F164
:100310000104E9D191F0000F04BF01460020B1FAB9
:1003200081F308BF2033A3F10B03B3F120020CDAF1
:100330000C3208DD02F1140CC2F10C0201FA0CF0CF
:1003400021FA02F10CE002F11402D8BFC2F1200C34
:1003500001FA02F120FA0CFCDCBF41EA0C019040EA
:10036000E41AA2BF01EB0451294330BD6FEA040433
:100370001F3C1CDA0C340EDC04F11404C4F120021E
:1003800020FA04F001FA02F340EA030021FA04F330
:1003900045EA030130BDC4F10C04C4F1200220FA87
:1003A00002F001FA04F340EA0300294630BD21FAC5
:1003B00004F0294630BD94F0000F83F4801306BF8B
:1003C00081F480110134013D4EE77FEA645C18BF7F
:1003D0007FEA655C29D094EA050F08BF90EA020F16
:1003E00005D054EA000C04BF1946104630BD91EA0E
:1003F000030F1EBF0021002030BD5FEA545C05D111
:100400004000494128BF41F0004130BD14F580044F
:100410003CBF01F5801130BD01F0004545F0FE41C3
:1004200041F470014FF0000030BD7FEA645C1ABFF8
:10043000194610467FEA655C1CBF0B46024650EA2F
:10044000013406BF52EA033591EA030F41F400215B
:1004500030BD00BF90F0000F04BF0021704730B5E1
:100460004FF4806404F132044FF000054FF00001B6
:1004700050E700BF90F0000F04BF0021704730B577
:100480004FF4806404F1320410F0004548BF40424C
:100490004FF000013EE700BF42004FEAE2014FEAA1
:1004A00031014FEA02701FBF12F07F4393F07F4F7C
:1004B00081F06051704732F07F4208BF704793F07F
:1004C0007F4F04BF41F40021704730B54FF4607492
:1004D00001F0004521F000411CE700BF50EA010295
:1004E00008BF704730B54FF000050AE050EA01023E
:1004F00008BF704730B511F0004502D5404261EBAE
:1005000041014FF4806404F132045FEA915C3FF4EE
:10051000D8AE4FF003025FEADC0C18BF03325FEA8B
:10052000DC0C18BF033202EBDC02C2F1200300FA3C
:1005300003FC20FA02F001FA03FE40EA0E0021FA61
:1005400002F11444BDE600BF70B54FF0FF0C4CF44F
:10055000E06C1CEA11541DBF1CEA135594EA0C0F01
:1005600095EA0C0F00F0DEF82C4481EA030621EA3C
:100570004C5123EA4C5350EA013518BF52EA033577
:1005800041F4801143F4801338D0A0FB02CE4FF029
:100590000005E1FB02E506F00042E0FB03E54FF059
:1005A0000006E1FB03569CF0000F18BF4EF0010E51
:1005B000A4F1FF04B6F5007F64F5407404D25FEA4D
:1005C0004E0E6D4146EB060642EAC62141EA555100
:1005D0004FEAC52040EA5E504FEACE2EB4F1FD0C42
:1005E00088BFBCF5E06F1ED8BEF1004F08BF5FEAC0
:1005F000500E50F1000041EB045170BD06F0004672
:1006000046EA010140EA020081EA0301B4EB5C041E
:10061000C2BFD4EB0C0541EA045170BD41F4801116
:100620004FF0000E013C00F3AB8014F1360FDEBF3B
:10063000002001F0004170BDC4F10004203C35DA17
:100640000C341BDC04F11404C4F1200500FA05F39A
:1006500020FA04F001FA05F240EA020001F000423B
:1006600021F0004110EBD37021FA04F642EB0601B1
:100670005EEA430E08BF20EAD37070BDC4F10C04DB
:10068000C4F1200500FA04F320FA05F001FA04F29F
:1006900040EA020001F0004110EBD37041F100018B
:1006A0005EEA430E08BF20EAD37070BDC4F1200596
:1006B00000FA05F24EEA020E20FA04F301FA05F2FE
:1006C00043EA020321FA04F001F0004121FA04F2A6
:1006D00020EA020000EBD3705EEA430E08BF20EA76
:1006E000D37070BD94F0000F0FD101F000464000B0
:1006F00041EB010111F4801F08BF013CF7D041EA32
:10070000060195F0000F18BF704703F00046520035
:1007100043EB030313F4801F08BF013DF7D043EA06
:100720000603704794EA0C0F0CEA135518BF95EABC
:100730000C0F0CD050EA410618BF52EA4306D1D143
:1007400081EA030101F000414FF0000070BD50EA62
:10075000410606BF1046194652EA430619D094EAEC
:100760000C0F02D150EA013613D195EA0C0F05D1D6
:1007700052EA03361CBF104619460AD181EA03012A
:1007800001F0004141F0FE4141F470014FF00000E2
:1007900070BD41F0FE4141F4780170BD70B54FF07D
:1007A000FF0C4CF4E06C1CEA11541DBF1CEA1355FD
:1007B00094EA0C0F95EA0C0F00F0A7F8A4EB0504DF
:1007C00081EA030E52EA03354FEA013100F08880D6
:1007D0004FEA03334FF0805545EA131343EA12639F
:1007E0004FEA022245EA111545EA10654FEA002654
:1007F0000EF000419D4208BF964244F1FD0404F50D
:10080000407402D25B084FEA3202B61A65EB030568
:100810005B084FEA32024FF480104FF4002CB6EB25
:10082000020E75EB030E22BFB61A754640EA0C00A5
:100830005B084FEA3202B6EB020E75EB030E22BFE5
:10084000B61A754640EA5C005B084FEA3202B6EB26
:10085000020E75EB030E22BFB61A754640EA9C00E5
:100860005B084FEA3202B6EB020E75EB030E22BFB5
:10087000B61A754640EADC0055EA060E18D04FEA73
:10088000051545EA16754FEA06164FEAC30343EA13
:1008900052734FEAC2025FEA1C1CC0D111F4801FE0
:1008A0000BD141EA00014FF000004FF0004CB6E7D9
:1008B00011F4801F04BF01430020B4F1FD0C88BF78
:1008C000BCF5E06F3FF6AFAEB5EB030C04BFB6EB83
:1008D000020C5FEA500C50F1000041EB045170BD76
:1008E0000EF0004E4EEA113114EB5C04C2BFD4EBA3
:1008F0000C0541EA045170BD41F480114FF0000E27
:10090000013C90E645EA060E8DE60CEA135594EAA2
:100910000C0F08BF95EA0C0F3FF43BAF94EA0C0FA5
:100920000AD150EA01347FF434AF95EA0C0F7FF41A
:1009300025AF104619462CE795EA0C0F06D152EA6E
:1009400003353FF4FDAE1046194622E750EA410652
:1009500018BF52EA43067FF4C5AE50EA41047FF463
:100960000DAF52EA43057FF4EBAE12E74A0011D215
:1009700012F5001211D20DD56FF47873B3EB6252F9
:100980000ED44FEAC12343F0004343EA505323FA05
:1009900002F070474FF00000704750EA013002D17A
:1009A0004FF0FF3070474FF0000070474FEA4102B0
:1009B000B2F1E04324BFB3F5001CDCF1FE5C0DD9BD
:1009C00001F0004C4FEAC0024CEA5070B2F1004F07
:1009D00040EB830008BF20F00100704711F0804F0A
:1009E00021D113F13872BCBF01F00040704741F4CF
:1009F00080114FEA5252C2F11802C2F1200C10FAD3
:100A00000CF320FA02F018BF40F001004FEAC123B6
:100A10004FEAD32303FA0CFC40EA0C0023FA02F35A
:100A20004FEA4303CCE77FEA625307D150EA013330
:100A30001EBF4FF0FE4040F44000704701F0004000
:100A400040F0FE4040F40000704700BF53B94AB97F
:100A5000002908BF00281CBF4FF0FF314FF0FF30C6
:100A600000F072B9ADF1080C6DE904CE00F006F8A3
:100A7000DDF804E0DDE9022304B070472DE9F0471A
:100A8000089E04468846002B4BD18A42154667D9FA
:100A9000B2FA82F24AB1C2F1200701FA02F320FA57
:100AA00007F7954047EA030894404FEA154E230C98
:100AB000B8FBFEF71FFA85FC0EFB178843EA0843D4
:100AC00007FB0CF1994209D9EB1807F1FF3080F0D0
:100AD0001B81994240F21881023F2B445B1AA4B259
:100AE000B3FBFEF00EFB103344EA034400FB0CFCA6
:100AF000A44509D92C1900F1FF3380F00781A445E2
:100B000040F2048102382C4440EA0740A4EB0C0474
:100B100000271EB1D4400023C6E900433946BDE892
:100B2000F0878B4209D9002E00F0EB800027C6E940
:100B3000000138463946BDE8F087B3FA83F7002F45
:100B400047D18B4202D3824200F2FA80841A61EBD1
:100B5000030301209846002EE0D0C6E90048DDE7F7
:100B600002B9FFDEB2FA82F2002A40F08F80491B00
:100B70004FEA154E1FFA85F80127B1FBFEFC230C46
:100B80000EFB1C1143EA014308FB0CF1994207D903
:100B9000EB180CF1FF3002D2994200F2CD8084466E
:100BA000591AA3B2B1FBFEF00EFB101443EA044441
:100BB00008FB00F8A04507D92C1900F1FF3302D239
:100BC000A04500F2B6801846A4EB080440EA0C40A9
:100BD0009FE7C7F1200CBB4022FA0CFE4EEA030E41
:100BE00001FA07F420FA0CF521FA0CF34FEA1E483B
:100BF0002543B3FBF8F92C0C08FB19331FFA8EFAC6
:100C000044EA034309FB0AF49C4202FA07F200FAA1
:100C100007F10BD91EEB030309F1FF3080F0878049
:100C20009C4240F28480A9F1020973441B1BADB2BF
:100C3000B3FBF8F008FB103345EA034400FB0AFA63
:100C4000A24508D91EEB040400F1FF336BD2A24584
:100C500069D90238744440EA0940A0FB0289A4EB38
:100C60000A044C45C2464B4654D351D0002E69D09D
:100C7000B1EB0A0564EB030404FA0CFCFD40FC40F4
:100C80004CEA0505C6E90054002747E7C2F12003F6
:100C900020FA03F7954001FA02F021FA03F34FEA34
:100CA000154E3843010CB3FBFEF71FFA85F80EFB17
:100CB000173341EA034107FB08F38B4204FA02F4BD
:100CC00007D9691807F1FF3C2FD28B422DD9023F7B
:100CD0002944CB1A81B2B3FBFEF00EFB103341EA7C
:100CE000034100FB08F38B4207D9691800F1FF3C70
:100CF00017D28B4215D902382944C91A40EA07474E
:100D00003BE73746304609E70746E7E61846FBE685
:100D10004145ABD2B8EB020A69EB0E02013813462B
:100D2000A4E76046E9E7184695E76746D1E78146BC
:100D30007CE702382C4447E7ACF1020C2B442FE748
:100D4000384608E73746E9E6704700BF034613F820
:100D5000012B002AFBD1181A01387047000000004F
:100D600001F0FF01102A2BDB10F0070F08D010F85C
:100D7000013B013A8B422DD010F0070F42B3F6D160
:100D8000F0B441EA012141EA014122F007047FF079
:100D900000070023F0E80256083C85EA010586EAD0
:100DA000010685FA47F5A3FA87F586FA47F6A5FA0C
:100DB00087F68EB9EED1F0BC01F0FF0102F0070218
:100DC00032B110F8013B013A83EA010313B1F8D1C3
:100DD0000020704701387047002D06BF35460338A4
:100DE000073815F0010F07D1013015F4807F02BFDD
:100DF000013015F4C03F0130F0BC0138704700BF2E
:100E0000F1EE103A43F08073E1EE103A704700BF04
:100E100070B50D4E0D4CA41BA4100025A54209D1A0
:100E20000B4E0C4C05F07EFCA41BA4100025A54223
:100E300005D170BD56F8253098470135EEE756F8D4
:100E4000253098470135F2E7E8680008E8680008AF
:100E5000E8680008F068000802440346934200D1A5
:100E6000704703F8011BF9E700B583B002A941F808
:100E7000040D4FF6FF730122034801F096FB019821
:100E800003B05DF804FB00BFA84D002070B5164606
:100E9000002405E04D1C0878FFF7E6FF01342946E1
:100EA000B442F7DB304670BD10B543F61032002176
:100EB0000A48FFF7D1FF0A4B1A680121117019681F
:100EC000084C4FF4FA720431204600F057FF2268B4
:100ED000136843F01003136010BD00BF9C00002096
:100EE00064000020A84D002008B5002204211E2027
:100EF00003F07AFA014B186008BD00BFB03B002038
:100F000010B582B0044600230193102805D0022CAE
:100F10000BD0402C0ED002B010BD0F4B19784A1CDC
:100F20001A700E4804F0CAFAF1E70D4A138801332B
:100F30001380EEE701A90B4B186803F0E2FA019B5E
:100F4000002BE8D0084B4FF080521A60BFF34F8F50
:100F5000BFF36F8FDFE700BFAC3B00208467000862
:100F6000AE3B0020184C002004ED00E0836E1A68B0
:100F7000136823F0010313607047000030B583B09D
:100F8000002301930368DA6912F0100F0BD1019B63
:100F90003BB1274B4FF080521A60BFF34F8FBFF326
:100FA0006F8F03B030BD044610221A6200F03CFF80
:100FB0002268204B9A42EAD1E36E1B685A68B2F568
:100FC000FA7F0BD85A681C4B1968C2F5FA724A802E
:100FD0001A68032151701B685B8883B9164B1B6824
:100FE0005B88012B1BD900231D2B18D8C3EB831161
:100FF000CA0012498A5C52B10133DBB2F4E7002324
:1010000001AA0D490E48006803F015FAE6E7C3EBA4
:101010008310C20055180848056001338B54064BF5
:1010200019684FF4FA720431204600F0A7FEAEE7CB
:1010300004ED00E000380140640000209C00002026
:10104000B03B002000B583B00E4B9A6C42F0010219
:101050009A649B6C03F001030193019B002205211C
:101060000E2002F05FFE0E2002F090FE002205210D
:101070000F2002F057FE0F2002F088FE03B05DF84B
:1010800004FB00BF0010024010B586B000F002FB68
:10109000144804F087FA144804F084FA00F014FBB2
:1010A000124804F07FFA0022002301930293039375
:1010B00004930593541CE4B20D4901A804F07AFA94
:1010C00001A8FFF743FEC1B201A800F02DFB01A962
:1010D000084804F0F3F94FF47A7001F085FB2246DA
:1010E000E2E700BF98670008A8670008B867000833
:1010F000C8670008D467000870B592B0402200218C
:1011000002A8FFF7A9FE4FF47A7003F0E4FE402234
:10111000002102A8FFF7A0FE274D01220421284646
:1011200002F003FC254C00262680322003F0D3FE7B
:1011300032460421284602F0F8FB248807EE904A44
:10114000F8EE677A17EE900AFFF7A6F900221C4B1B
:10115000FFF7FAF916A3D3E90023FFF73DF8FFF7ED
:1011600025FC07EE900ABCEEE77A17EE103A9BB228
:10117000C3EB431103EB8101CA0092B29FED117AD8
:1011800027EE877A07EE902AF8EEE77A77EE677A0D
:10119000FCEEE77A17EE902A92B2009222460A49B4
:1011A00002A804F007FA02A9084804F087F9AAE7A0
:1011B000000000000008494000040048AE3B002049
:1011C0000000B03F00007A44D8670008D4670008E8
:1011D000034B0360034B0B6080231360704700BF19
:1011E000B43D0020B43B002070B58EB00F4C07AD6D
:1011F00026460FCE0FC596E8070085E807000021B8
:1012000007A803F032FE0A4B18606D461C340FCC61
:101210000FC594E8070085E807000021684603F041
:1012200024FE044B18600EB070BD00BF406700087C
:101230001C4C0020204C0020F0B589B00024039401
:101240000494059406940794474BDA6C42F0040228
:10125000DA64DA6C02F004020092009ADA6C42F06E
:101260000102DA64DA6C02F001020192019ADA6C8E
:1012700042F00202DA64DB6C03F002030293029B89
:10128000224640F681014FF0904002F04EFB374D70
:10129000224641F22401284602F047FB40F6810332
:1012A0000393012604960594069403A94FF09040F9
:1012B00002F06AFA082303930494059403A94FF0FB
:1012C000904002F061FA10230393294B0493059494
:1012D00003A94FF0904002F057FA40230393254FA3
:1012E0000497059403A94FF0904002F04DFA0223B1
:1012F00003930497059403A9284602F045FA0423B2
:10130000039304960596069403A9284602F03CFA36
:101310004FF48153039304960594069403A9284639
:1013200002F032FA182303930494059403A9284683
:1013300002F02AFA22460521072002F0F3FC0720DA
:1013400002F024FD224605210A2002F0EBFC0A20CF
:1013500002F01CFD22460521172002F0E3FC1720B5
:1013600002F014FD09B0F0BD001002400004004876
:10137000000021100000111008B51248124B036044
:10138000124B4360002383600122C260036143610A
:101390008361C361036201F03BFA50B9002109483F
:1013A00001F094FA40B90021064801F0BDFA30B9C5
:1013B00008BD00F0B5F8F1E700F0B2F8F3E700F08F
:1013C000AFF8F5E7244C002000580040EC9C90104A
:1013D00010B588B0002303930493059306930793F5
:1013E0000268144B9A4201D008B010BD124CE36C55
:1013F00043F00203E364E36C03F002030193019BF7
:101400004FF44063039312230493012305930323B2
:1014100006930423079303A9084802F0B5F9A36DC6
:1014200043F48003A365A36D03F480030293029B3E
:10143000DAE700BF005800400010024000040048F6
:1014400030B5AFB0442200211DA8FFF705FD0024F0
:10145000189419941A941B941C9460252A462146CA
:101460006846FFF7F9FC02F0F3FB1B4AD2F8903014
:1014700023F01803C2F8903014231D9301231F9307
:101480002393249425950222279228932993282395
:101490002A9307232B932C922D921DA801F012FB67
:1014A0000F231893032319931A941B941C9404215B
:1014B0000DEB050001F024FE8123009308940D94A8
:1014C000684601F0A9FF4FF4007002F0D1FB02F072
:1014D00053F92FB030BD00BF0010024008B501F035
:1014E00061F9FFF7ADFF03220021012002F07CFF2C
:1014F0000A4B1860FFF7F8FCFFF79EFEFFF7A2FD0E
:1015000000F096FBFFF738FF00F00CF8FFF7CCFC7B
:10151000FFF76AFE03F0A4FCFEE700BF184C0020B2
:101520007047000008B51048104B03604FF48273F9
:101530004360002383604FF4E062C2600361436153
:101540004FF4007282611822C261036243628362B7
:101550000722C26203630823436302F002FD00B95D
:1015600008BDFFF7DDFFFBE7704C002000380040AE
:1015700000B589B000230393049305930693079362
:101580000268144B9A4202D009B05DF804FB03F5DF
:10159000EC339A6D42F480429A659A6D02F480426F
:1015A0000192019ADA6C42F00202DA64DB6C03F019
:1015B00002030293029B4FF46043039302230493BC
:1015C000032306930523079303A9034802F0DCF8DD
:1015D000DAE700BF003800400004004800B583B0DF
:1015E0000D4B1A6E42F001021A661A6E02F00102E9
:1015F0000092009A9A6D42F080529A659B6D03F0BA
:1016000080530193019B00220F216FF0010002F033
:1016100089FB03B05DF804FB001002407047FEE751
:10162000FEE7FEE7FEE7704708B501F0CBF803F0F0
:10163000A9FB012801D003F04DFE08BD08B502202A
:1016400002F078F908BD08B5102002F073F908BD62
:1016500008B5024802F098FA08BD00BF184D0020F6
:1016600008B5024802F090FA08BD00BF604D0020A6
:1016700008B5402002F05EF908BD000010B5044C2A
:101680002046FFF77BFC204600F06EFC10BD00BF3B
:10169000A84D00200A4B01221A70A02119710A21BD
:1016A000597107219971074B1A7012221A72002280
:1016B0005A7214229A722022DA7240221A737047E8
:1016C000D44C0020E44C002010B500F054F8012068
:1016D00000F03AFA4FF4FA7001F086F8002000F0BA
:1016E000BDF8094C207800F0D1F8204600F026F92A
:1016F000064800F077F9064800F0DEF800210846B9
:1017000000F00DF910BD00BFD44C0020E44C0020C7
:1017100080D2999008B5034B9872184600F062F990
:1017200008BD00BFE44C002030B583B005460C4630
:101730000846FFF7EFFF00210D2000F0E1F8074B0E
:10174000188800231A46014600F0D2F9044B1A68A3
:101750002146284600F03CFA03B030BD6800002066
:101760007867000808B508214FF0904002F0D6F8DD
:101770000128F8D008BD08B5142001F035F8002282
:1017800001214FF0904002F0D0F8322001F02CF807
:10179000012211464FF0904002F0C7F8142001F0EA
:1017A00023F808BD08B54FF0FF330A46014602484A
:1017B00002F02FFC08BD00BF704C00202DE9F8435B
:1017C000054689469046541CA4B2FFF7CBFF0F4E46
:1017D00000224FF48051304602F0A7F80C4F3846F3
:1017E00000F8015B4246494603F05CFE214638465C
:1017F000FFF7D8FF01224FF48051304602F095F8F0
:10180000842D01D0FFF7AEFFBDE8F8830004004847
:10181000083E002070B5961C0E4C1A232370607091
:10182000A01C03F03FFEFFF79DFF0B4D00224FF47D
:101830008051284602F079F831462046FFF7B2FF82
:1018400001224FF48051284602F06FF8FFF78AFF1B
:1018500070BD00BF083E00200004004800B583B002
:1018600002A901F8010D01228020FFF7A7FF9DF8D2
:1018700007302BB1044B02221A7003B05DF804FB51
:10188000014B01221A70F8E7083F002000B583B031
:1018900002A901F8010D044B187001228A20FFF7FC
:1018A0008DFF03B05DF804FB093F0020014B187861
:1018B000704700BF093F002000B583B0FEF7CAFDA6
:1018C0000DA3D3E90023FEF73FFEFFF74FF8C0F367
:1018D00007438DF80430C0F307238DF805308DF8E9
:1018E0000600032201A98620FFF768FF03B05DF818
:1018F00004FB00BFAFF300805F2491141DA6743F6A
:1019000000B583B012308DF804008DF80510022266
:1019100001A98E20FFF752FF03B05DF804FB00B56C
:1019200083B08DF804008DF80510022201A98F20E4
:10193000FFF744FF03B05DF804FB000010B582B070
:1019400004460078254B1B7898420CD123780F2B46
:1019500015D8DFE803F00B1B1B27311414141414E3
:1019600014141414143BFFF791FFEFE763788DF81C
:101970000430A3788DF80530E3788DF80630032223
:1019800001A98B20FFF71AFF02B010BD23798DF853
:10199000043063798DF80530A2798DF80620104A5D
:1019A0001370ECE7E3798DF80430237A8DF8053075
:1019B000637A8DF80630E2E7A37A8DF80430E37A93
:1019C0008DF80530237B8DF80630D8E700238DF89D
:1019D00004308DF805308DF80630D0E7093F00203F
:1019E000073F002010B582B0044600783F4B1B78BB
:1019F00098420CD123780F2B21D8DFE803F00B2776
:101A0000273C522020202020202020202066FFF785
:101A10003DFFEFE763788DF80030A3788DF8013053
:101A2000E3788DF8023023798DF8033063798DF8EF
:101A30000430A3798DF80530E3798DF8063007225C
:101A400069468C20FFF7BAFE02B010BD237A8DF8EC
:101A50000030637A8DF80130A37A8DF80230E37A92
:101A60008DF80330237B8DF8043000238DF805308A
:101A70008DF80630E3E7637B8DF80030A37B8DF8AB
:101A80000130E37B8DF80230237C8DF80330637CDA
:101A90008DF80430A37C8DF80530E37C8DF806309A
:101AA000CDE7237D8DF80030637D8DF80130A37D77
:101AB0008DF80230E37D8DF8033000238DF804307B
:101AC0008DF805308DF80630B9E700238DF8003029
:101AD0008DF801308DF802308DF803308DF8043028
:101AE0008DF805308DF80630A9E700BF093F0020CA
:101AF00010B582B0040A8DF800408DF80100080A84
:101B00008DF802008DF80310110A8DF804108DF87D
:101B100005201A0A8DF806208DF80730082269463C
:101B20008D20FFF74BFE02B010BD00B583B0030A55
:101B30008DF804308DF80500022201A99720FFF7E7
:101B40003DFE03B05DF804FB00B583B002A901F8C7
:101B5000010D01229620FFF731FE03B05DF804FB72
:101B600008B50A4601460020FFF754FE08BD00B53F
:101B700083B002A901F8040D0122A320FFF71EFE85
:101B800003B05DF804FB000000B585B001908DF84E
:101B90000C00000C030A8DF80D308DF80E004FF686
:101BA000FF70FFF7C2FFFFF781FE02280AD0032271
:101BB00003A98320FFF702FE044B04221A7005B02C
:101BC0005DF804FB0120FFF7D2FFF0E7083F00209B
:101BD00000B583B00192FFF7C3FF0198FFF7D4FF70
:101BE00003B05DF804FB00000F49D1F8883043F4DE
:101BF0007003C1F888300D4B1A6842F001021A6078
:101C0000002098601A6822F0A85222F410221A606C
:101C10004FF48052DA601A6822F480221A609861C8
:101C20004FF000638B60704700ED00E00010024051
:101C300008B50B480B4B03604FF4E13343600023BE
:101C40008360C36003610C2242618361C3610362EC
:101C5000436200F04CFD00B908BDFFF761FCFBE7F3
:101C6000A84D00200038014030B589B0002303930F
:101C7000049305930693079302682E4B9A4201D072
:101C800009B030BD044603F558431A6E42F4804251
:101C90001A661A6E02F480420192019ADA6C42F0DE
:101CA0000202DA64DB6C03F002030293029BC0239E
:101CB000039302250495032306930723079303A99F
:101CC0001D4801F061FD1D481D4B03604560002368
:101CD0008360C3608022026143618361C3610362E8
:101CE00001F04EFE00BB154BE3669C621548164B97
:101CF000036002234360102383600023C3608022BB
:101D0000026143618361C361036201F039FE70B90E
:101D10000C4BA3669C6200220521252002F002F8EC
:101D2000252002F033F8ABE7FFF7FAFBDBE7FFF71C
:101D3000F7FBEDE70038014000040048604D00204B
:101D400058000240184D0020440002400268136809
:101D500023F0C003136020234367704702681368B1
:101D600023F4907313600268936823F00103936077
:101D700020238367002303667047000010B5846F3B
:101D8000202C43D1002943D0002A43D090F8703052
:101D9000012B41D013460446012280F87020416592
:101DA000A0F858300022C26722228267C26E8AB130
:101DB0001A49D162C26E1A491163C26E1949516340
:101DC000C26E002191630168426D2431C06E01F042
:101DD00053FE90B9002084F870002268136843F421
:101DE000807313602268936843F001039360226854
:101DF000936843F04003936009E01023E3670023F6
:101E000084F8703020236367012000E0022010BDB9
:101E10000120FCE70120FAE70220F8E7CB1E0008CA
:101E20000B1F0008171F000838B50446416F856F67
:101E300003689A6812F0800F01D0212908D0236826
:101E40009A6812F0400F30D0222D17D000202DE0DC
:101E50009A6822F080029A60806E10B101F047FE0D
:101E600018B92046FFF772FFE9E7A06E01F0EEFE19
:101E70002028F6D11023E367032017E09A6822F0A8
:101E800040029A60E06E10B101F031FE20B92046A8
:101E9000FFF764FF002009E0E06E01F0D7FE202884
:101EA000F5D11023E367032000E0002038BD08B51A
:101EB00001680A6822F040020A602022426700227C
:101EC0004266FFF753F808BD704708B5836A026899
:101ED000126812F0200F13D10022A3F85A201968BB
:101EE0000A6822F480720A6019688A6822F0010286
:101EF0008A6019688A6822F040028A6020229A6704
:101F00001846FFF7E1FF08BD704708B5806AFFF784
:101F1000FBFF08BD704738B5846A626FA56F236800
:101F20009B6813F0800F01D0212A0ED023689B6894
:101F300013F0400F01D0222D0ED0E36F43F01003B9
:101F4000E3672046FFF7E6FF38BD0023A4F85230D0
:101F50002046FFF7FBFEE9E70023A4F85A302046AD
:101F6000FFF7FCFEE9E7000038B504460268D369D4
:101F70001168906813F00F050CD113F0200F09D0F1
:101F800011F0200F06D0236E002B00F09380204626
:101F900098478FE0002D6FD010F0010502D111F4A9
:101FA000907F69D013F0010F07D011F4807F04D027
:101FB00001201062E26F0243E26713F0020F07D0C4
:101FC00035B1226802201062E26F42F00402E2673B
:101FD00013F0040F07D035B1226804201062E26FBD
:101FE00042F00202E26713F0080F09D011F0200F4F
:101FF00000D12DB1226808201062E26F0243E2672F
:10200000E26F002A56D013F0200F06D011F0200FF7
:1020100003D0236E0BB120469847E26F23689B687C
:1020200013F0400F02D112F0080F1FD02046FFF727
:1020300095FE23689A6812F0400F13D09A6822F038
:1020400040029A60E36E4BB11D4A9A63E06E01F064
:1020500073FD78B3E06E836B98472BE02046FFF763
:1020600059FF27E02046FFF755FF23E02046FFF702
:1020700051FF0023E3671DE013F4801F02D010F42A
:10208000800F0AD113F0800F0ED011F0800F0BD00B
:10209000636E7BB1204698470CE04FF480131362C7
:1020A000204600F055FB05E013F0400F02D011F080
:1020B000400F00D138BD2046FFF7F9FEFAE700BF18
:1020C000C520000808B5806A0023A0F85A30A0F89F
:1020D0005230FFF71FFF08BD2DE9F04804460168A4
:1020E00083680269134342691343C2691343086852
:1020F0009E4A024013430B602268536823F4405306
:10210000E1680B435360A1692268994B9A4201D060
:10211000236A1943936823F430630B439360236865
:10212000944A93421FD0944A934230D0934A9342A8
:1021300046D08F4A934259D010258D4A934276D08B
:10214000E369B3F5004F00F0ED80082D00F28981BE
:10215000DFE815F049015F0169018701740187011A
:10216000870187017E0102F55842D2F8882002F0EB
:102170000302032A09D8DFE802F00204520601250F
:10218000DBE70425D9E70825D7E71025D5E702F5D1
:10219000E632D2F8882002F00C020C2A0ED8DFE8D2
:1021A00002F0070D0D0D090D0D0D400D0D0D0B006D
:1021B0000025C2E70425C0E70825BEE71025BCE7D7
:1021C00002F5E432D2F8882002F03002102A09D059
:1021D00005D9202A27D0302A06D10825ADE71AB91B
:1021E0000025AAE70425A8E71025A6E702F5C832CE
:1021F000D2F8882002F44062B2F5806F0BD007D984
:10220000B2F5006F11D0B2F5406F06D1082594E702
:102210001AB9002591E704258FE710258DE70225DF
:102220008BE7022589E7022587E7022585E7082D48
:1022300000F21A81DFE815F00C00180114001801F3
:10224000110018011801180109004FF4004008E0BE
:1022500001F008F828B90020D6E000F0D9FBF9E732
:102260004748626802EB4203834200F2FF80B0EB12
:10227000023F00F2FD80082D51D8DFE805F005503F
:10228000205030505050430000F0ECFF0025070E66
:102290000602626850082B4616EB000B47F1000C53
:1022A00058466146FEF7D2FB03462846A3F5407127
:1022B000344A914200F2DE802268D360A4E05608DE
:1022C00000252B46DFF8C0B04FF0000C1BEB0600DA
:1022D0004CF10001FEF7BAFB03462846E6E700F0A2
:1022E00097FB0025070E0602626850082B4616EB86
:1022F000000B47F1000C58466146FEF7A7FB03466A
:102300002846D3E75008002700252B4610F500008B
:1023100047F10001FEF79AFB03462846C6E7012075
:102320000023C3E7082D5BD8DFE805F005303B5AF2
:10233000465A5A5A510000F095FF6268530803EB61
:102340004003B3FBF2F39BB20020A3F110014FF660
:10235000EF72914200F290809AB222F00F02C3F322
:10236000420313432268D3604EE000BFF369FFEFDE
:102370000080004000380140004400400048004018
:102380000024F400FFFC0F00000024F400F07CFFA8
:102390006268530803EB4003B3FBF2F39BB20020E7
:1023A000D3E76268530803F1F47303F59043B3FB7A
:1023B000F2F39BB20020C8E700F02AFB62685308E2
:1023C00003EB4003B3FBF2F39BB20020BDE762686E
:1023D000530803F58033B3FBF2F39BB20020B4E75C
:1023E00001200023B1E700F03DFF636800EB5302DA
:1023F000B2FBF3F292B20020A2F110014FF6EF739C
:1024000099423BD82368DA60002222666266BDE802
:10241000F08800F039FF636800EB5302B2FBF3F27F
:1024200092B20020E8E763685A0802F5740202F5E8
:102430001052B2FBF3F292B20020DDE700F0E8FAAE
:10244000636800EB5302B2FBF3F292B20020D3E7D1
:1024500063685A0802F50042B2FBF3F292B2002020
:10246000CAE701200022C7E70120CDE70120CBE722
:102470000120C9E70120C7E70120C5E70120C3E724
:10248000436A13F0010F06D00268536823F4003347
:10249000816A0B435360436A13F0020F06D002684F
:1024A000536823F48033C16A0B435360436A13F0CB
:1024B000040F06D00268536823F48023016B0B439A
:1024C0005360436A13F0080F06D00268536823F480
:1024D0000043416B0B435360436A13F0100F06D067
:1024E0000268936823F48053816B0B439360436AC3
:1024F00013F0200F06D00268936823F40053C16BD9
:102500000B439360436A13F0400F0AD0026853688C
:1025100023F48013016C0B435360036CB3F5801FED
:102520000BD0436A13F0800F06D00268536823F47F
:102530000023816C0B43536070470268536823F497
:10254000C003416C0B435360EBE72DE9F0410546B6
:102550000F4616469846069C2B68DB6937EA03034C
:102560000CBF01230023B3421CD1B4F1FF3FF3D0D1
:1025700000F034F9A0EB0800A04201D8002CEBD108
:102580002A68136823F4D07313602A68936823F0D1
:102590000103936020236B67AB67002385F87030DD
:1025A000032000E00020BDE8F0812DE9F04182B079
:1025B0001E46436F202B55D104460D4690460029F8
:1025C00055D0002A55D090F87030012B53D00123FC
:1025D00080F870300023C3672123436700F0FEF8C2
:1025E0000746A4F85080A4F85280A368B3F5805F32
:1025F00002D04FF0000813E0236913B14FF0000838
:102600000EE0A84600250BE038F8023B2268C3F331
:1026100008031385B4F85230013B9BB2A4F8523042
:10262000B4F852309BB273B100963B460022802131
:102630002046FFF78AFF00BB002DE5D0236815F880
:10264000012B1A85E6E700963B46002240212046F2
:10265000FFF77BFF034690B920226267002284F8CF
:10266000702000E00223184602B0BDE8F08101238B
:10267000F9E70123F7E70223F5E70323F3E7032351
:10268000F1E730B583B004460023C36700F0A6F835
:10269000054623681B6813F0080F0CD123681B68DC
:1026A00013F0040F15D120236367A367002084F87B
:1026B000700003B030BD6FF07E43009303460022EC
:1026C0004FF400112046FFF740FF0028E6D003201A
:1026D000EFE76FF07E4300932B4600224FF480011A
:1026E0002046FFF732FF0028DDD00320E1E768B382
:1026F00010B50446436F03B324236367226813684D
:1027000023F0010313602046FFF7E6FC012813D0F5
:10271000636ABBB92268536823F49043536022680C
:10272000936823F02A0393602268136843F001033F
:1027300013602046FFF7A5FF10BD80F87030FFF74B
:1027400093FAD9E72046FFF79BFEE3E701207047A5
:1027500070470000104B1B680BB90120704710B583
:1027600004464FF47A70B0FBF3F30C4A1068B0FBE8
:10277000F3F001F019FB68B90F2C01D901200AE030
:10278000002221464FF0FF3001F0CCFA044B1C60D0
:10279000002000E0012010BD700000206C0000202F
:1027A0007400002010B5032001F0AAFA0F20FFF7F3
:1027B000D1FF10B10124204610BD0446FEF70EFFE4
:1027C000F9E70000034A1368034909680B441360E2
:1027D000704700BF284E002070000020014B186891
:1027E000704700BF284E002038B50446FFF7F6FFBB
:1027F0000546B4F1FF3F02D0044B1B681C44FFF7B1
:10280000EDFF401BA042FAD338BD00BF700000208E
:10281000002859D010B5044690F84130002B43D021
:10282000242384F841302268136823F001031360E5
:102830006368226823F0706313612268936823F44D
:1028400000439360E368012B33D0A368226843F40C
:1028500004439360E368022B31D02268536843F04D
:10286000007343F4004353602268D36823F40043A9
:10287000D360236962691343A169226843EA012393
:10288000D360E369216A22680B43136022681368EE
:1028900043F00103136000206064202384F841307A
:1028A000206384F8420010BD80F84030FEF790FDB0
:1028B000B6E7A368226843F400439360CAE723683D
:1028C0004FF400625A60C8E70120704790F8413029
:1028D000DBB2202B24D190F84030012B22D00123F1
:1028E00080F84030242380F841300268136823F0D8
:1028F000010313600268136823F4805313600268B5
:102900001368194311600268136843F001031360F0
:10291000202380F84130002380F84030184670476B
:10292000022070470220704790F84130DBB2202B24
:1029300022D190F84030012B20D0012380F8403084
:10294000242380F841300268136823F001031360E8
:102950000268136823F4706343EA0121116002687E
:10296000136843F001031360202380F841300023F3
:1029700080F84030184670470220704702207047A8
:1029800030B583B00546204B9B6D13F0805F0BD0B4
:1029900001F066F9B0F5007F17D0802D1FD82DD03B
:1029A000702D2DD000211BE0174CA36D43F08053F8
:1029B000A365A36D03F080530193019B01F050F9CF
:1029C000A36D23F08053A365E4E7802D03D9A02DE8
:1029D00003D9022104E0002102E0012100E00321EB
:1029E0000A4A136823F007030B431360136803F0CC
:1029F00007038B4206D0012003B030BD0221EFE770
:102A00000121EDE70020F7E700100240002002401E
:102A1000284A9368D26802F0030213F00C030AD02C
:102A20000C2B06D0042B1FD0082B20D000200246F0
:102A300010E0012AF6D11F4A126812F0080F0CD1DB
:102A40001C4AD2F89420C2F303221B4951F82220D9
:102A500043B100200C2B0DD07047164A1268C2F308
:102A60000312F2E71046F5E714480022F2E7144893
:102A70000022EFE70F4BDB6803F00303022B15D0B6
:102A8000032B15D00B4BD868C0F302100130D96866
:102A9000C1F3062102FB01F2B2FBF0F2D868C0F3E9
:102AA000416001304000B2FBF0F0D5E7034AE9E7AE
:102AB000034AE7E700100240106800080024F40011
:102AC00000127A00002800F00883F0B583B00446B5
:102AD000AD4B9D6805F00C05DE6806F00306036843
:102AE00013F0100F5ED0E5B10C2D18D0A369002BA8
:102AF00000F0B880A44A136843F001031360FFF7A5
:102B00006DFE0746A04B1B6813F0020F40F0978044
:102B1000FFF764FEC01B0228F4D90323E9E2012E6B
:102B2000E4D1994B1B6813F0020F03D0A369002B6B
:102B300000F0D682206A944B1B6813F0080F5ED019
:102B4000914B1B6803F0F00398425FD9FFF718FF21
:102B5000002840F0C7828C4B1A6842F008021A60C5
:102B60001A6822F0F002216A0A431A605A6822F4B5
:102B70007F42E16942EA01225A60FFF749FF824B36
:102B80009B68C3F30313814AD35C03F01F03D8404F
:102B90007F4B18607F4B1868FFF7DCFD0346002869
:102BA00040F0A782236813F0010F7AD0082D6FD070
:102BB0000C2D6BD06368B3F5803F00F09180B3F5C6
:102BC000A02F00F09380704B1A6822F480321A60B4
:102BD0001A6822F480221A606368002B00F0938048
:102BE000FFF7FCFD0746684B1B6813F4003F58D104
:102BF000FFF7F4FDC01B6428F5D9032379E2624B8B
:102C0000D3F894301B0903F0F0039DE75E4B1A687C
:102C100042F008021A601A6822F0F002216A0A43A0
:102C20001A605A6822F47F42E16942EA01225A603E
:102C3000206AFFF7A5FE00289FD0012359E2524BDE
:102C40001A6842F008021A601A6822F0F002216A3B
:102C50000A431A605A6822F47F42E16942EA01227B
:102C60005A609FE7484A136823F001031360FFF797
:102C7000B5FD0746444B1B6813F0020F92D0FFF7D7
:102C8000ADFDC01B0228F5D9032332E2032E91D1FA
:102C90003D4B1B6813F4003F03D06368002B00F02A
:102CA0002382236813F0020F4FD0042D3CD00C2D4B
:102CB00038D0E368002B78D0334A136843F480732C
:102CC0001360FFF78BFD06462F4B1B6813F4806FD4
:102CD00062D1FFF783FD801B0228F5D9032308E2A8
:102CE000294A136843F48033136075E703F1804386
:102CF000A3F53C331A6842F480221A601A6842F441
:102D000080321A6068E7FFF769FD07461E4B1B68B3
:102D100013F4003FC5D0FFF761FDC01B6428F5D94F
:102D20000323E6E1022EC4D1174B1B6813F4806F16
:102D300003D0E368002B00F0D981134A536823F0D5
:102D4000F853216943EA01635360236813F0080FC5
:102D500056D06369002B3CD00B4AD2F8943043F034
:102D60000103C2F89430FFF739FD0646064BD3F84D
:102D7000943013F0020F43D1FFF730FD801B02287F
:102D8000F4D90323B5E100BF00100240F867000842
:102D90006C00002074000020B64A536823F0F853FA
:102DA000216943EA01635360CFE7B24A136823F411
:102DB00080731360FFF712FD0646AE4B1B6813F4D9
:102DC000806FC2D0FFF70AFD801B0228F5D90323CC
:102DD0008FE1A84AD2F8943023F00103C2F894306E
:102DE000FFF7FCFC0646A34BD3F8943013F0020F18
:102DF00006D0FFF7F3FC801B0228F4D9032378E107
:102E0000236813F0040F7AD09A4B9B6D13F0805F08
:102E10000BD1984B9A6D42F080529A659B6D03F0EE
:102E200080530193019B012600E00026924B1B6812
:102E300013F4807F26D0A368012B37D0052B3DD01B
:102E40008C4BD3F8902022F00102C3F89020D3F8E5
:102E5000902022F00402C3F89020A368002B3BD0FE
:102E6000FFF7BCFC0746834BD3F8903013F0020FFA
:102E700044D1FFF7B3FCC01B41F288339842F2D92A
:102E8000032336E17C4A136843F480731360FFF731
:102E9000A5FC0746784B1B6813F4807FCBD1FFF766
:102EA0009DFCC01B0228F5D9032322E1714AD2F808
:102EB000903043F00103C2F89030CEE76D4BD3F869
:102EC000902042F00402C3F89020D3F8902042F002
:102ED0000102C3F89020C0E7FFF780FC0746654B6E
:102EE000D3F8903013F0020F08D0FFF777FCC01B27
:102EF00041F288339842F2D90323FAE0E6B9236815
:102F000013F0200F35D0636AE3B15A4AD2F89830F3
:102F100043F00103C2F89830FFF760FC0646554BBA
:102F2000D3F8983013F0020F23D1FFF757FC801B22
:102F30000228F4D90323DCE04E4A936D23F080533A
:102F40009365DCE74B4AD2F8983023F00103C2F8CE
:102F50009830FFF743FC0646464BD3F8983013F001
:102F6000020F06D0FFF73AFC801B0228F4D9032396
:102F7000BFE0A36A002B00F0BB800C2D6FD0022BAA
:102F800023D03C4B1A6822F080721A601B6813F041
:102F9000006F04D1374AD36823F00303D360354A66
:102FA000D36823F0887323F48033D360FFF716FCD3
:102FB0000446304B1B6813F0007F4ED0FFF70EFC29
:102FC000001B0228F5D9032393E02A4A136823F053
:102FD00080731360FFF702FC0546264B1B6813F055
:102FE000007F06D0FFF7FAFB401B0228F5D9032328
:102FF0007FE0204AD36821491940E36A206B0138F9
:1030000043EA0013606B43EA0023E06B4008013899
:1030100043EA4053206C4008013843EA4063A06B08
:1030200043EAC0630B43D360136843F080731360BB
:10303000D36843F08073D360FFF7D0FB04460D4B99
:103040001B6813F0007F06D1FFF7C8FB001B0228A6
:10305000F5D903234DE000234BE0002349E0012B89
:103060004AD0044BDB6803F00301E26A914207D0C7
:1030700001233EE000100240007000408C809D0162
:1030800003F07002216B0139B2EB011F01D0012363
:103090002FE003F4FE42616BB2EB012F01D001235C
:1030A00027E003F07842A16BB2EBC16F01D001239E
:1030B0001FE003F4C001E26B5208013AB1EB425F3A
:1030C00001D0012315E003F0C063226C5208013ADD
:1030D000B3EB426F12D001230BE001231846704777
:1030E000012306E0012304E0012302E0012300E0C4
:1030F0000023184603B0F0BD0123FAE70023F8E7E8
:10310000002800F09B8070B504464E4B1B6803F00E
:1031100007038B420CD24B4A136823F007030B437F
:103120001360136803F007038B4201D0012070BDC8
:103130000D46236813F0010F39D06368032B09D0C3
:10314000022B26D063BB404A126812F0020F06D150
:103150000120ECE73C4A126812F0007F70D03A4937
:103160008A6822F0030213438B60FFF737FB0646A1
:10317000354B9B6803F00C036268B3EB820F16D0EB
:10318000FFF72CFB801B41F288339842F0D90320D3
:10319000CDE72D4A126812F4003FE0D10120C6E7C6
:1031A000294A126812F4806FD9D10120BFE7236841
:1031B00013F0020F06D0244A936823F0F003A168AD
:1031C0000B4393601F4B1B6803F00703AB420CD902
:1031D0001C4A136823F007032B431360136803F0A2
:1031E0000703AB4201D00120A1E7236813F0040FCD
:1031F00006D0154A936823F4E063E1680B439360BB
:10320000236813F0080F07D00F4A936823F4605324
:10321000216943EAC1039360FFF7FAFB0A4B9B68FD
:10322000C3F30313094AD35C03F01F03D840084BD0
:103230001860084B1868FFF78DFA78E7012070478F
:10324000012074E70020024000100240F8670008E7
:103250006C00002074000020014B1868704700BF0C
:103260006C00002008B5FFF7F7FF054B9B68C3F320
:103270000223044AD35C03F01F03D84008BD00BFFB
:10328000001002400868000808B5FFF7E5FF054B8D
:103290009B68C3F3C223044AD35C03F01F03D840E6
:1032A00008BD00BF0010024008680008F8B5594B7F
:1032B000DB6813F0030F18D0564BDB6803F00303F1
:1032C0000268934202D001252846F8BD002A00F08A
:1032D0009F80504BDB68C3F3021301334268934273
:1032E00001D00125F0E700251AE00368022B58D031
:1032F000032B5DD0012B01D001250FE0454A126858
:1033000012F0020F60D0434DEA6822F07302446865
:10331000013C43EA04131343EB600025002DD3D195
:103320000F4604463B4A136823F080631360FFF79F
:1033300055FA0646374B1B6813F0006F05D0FFF7B0
:103340004DFA801B0228F5D90325002DBCD1002F92
:103350003CD130490B6923F0784323F4FE43A06845
:10336000E268D20642EA002213430B61294A13683D
:1033700043F080631360FFF731FA0646254B1B6864
:1033800013F0006F05D1FFF729FA801B0228F5D949
:103390000325002D98D11F4A1369A1690B431361BE
:1033A00092E71C4A126812F4806FACD10125B5E790
:1033B000184A126812F4003FA5D1164A126812F496
:1033C000802FA0D10125A9E70125A7E7012F0FD064
:1033D0001048026922F0C06222F4FE42A1686369CB
:1033E0005B08013B5B0643EA012313430361BDE72E
:1033F0000848026922F4C00222F4FE42A16823694F
:103400005B08013B5B0543EA012313430361ADE71E
:10341000012559E7001002402DE9F04182B0044631
:10342000036813F4006F26D0436CB3F5000F06D089
:10343000B3F5400F1DD09BB1012637461DE0BD4AB4
:10344000D36843F48033D3600027BA4AD2F8883077
:1034500023F44003616C0B43C2F8883000260CE073
:1034600000210430FFF722FF07460028EDD0064672
:1034700003E00027E9E700263746236813F4003FFE
:103480006BD0AC4B9B6D13F0805F4CD1A94B9A6D08
:1034900042F080529A659B6D03F080530193019B2B
:1034A0004FF00108A44A136843F480731360FFF7D8
:1034B00095F90546A04B1B6813F4807F05D1FFF7F3
:1034C0008DF9401B0228F5D90327002F40D1994BD5
:1034D000D3F8903013F4407315D0E26D9A4212D0B5
:1034E000944AD2F8903023F44073D2F8901041F40B
:1034F0008031C2F89010D2F8901021F48031C2F8D7
:103500009010C2F8903013F0010F0FD1002F40F04F
:10351000F780884AD2F8903023F44073E16D0B4372
:10352000C2F8903015E04FF00008BBE7FFF756F9FE
:103530000546804BD3F8903013F0020FE6D1FFF729
:103540004DF9401B41F288339842F2D90327DDE759
:103550003E46B8F1000F40F0D580236813F0010F0C
:1035600008D0744AD2F8883023F00303216A0B4351
:10357000C2F88830236813F0020F08D06D4AD2F8E1
:10358000883023F00C03616A0B43C2F8883023684B
:1035900013F0040F08D0674AD2F8883023F03003C4
:1035A000A16A0B43C2F88830236813F0200F08D0BB
:1035B000604AD2F8883023F44063E16A0B43C2F8D2
:1035C0008830236813F4007F08D05A4AD2F8883034
:1035D00023F44023E16B0B43C2F88830236813F4D3
:1035E000806F08D0534AD2F8883023F44013216CFE
:1035F0000B43C2F88830236813F0400F08D04D4ABF
:10360000D2F8883023F44053216B0B43C2F8883042
:10361000236813F0800F08D0464AD2F8883023F48C
:103620004043616B0B43C2F88830236813F4807FFA
:1036300008D0404AD2F8883023F44033A16B0B43C2
:10364000C2F88830236813F4005F0FD0394AD2F8EB
:10365000883023F04063A16C0B43C2F88830A36C20
:10366000B3F1006F54D0B3F1806F56D0236813F4D8
:10367000002F0FD02F4AD2F8883023F04063E16C3E
:103680000B43C2F88830E36CB3F1006F4DD0B3F157
:10369000806F53D0236813F4802F0FD0254AD2F8BF
:1036A000883023F04063216D0B43C2F88830236DCE
:1036B000B3F1006F4AD0B3F1806F4CD0236813F49C
:1036C000804F0CD01B4AD2F8883023F04053616DF4
:1036D0000B43C2F88830636DB3F1805F43D0236839
:1036E00013F4004F08D0134AD2F8883023F08043F7
:1036F000A16D0B43C2F88830304602B0BDE8F081BE
:103700003E4626E70B4A936D23F08053936524E7EA
:10371000D36843F48013D360A8E70121201DFFF78D
:10372000C5FD0028A2D00646A0E7D36843F4801365
:10373000D360AFE700100240007000400121201D5F
:10374000FFF7B4FD0028A5D00646A3E7D36843F4ED
:103750008013D360B2E70121201DFFF7A7FD0028E9
:10376000ACD00646AAE70221201DFFF79FFD0028E6
:10377000B5D00646B3E700BF024A136843F004031E
:103780001360704700100240F0B482B0002336E0AE
:10379000042400E00024B4403C4302355B4E46F86C
:1037A00025405B4C2568D44304EA05064F6817F4AE
:1037B000803F01D042EA0506554D2E606D6804EA4F
:1037C00005064F6817F4003F01D042EA0506504D48
:1037D0006E60AD6804EA05064F6817F4801F01D0DB
:1037E00042EA05064A4DAE60ED682C404E6816F47C
:1037F000001F01D042EA0504454AD46001330A683B
:1038000032FA03F47ED001249C402240F6D04D6869
:10381000022D01D0122D10D1DE08083650F826C036
:1038200003F00705AF000F25BD402CEA050C0D691C
:10383000BD4045EA0C0540F8265006685F000325A8
:10384000BD40ED4305EA060C4E6806F00306BE4097
:1038500046EA0C0606604E6806F1FF3CBCF1010F1B
:1038600003D9112E01D0122E10D1866805EA060C5C
:10387000CE68BE4046EA0C068660466826EA040426
:103880004E68C6F300169E4026434660C468254035
:103890008C68BC402C43C4604C6814F0805FADD091
:1038A0001C4C256E45F001052566246E04F00104CC
:1038B0000194019C9D08AE1C144C54F8267003F032
:1038C0000304A6000F24B44027EA0407B0F1904F88
:1038D0003FF460AF104CA0420ED004F58064A042CB
:1038E0000CD004F58064A0420AD004F58064A042A4
:1038F0003FF44EAF07244EE701244CE702244AE789
:10390000032448E702B0F0BC704700BF000001404C
:1039100000040140001002400004004803691942FD
:1039200001D100207047012070470AB981627047B9
:103930008161704708B5054B5B69034200D108BD42
:10394000024B5861FDF7DCFAF9E700BF00040140C3
:1039500070B4446C04F01C05066C0124AC40746027
:10396000046863608368102B05D00368996003685E
:10397000DA6070BC704703689A600368D960F8E742
:10398000002869D010B403460168344A914245D8F2
:10399000334A0A443349A1FB0212120992004264DD
:1039A000314A0264022283F825201868016821F454
:1039B000FF4121F070019A68DC6822431C692243B0
:1039C0005C6922439C692243DC6922431C6A2243CE
:1039D0000A4302609A68B2F5804F15D0196C224AEA
:1039E000914226D0214A1168586C00F01C040F2027
:1039F000A04021EA00011160116858685C6C04F075
:103A00001C04A040014311600020D863012283F808
:103A1000252083F824005DF8044B7047144A0A44BB
:103A20001049A1FB0212120992004264114A026479
:103A3000B8E7A8321168586C00F01C040F20A040B1
:103A400021EA00011160116858685C6C04F01C04E4
:103A5000A04001431160D7E70120704707040240EE
:103A6000F8FFFDBFCDCCCCCC00000240A804024042
:103A7000F8FBFDBF0004024038B590F82440012C4B
:103A800033D0012480F8244090F82540E4B2012C82
:103A900004D0002380F82430022038BD04460220E0
:103AA00084F825000020E0632568286820F00100E4
:103AB00028602046FFF74CFF236B5BB12268136838
:103AC00043F00E0313602268136843F00103136090
:103AD0000020E2E72268136823F0040313602268E1
:103AE000136843F00A031360EDE70220D5E790F86E
:103AF0002530DBB2022B06D00423C363002380F8F9
:103B00002430012070470268136823F00E0313600D
:103B10000268136823F001031360436C03F01C0375
:103B2000016C012202FA03F34B6080F82520002388
:103B300080F824301846704708B590F82530DBB27D
:103B4000022B03D00423C363012008BD026813685D
:103B500023F00E0313600268136823F0010313605F
:103B6000436C03F01C03016C012202FA03F34B6067
:103B700080F82520002380F82430836B13B1984708
:103B80000020E2E70020E0E738B5036C196804681C
:103B90002568436C03F01C0304229A400A4215D0A6
:103BA00015F0040F12D0236813F0200F03D12368FF
:103BB00023F004032360436C03F01C02016C042314
:103BC00093404B60036B03B1984738BD02229A4083
:103BD0000A421CD015F0020F19D0236813F0200FF1
:103BE00006D1236823F00A032360012380F82530DF
:103BF000436C03F01C02016C022393404B600023D2
:103C000080F82430C36A002BDFD09847DDE7082214
:103C100002FA03F30B42D8D015F0080FD5D0236871
:103C200023F00E032360436C03F01C03016C01229C
:103C300002FA03F34B60C26380F82520002380F86A
:103C40002430436B002BC0D09847BEE7C06B704751
:103C5000024A136843F48073136070470070004099
:103C6000024B186800F4C060704700BF007000404D
:103C7000B0F5007F0FD01F4B1B6803F4C063B3F592
:103C8000806F34D01B4A136823F4C06343F480630D
:103C9000136000207047174B1B6803F4C063B3F533
:103CA000007F22D0134A136823F4C06343F40073E7
:103CB0001360114B1A68322303FB02F30F4AA2FB75
:103CC00003239B0C013300E0013B0A4A526912F4C2
:103CD000806F01D0002BF7D1064B5B6913F4806F26
:103CE00001D100207047032070470020704700205A
:103CF000704700BF007000406C00002083DE1B4353
:103D0000074AD36823F4E0631B041B0C000200F491
:103D1000E060184340F0BF6040F40030D06070476E
:103D200000ED00E030B4174BDB68C3F30223C3F1AE
:103D30000704042C28BF04241D1D062D18D9033B9D
:103D40004FF0FF3505FA04F421EA0401994005FA21
:103D500003F322EA0303194300280BDB0901C9B26C
:103D600000F1604000F5614080F8001330BC7047FE
:103D70000023E5E700F00F000901C9B2024B195416
:103D8000F4E700BF00ED00E014ED00E0002807DBE1
:103D900000F01F02400901239340024A42F82030FC
:103DA000704700BF00E100E00138B0F1807F0AD227
:103DB000064B5860064AF02182F8231000209860D4
:103DC00007221A6070470120704700BF10E000E032
:103DD00000ED00E0F8B505460F4616461C462B6878
:103DE0009B6837EA03030CBF01230023B34237D09B
:103DF000B4F1FF3FF3D0FEF7F1FC069BC01AA042DE
:103E000001D2002CEBD12A68536823F0E003536001
:103E10006B68B3F5827F0BD0AB6AB3F5005F14D04B
:103E2000012385F85D30002385F85C30032018E01D
:103E3000AB68B3F5004F02D0B3F5806FECD12A68C0
:103E4000136823F040031360E6E72A68136823F43D
:103E5000005313602A68136843F400531360DFE7CC
:103E60000020F8BDF8B507460C4615461E4602E090
:103E7000B6F1FF3F0BD13A6893682340AB423BD089
:103E8000B4F5C06FF4D1002DF2D1137BF0E7FEF74B
:103E9000A5FC069BC01AB04201D2002EEBD13A68B5
:103EA000536823F0E00353607B68B3F5827F0BD047
:103EB000BB6AB3F5005F14D0012387F85D3000239F
:103EC00087F85C30032018E0BB68B3F5004F02D0E0
:103ED000B3F5806FECD13A68136823F040031360A8
:103EE000E6E73A68136823F4005313603A681368EE
:103EF00043F400531360DFE70020F8BD70B582B0D3
:103F000004460D46164600920B4600224FF4C0515F
:103F1000FFF7A8FFB8B900962B4600228021204663
:103F2000FFF758FFB8B900962B4600224FF4C06146
:103F30002046FFF797FF034650B1236E43F020035E
:103F40002366032304E0236E43F020032366032348
:103F5000184602B070BD236E43F02003236603238E
:103F6000F6E7002853D010B504460023836290F88A
:103F70005D30002B40D0022384F85D302268136846
:103F800023F040031360E368B3F5E06F39D90022F2
:103F9000B3F5706F04D0B3F5E06F01D00021A162DA
:103FA000216B21B9B3F5E06F2ED902232363636837
:103FB000A1680B4321690B4361690B43A16901F4BB
:103FC00000710B43E1690B43216A0B43A06A21682E
:103FD00003430B60638B03F00403616A0B43616B63
:103FE0000B43E1680B43216813434B6000202066BC
:103FF000012384F85D3010BD80F85C30FDF7B8FA1D
:10400000B9E74FF48052C3E701232363CFE70120D0
:1040100070472DE9F04182B090F85C40012C00F02F
:10402000E4801E46154688460446012380F85C302D
:10403000FEF7D4FB074694F85D20D2B2012A09D0DE
:104040000220012384F85D30002384F85C3002B044
:10405000BDE8F081B8F1000F00F0B980002D00F04C
:10406000B880032384F85D3000232366C4F83880C9
:10407000A587E5872364A4F84430A4F84630236577
:10408000E364A368B3F5004F1CD023681A6812F0EC
:10409000400F03D11A6842F040021A60E368B3F59A
:1040A000E06F33D963680BB1012D1BD1A26B23687C
:1040B0001288DA60A36B0233A363E38F013B9BB2E8
:1040C000E3870FE02268136843F480431360DCE762
:1040D000FEF784FBC01BB04202D3B6F1FF3F7AD19A
:1040E000002E7AD0E38F9BB2002B5BD023689A68B6
:1040F00012F0020FECD0A26B1288DA60A36B0233CD
:10410000A363E38F013B9BB2E387EBE763680BB1EB
:10411000012D30D1E38F9BB2012B0BD9A26B236809
:104120001288DA60A36B0233A363E38F023B9BB276
:10413000E38720E0A26B236812781A73A36B013324
:10414000A363E38F013B9BB2E38714E0A36B1B786F
:104150001373A36B0133A363E38F013B9BB2E3872C
:1041600009E0FEF73BFBC01BB04202D3B6F1FF3FB4
:1041700035D1002E35D0E38F9BB29BB12268936876
:1041800013F0020FEDD0E38F9BB2012BDED9A36BAE
:104190001B88D360A36B0233A363E38F023B9BB204
:1041A000E387E8E73A4631462046FFF7A7FE08B125
:1041B00020232366A36833B901932368DA68019248
:1041C0009B680193019B236E6BB9002039E70120A6
:1041D00037E7012035E7032033E7032031E70320E9
:1041E0002FE703202DE701202BE702202FE7000017
:1041F000DFF834D0002103E00C4B5B58435004310E
:104200000B480C4B42189A42F6D30B4A02E00023AB
:1042100042F8043B094B9A42F9D3FDF7E5FCFCF761
:10422000F7FDFDF75BF9FEE700000120F8680008E4
:10423000000000208000002080000020304E002080
:10424000FEE700F1080343604FF0FF328260C36075
:1042500003610023036070470023036170474368D4
:104260004B609A688A609A68516099600861036837
:1042700001330360704730B40D68B5F1FF3F02D0E1
:1042800000F1080202E0026904E01A4653681C6863
:10429000AC42FAD953684B6099608A6051600861FA
:1042A00003680133036030BC70470369426881686A
:1042B00091608268416851605A68824206D000224B
:1042C00002611A68013A1A601868704782685A6079
:1042D000F5E770B504461646856B026C5AB903685B
:1042E0001BB100200135A56370BD406800F05AFD88
:1042F00000236360F6E76EB9806801F0D3F8226CA2
:10430000A3681344A3606268934219D32368A3602F
:104310000020E7E7C06801F0C5F8226C5242E3686C
:104320001344E36021688B4202D263681A44E2605E
:10433000022E01D00020D5E725B1013D0020D1E7B4
:104340000020CFE70020CDE738B540B94FF050034B
:1043500083F31188BFF36F8FBFF34F8FFEE70446DF
:104360000D4600F047FF2168E26B236C03FB02104F
:1043700060600020A063A160013A02FB0313E360C8
:10438000FF2384F8443084F84530A5B923691BB96C
:1043900000F052FF012038BD04F1100000F0ACFC29
:1043A0000028F5D0084B4FF080521A60BFF34F8FB2
:1043B000BFF36F8FECE704F11000FFF742FF04F149
:1043C0002400FFF73EFFE3E704ED00E010B5029B99
:1043D0000C4639B11A60D8631C6401211846FFF7F6
:1043E000B3FF10BD1B60F6E740B94FF0500383F3F5
:1043F0001188BFF36F8FBFF34F8FFEE7F0B583B027
:10440000064611B101FB00F000E0002017460C4603
:10441000483000F0C9FD054650B1002380F8463011
:1044200000903B4600F1480221463046FFF7CEFFA0
:10443000284603B0F0BD2DE9F84360B1044699B9B0
:10444000006C88B14FF0500383F31188BFF36F8F76
:10445000BFF34F8FFEE74FF0500383F31188BFF394
:104460006F8FBFF34F8FFEE7022B0BD1E06B01285C
:1044700008D04FF0500383F31188BFF36F8FBFF361
:104480004F8FFEE71F469046894600F0DDFFEFF3B1
:1044900011864FF0500383F31188BFF36F8FBFF382
:1044A0004F8FA26BE36B9A4203D3022F01D00020FF
:1044B0000FE094F845506DB23A4649462046FFF762
:1044C00008FFB5F1FF3F08D06B1C5BB284F84530A4
:1044D000012086F31188BDE8F883636A5BB104F1BB
:1044E000240000F009FC40B1B8F1000F07D0012012
:1044F000C8F80000EDE70120EBE70120E9E7012023
:10450000E7E760B170B50446036C8BB14FF0500320
:1045100083F31188BFF36F8FBFF34F8FFEE74FF028
:10452000500383F31188BFF36F8FBFF34F8FFEE704
:1045300003682BB30E4600F087FFEFF311854FF0B1
:10454000500383F31188BFF36F8FBFF34F8FA26BBC
:10455000E36B934226D994F845305BB20132A263F3
:10456000B3F1FF3F18D1636AF3B104F1240000F006
:10457000C3FBD8B1E6B10120306085F3118870BD6E
:104580004368002BD6D04FF0500383F31188BFF35C
:104590006F8FBFF34F8FFEE701335BB284F8453076
:1045A0000120EAE70020E8E70120E6E70120E4E750
:1045B0000120E2E7084B1B681B683BB1064B1B68F8
:1045C000DB68DB685A68054B1A607047034B4FF095
:1045D000FF321A60704700BF103F0020E43F002008
:1045E0002DE9F04780469946089D099F0A9C266B55
:1045F00002F18042013A06EB820626F0070600230C
:104600000F2B07D8C85CE21882F83400CA5C0AB1E4
:104610000133F5E7002384F84330062D00D9062541
:10462000E56265644FF0000AC4F848A0201DFFF75A
:1046300013FE04F11800FFF70FFE2461C5F1070512
:10464000A5616462C4F84CA084F850A04A46414673
:10465000304600F0A3FD206007B13C60BDE8F08764
:1046600038B5002407E004EB840293000E48184498
:10467000FFF7E7FD0134062CF5D90C4D2846FFF76E
:10468000E0FD0B4C2046FFF7DCFD0A48FFF7D9FDA3
:104690000948FFF7D6FD0948FFF7D3FD084B1D6019
:1046A000084B1C6038BD00BF183F0020BC3F0020F5
:1046B000D03F0020EC3F00201840002004400020A4
:1046C000103F0020143F002010B5044600F092FD7A
:1046D000204A1368013313601F4B1B685BB11F4BEB
:1046E0001B686BB91C4B1B68DA6AE36A9A4207D8ED
:1046F000194B1C6004E0184B1C601368012B26D07A
:10470000174A136801331360E36A01229A4015497E
:10471000086802430A6003EB83039A00211D1248D4
:104720001044FFF79CFD00F087FD0C4B1B686BB13C
:10473000094B1B68DA6AE36A9A4207D20B4B4FF0C7
:1047400080521A60BFF34F8FBFF36F8F10BDFFF71A
:1047500087FFD5E7A43F00200C3F00200040002049
:10476000B43F0020B83F0020183F002004ED00E0D7
:1047700010B5044690F8513033B9006B00F098FC46
:10478000204600F095FC10BD012B0AD0022BFAD078
:104790004FF0500383F31188BFF36F8FBFF34F8F38
:1047A000FEE700F085FCEEE70F4B1B68D3B110B5B8
:1047B00000F020FD0D4BDB68DC68201DFFF775FD68
:1047C0000B4A1368013B1360074A1368013B1360EF
:1047D00000F032FD2046FFF7CBFF034B1B68002B98
:1047E000E6D110BD704700BFA83F00201840002050
:1047F000A43F002008B5FFF7D7FF064B1B68012B2D
:10480000F9D9054B4FF080521A60BFF34F8FBFF3B9
:104810006F8FF0E7183F002004ED00E070B504460C
:104820000E461D4B1D681D4B18680430FFF73DFDFB
:1048300050B91A4B1B68DA6A012303FA02F21849CD
:104840000B6823EA02030B60B4F1FF3F13D02C4442
:10485000124B1B685C60A54216D8124B18680F4BB0
:1048600019680431FFF707FD0F4B1B68A34212D9EB
:104870000D4B1C600FE0002EE9D0084B1968043185
:104880000A48FFF7ECFC06E0094B1868034B19686F
:104890000431FFF7F0FC70BD2C4000200C3F0020DD
:1048A000B83F0020103F0020E43F002004400020DB
:1048B000143F002070B586B00B9D0C9C45B94FF09D
:1048C000500383F31188BFF36F8FBFF34F8FFEE761
:1048D00044B94FF0500383F31188BFF36F8FBFF3D8
:1048E0004F8FFEE754260496049E542E08D04FF0B6
:1048F000500383F31188BFF36F8FBFF34F8FFEE731
:104900002563022584F8515000250395029405ADD6
:1049100001950A9D0095FFF763FE2046FFF7D4FE40
:10492000059806B070BD2DE9F04385B0074688466E
:1049300015469946900000F037FB08B30646542010
:1049400000F032FB0446B8B10663E4B1002384F8FA
:104950005130039302940D9B01930C9B00934B46A3
:104960002A4641463846FFF73BFE2046FFF7ACFE9D
:10497000012005B0BDE8F083304600F099FBE4E784
:104980004FF0FF30F5E74FF0FF30F2E710B588B099
:1049900000240594069407AA06A905A8FCF718FCAC
:1049A000059B0293069B019300942346079A0D49A9
:1049B0000D48FFF77FFF08B908B010BD4FF0500356
:1049C00083F31188BFF36F8FBFF34F8F074B4FF007
:1049D000FF321A60064B01221A60064B1C6000F081
:1049E000ABFCE9E740680008F5470008E43F002019
:1049F000004000202C400020024A1368013313605D
:104A0000704700BFB03F0020F8B53A4B1B68002B41
:104A100064D1394B1D6801351D60C5B9374B1B6822
:104A20001B6843B14FF0500383F31188BFF36F8FBE
:104A3000BFF34F8FFEE7314A1168314B18681060A1
:104A40001960304A136801331360FFF7B3FD2E4B32
:104A50001B68AB4238D900242C4B1B68DB6A03EB84
:104A600083039A002A4B9B58012B3CD901243AE03E
:104A70000124224B1B681B6843B3204B1B68DB6877
:104A8000DE6873689D4226D3371D3846FFF70DFC5C
:104A9000B36A1BB106F11800FFF707FCF36A0122A5
:104AA0009A401C49086802430A6003EB83039A009A
:104AB000394617481044FFF7D2FBF26A134B1B68C4
:104AC000DB6A9A42D4D2D4E70024D2E70E4B4FF0EF
:104AD000FF321A60C0E70C4A1360BDE70E4A136844
:104AE0000133136000240D4B1B6803B101242046E1
:104AF000F8BD00BFB03F00202C400020103F002038
:104B0000143F0020E83F0020E43F00200C3F00203D
:104B1000183F0020B83F0020AC3F0020304000206C
:104B200038B5334B1B6843B94FF0500383F31188FA
:104B3000BFF36F8FBFF34F8FFEE700F05BFB2C4B93
:104B40001A68013A1A601B68002B4DD1294B1B686B
:104B500023B9002400F070FB204638BD0024264B0A
:104B60001B681BB3244BDB68DC6804F11800FFF7FB
:104B70009CFB251D2846FFF798FBE36A01229A401B
:104B80001E49086802430A6003EB83039A00294622
:104B90001B481044FFF763FBE26A1A4B1B68DB6A91
:104BA0009A42DCD3184B01221A60D8E70CB1FFF708
:104BB00001FD164B1C6854B1FFF726FF10B1124BD4
:104BC00001221A60013CF7D1104B00221A600E4BF3
:104BD0001B685BB10E4B4FF080521A60BFF34F8FD2
:104BE000BFF36F8F0124B5E70024B3E70024B1E7DA
:104BF000B03F0020A43F0020EC3F0020B83F002041
:104C0000183F00200C3F002030400020AC3F002027
:104C100004ED00E010B5A8B104460F4B1B6843B18A
:104C20004FF0500383F31188BFF36F8FBFF34F8FA3
:104C3000FEE7FFF7E1FE00212046FFF7EFFDFFF75B
:104C40006FFF38B9054B4FF080521A60BFF34F8F9A
:104C5000BFF36F8F10BD00BFB03F002004ED00E038
:104C6000204B1B681BB1204B01221A6070471E4B62
:104C700000221A601D4B1B68B3FA83F3DBB2C3F149
:104C80001F0303EB83018A0019498A5842B94FF088
:104C9000500383F31188BFF36F8FBFF34F8FFEE78D
:104CA00010B413489A00D418A10001444C686468F9
:104CB0004C601A4491000831084484420BD003EB45
:104CC00083039A000A4B13445B68DA68094B1A6045
:104CD0005DF8044B704761680548142202FB03022B
:104CE0005160ECE7B03F002030400020B83F00208A
:104CF000183F00200C3F002038B5C368DC6844B979
:104D00004FF0500383F31188BFF36F8FBFF34F8FC2
:104D1000FEE704F118052846FFF7C7FA134B1B6896
:104D2000E3B9251D2846FFF7C0FAE36A01229A403D
:104D30000F49086802430A6003EB83039A0029467F
:104D40000C481044FFF78BFAE26A0B4B1B68DB6AD6
:104D50009A4208D90120094B186038BD29460848F5
:104D6000FFF77DFAF0E70020F7E700BFB03F002033
:104D7000B83F0020183F00200C3F002030400020AA
:104D8000EC3F0020054B1B6833B1054B1B680BB192
:104D9000002070470220704701207047004000202B
:104DA000B03F0020002849D038B50446264A126892
:104DB000824208D04FF0500383F31188BFF36F8F06
:104DC000BFF34F8FFEE7826C42B94FF0500383F37D
:104DD0001188BFF36F8FBFF34F8FFEE7013A8264F4
:104DE000C06A616C88422BD062BB251D2846FFF744
:104DF0005CFA70B9E26A142303FB02F31349CB583F
:104E00003BB9012303FA02F211490B6823EA0203BA
:104E10000B60636CE362C3F10702A261012404FA30
:104E200003F20B49086802430A602946074A142026
:104E300000FB0320FFF713FA204638BD002070471F
:104E40000020FAE70020F8E70C3F0020183F002080
:104E5000B83F0020842801D00330704700207047FD
:104E600008B5FFF793FD002008BD2DE9F04387B09A
:104E700004460F464569A5B1866996B1D0F804800D
:104E8000D0F80090B0F90800FFF7E4FF226902961D
:104E9000019500903B4649464046FFF70BFD0590C3
:104EA00013E065682668D4F81080B4F90800FFF7AD
:104EB000D1FF05AB019300903B461FFA88F23146C3
:104EC0002846FFF730FD012803D1059807B0BDE85B
:104ED000F0830020FAE708B5034600B9012318461D
:104EE000FFF798FE002008BD134A12F0070F1FD0ED
:104EF000D11D21F00701C1F53B63083313440A4675
:104F00000E480260002141601344083B23F0070370
:104F10000B48036059601960991A51601360094B7E
:104F20001960094B1960094B4FF000421A60704735
:104F300040F6B833E4E700BF38400020FC4B0020C7
:104F400034400020F84B0020F44B0020F04B0020B0
:104F500010B4134B1A6882421BD359685C18844200
:104F600003D1406801445960184641684418A24280
:104F700013D10C4C2468A2420DD0526811444160F8
:104F80001A6812680260984200D018605DF8044BFD
:104F900070471346DEE70460F5E70260F3E700BF01
:104FA000FC4B00203440002070B50446FFF724FD80
:104FB0003A4B1B68BBB13A4B1B681C4263D1ACB186
:104FC000083414F0070F11D024F00704083404F05B
:104FD00007035BB14FF0500383F31188BFF36F8F6A
:104FE000BFF34F8FFEE7FFF77FFFE4E7002C4CD0C5
:104FF0002C4B1B68A3424AD32B4B1D6801E02B4668
:1050000015466A68A24202D22A68002AF7D1234ACA
:105010001268AA423DD01E6808362A681A606B687A
:105020001B1B102B10D9281910F0070F08D04FF0B8
:10503000500383F31188BFF36F8FBFF34F8FFEE7E9
:1050400043606C60FFF784FF6A6816490B689B1A1F
:105050000B60164909688B4201D214490B60104B52
:105060001B6813436B6000232B60FFF759FD16F09C
:10507000070F10D04FF0500383F31188BFF36F8FE9
:10508000BFF34F8FFEE70026EFE70026EDE700268F
:10509000EBE70026E9E7304670BD00BF3440002052
:1050A000F04B0020F44B0020FC4B0020F84B00207C
:1050B00080B338B50446A0F1080550F8042C164911
:1050C00009680A4208D14FF0500383F31188BFF3F7
:1050D0006F8FBFF34F8FFEE750F8080C40B14FF0D1
:1050E000500383F31188BFF36F8FBFF34F8FFEE739
:1050F00022EA010244F8042CFFF77EFC54F8041C59
:10510000064A13680B4413602846FFF721FFFFF798
:1051100007FD38BD704700BFF04B0020F44B002066
:1051200082B0002301930D4B1B68B3F1FF3F08D001
:105130004FF0500383F31188BFF36F8FBFF34F8F8E
:10514000FEE74FF0500383F31188BFF36F8FBFF377
:105150004F8F019B002BFCD002B0704778000020DD
:1051600008480068006880F308884FF0000080F36A
:10517000148862B661B6BFF34F8FBFF36F8F00DF45
:1051800000BF000008ED00E0DFF80C00016841F40A
:10519000700101607047000088ED00E04FF08073FF
:1051A00040F8043C21F0010140F8081C054B40F890
:1051B0000C3C40F8202C6FF0020340F8243C4438AB
:1051C000704700BF215100080000000000000000EF
:1051D000074B19680868B0E8F04F80F30988BFF3FF
:1051E0006F8F4FF0000080F311887047AFF300809D
:1051F0000C3F00204FF0500383F31188BFF36F8FF3
:10520000BFF34F8F0A4A136801331360012B00D09C
:105210007047084B1B6813F0FF0FF9D04FF0500395
:1052200083F31188BFF36F8FBFF34F8FFEE700BF8B
:105230007800002004ED00E0094B1B6843B94FF0F3
:10524000500383F31188BFF36F8FBFF34F8FFEE7D7
:10525000013B034A13600BB983F31188704700BF09
:1052600078000020000000000000000000000000A6
:10527000EFF30980BFF36F8F154B1A681EF0100F04
:1052800008BF20ED108A20E9F04F10602DE90900D9
:105290004FF0500080F31188BFF34F8FBFF36F8F33
:1052A000FFF7DEFC4FF0000080F3118809BC19689D
:1052B0000868B0E8F04F1EF0100F08BFB0EC108A7D
:1052C00080F30988BFF36F8F704700BFAFF3008092
:1052D0000C3F002008B54FF0500383F31188BFF353
:1052E0006F8FBFF34F8FFFF78FFB18B1034B4FF05A
:1052F00080521A60002383F3118808BD04ED00E09A
:10530000084A0023136008490B60084B1B680849D2
:10531000A1FB03139B09013B06490B6007231360A4
:10532000704700BF10E000E018E000E06C000020D3
:10533000D34D621014E000E03A4B1A683A4B9A429F
:105340000DD0384B1A68394B9A4211D14FF05003A7
:1053500083F31188BFF36F8FBFF34F8FFEE74FF0DA
:10536000500383F31188BFF36F8FBFF34F8FFEE7B6
:1053700010B582B02E4B1A78D2B20192FF221A7069
:105380001B78DBB28DF803309DF8033003F0500337
:10539000284A1370284B07221A6009E0264A13682E
:1053A000013B13609DF803305B00DBB28DF80330E6
:1053B0009DF8033013F0800FF0D11F4B1B68032BB7
:1053C00008D04FF0500383F31188BFF36F8FBFF302
:1053D0004F8FFEE71B0203F4E063174A1360019B43
:1053E000DBB2134A1370154B1A6842F470021A604C
:1053F0001A6842F070421A60FFF782FF0024104BD7
:105400001C60FFF7C1FE0F4A136843F0404313606E
:10541000FFF7A6FEFFF724FCFFF782FE204602B04E
:1054200010BD00BF00ED00E071C20F4170C20F411E
:1054300000E400E0044C0020084C002020ED00E0D7
:105440007800002034EF00E0EFF305830F2B0FD935
:10545000104A9B5CDBB2104A12789A4208D94FF08E
:10546000500383F31188BFF36F8FBFF34F8FFEE7B5
:105470000A4B1B6803F4E063094A1268934208D997
:105480004FF0500383F31188BFF36F8FBFF34F8F3B
:10549000FEE77047F0E300E0044C00200CED00E074
:1054A000084C002010B5431E0A44914200D110BDA3
:1054B00011F8014B03F8014FF7E700000FB40A4B56
:1054C00013B51C6824B1A36913B9204600F0A8FAEB
:1054D00005AB049AA1680193204600F0C3FD02B019
:1054E000BDE8104004B070470000002070B50E46C3
:1054F000054618B183690BB900F092FAAB69AC6844
:1055000013B9284600F08CFA234B9C4217D16C68E3
:10551000A3891B071DD52369DBB1013EA36816F8DB
:10552000011F013BA360E9B9002B2EDA22460A21B4
:10553000284600F0A3F8013011D00A2011E0174BE3
:105540009C4201D1AC68E3E7154B9C4208BFEC6874
:10555000DEE72146284600F0F5F80028DDD04FF0C0
:10556000FF3070BD002B04DAA2699A4206DC0A29DA
:1055700004D023685A1C22601970CFE722462846BF
:1055800000F07CF80130C9D1E9E723680A205A1CF1
:1055900022601870E5E700BF6868000888680008A6
:1055A00048680008024B01461868FFF79FBF00BF1C
:1055B000000000200EB400B59CB01DAB0290069018
:1055C0006FF00041094807910491094953F8042BF1
:1055D00005910068019302A900F024FC029B0022BF
:1055E0001A701CB05DF804EB03B070470000002097
:1055F0000802FFFF10B50C46B1F90E1000F0CEFF07
:105600000028ABBF636DA3891B1823F48053ACBF84
:105610006365A38110BD2DE9F0411F468B89DB0531
:1056200005460C46164605D502230022B1F90E1098
:1056300000F080FAA389B4F90E1023F48053A381FB
:1056400032463B462846BDE8F04100F069B810B547
:105650000C46B1F90E1000F06DFA431CA38915BF7A
:10566000606523F4805343F48053A38118BFA38162
:1056700010BDB1F90E1000F0D3B80000F8B50E4619
:105680001446054618B183690BB900F0C9F9214BDE
:105690009C422AD16C68A369A360A3891A072ED5FE
:1056A000236963B323692068C01A6369F6B2834231
:1056B000374604DC2146284600F048F928BBA36899
:1056C000013BA36023685A1C22601E70636901308D
:1056D000834204D0A389DB0719D50A2E17D12146AE
:1056E000284600F033F990B10FE00B4B9C4201D1FA
:1056F000AC68D0E7094B9C4208BFEC68CBE7214679
:10570000284600F01FF80028CCD04FF0FF3738466D
:10571000F8BD00BF6868000888680008486800088D
:1057200038B5074C054608461146002222601A4645
:10573000FBF7ACFB431C02D1236803B12B6038BDDF
:105740002C4E0020324B70B51D6806460C4625B124
:10575000AB6913B9284600F063F92E4B9C420FD178
:105760006C68B4F90C309AB215072CD4D00611D459
:105770000922326043F04003A3814FF0FF303EE046
:10578000254B9C4201D1AC68EBE7244B9C4208BFFF
:10579000EC68E6E7510712D5616B41B104F14403AF
:1057A000994202D0304600F03BFA00236363A3899C
:1057B00023F02403A3810023636023692360A3896A
:1057C00043F00803A38123694BB9A38903F4207331
:1057D000B3F5007F03D02146304600F0E1F9A289FD
:1057E00012F001030CD00023A36063695B42A36144
:1057F000236953B9B4F90C3013F08000BAD170BDED
:10580000920758BF6369A360F2E70020F7E700BF83
:1058100000000020686800088868000848680008E0
:1058200038B5064C002305460846236000F044FFC7
:10583000431C02D1236803B12B6038BD2C4E0020DD
:105840008A892DE9F041054610070C4658D44B686B
:10585000002B05DC0B6C002B02DC0020BDE8F08186
:10586000E66A002EF9D0002312F480522F68216AD4
:105870002B6032D0606DA3895A0705D56368C01AC2
:10588000636B0BB1236CC01A00230246E66A216ADF
:105890002846B047431CA38906D129681D2948D84A
:1058A000294ACA40D60744D500226260D904226939
:1058B000226004D5421C01D12B6803B96065616B7D
:1058C0002F600029C9D004F14403994202D0284630
:1058D00000F0A6F900206063C0E701232846B04726
:1058E000411CC8D12B68002BC5D01D2B01D0162B15
:1058F00001D12F60B1E7A38943F04003A381ADE755
:105900000F69002FA9D093070E6808BF4B690F607D
:1059100018BF0023A6EB07088B60B8F1000F9CDDD1
:1059200043463A46216AA66A2846B047002806DC64
:10593000A38943F04003A3814FF0FF308EE7074473
:10594000A8EB0008E9E700BF0100402038B50B696B
:1059500005460C46DBB118B183690BB900F060F85D
:105960000C4B9C4209D16C68B4F90C307BB12146D8
:105970002846BDE83840FFF763BF074B9C4201D182
:10598000AC68F1E7054B9C4208BFEC68ECE70020EF
:1059900038BD00BF686800088868000848680008CB
:1059A000002310B50446C0E900338360818143665B
:1059B000C281C0E904338361194608225C30FBF7D9
:1059C0004BFA054B6362054BA362054BE362054B43
:1059D0002462236310BD00BFF55500081756000868
:1059E0004F56000873560008014900F085B800BF03
:1059F0004D59000870B54A1E682555430E4605F1FD
:105A0000740100F05BF9044640B10021C0E90016C2
:105A10000C30A06005F16802FBF71EFA204670BD4D
:105A2000836910B5044633BBC0E912330365124BDA
:105A3000124A1B688262984204BF0123836100F00E
:105A40001FF86060204600F01BF8A060204600F0C0
:105A500017F80022E06004216068FFF7A1FF01222F
:105A60000921A068FFF79CFF02221221E068FFF7DE
:105A700097FF0123A36110BD80670008E959000862
:105A8000F8B51B4B1E68B369074613B93046FFF7DC
:105A9000C7FF4836D6E90134013B03D5336833B13B
:105AA0003668F7E7B4F90C506DB16834F4E70421B7
:105AB0003846FFF79FFF30600028F1D10C233B6090
:105AC00004462046F8BD0B4B6566C4E90055A56049
:105AD000C4E90335C4E905550822294604F15C00F0
