:020000040800F2
:1000000000000120C9500008E51E0008E71E000896
:10001000E91E0008EB1E0008ED1E000800000000AD
:10002000000000000000000000000000C1600008A7
:10003000EF1E00080000000061610008F11E0008CA
:1000400019510008195100081951000819510008E8
:10005000195100081951000819510008051F00081E
:1000600019510008195100080F1F00081951000804
:100070001951000819510008191F0008291F00080C
:1000800019510008195100081951000819510008A8
:10009000195100081951000819510008391F0008AA
:1000A0001951000819510008195100081951000888
:1000B000195100080000000000000000195100085C
:1000C0001951000819510008195100081951000868
:1000D00019510008451F000819510008195100085E
:1000E000195100081951000800000000000000002C
:1000F0000000000000000000000000000000000000
:10010000000000001951000800000000195100080B
:1001100000000000000000001951000819510008FB
:100120001951000819510008195100081951000807
:10013000195100080000000000000000000000004D
:1001400019510008195100081951000819510008E7
:1001500019510008195100081951000819510008D7
:100160001951000819510008195100080000000039
:100170001951000819510008195100080000000029
:100180001951000819510008195100080000000019
:1001900010B5054C237833B9044B13B10448AFF3C1
:1001A00000800123237010BD8000002000000000AB
:1001B0001476000808B5034B1BB103490348AFF39D
:1001C000008008BD000000008400002014760008B4
:1001D00081F0004102E000BF83F0004330B54FEAF8
:1001E00041044FEA430594EA050F08BF90EA020F65
:1001F0001FBF54EA000C55EA020C7FEA645C7FEAF8
:10020000655C00F0E2804FEA5454D4EB5555B8BF1A
:100210006D420CDD2C4480EA020281EA030382EA8B
:10022000000083EA010180EA020281EA0303362D1D
:1002300088BF30BD11F0004F4FEA01314FF4801CF0
:100240004CEA113102D0404261EB410113F0004F02
:100250004FEA03334CEA133302D0524263EB4303B9
:1002600094EA050F00F0A780A4F10104D5F1200E57
:100270000DDB02FA0EFC22FA05F2801841F10001B2
:1002800003FA0EF2801843FA05F359410EE0A5F186
:1002900020050EF1200E012A03FA0EFC28BF4CF0B7
:1002A000020C43FA05F3C01851EBE37101F000456D
:1002B00007D54FF0000EDCF1000C7EEB00006EEB7A
:1002C0000101B1F5801F1BD3B1F5001F0CD3490804
:1002D0005FEA30004FEA3C0C04F101044FEA44525B
:1002E00012F5800F80F09A80BCF1004F08BF5FEAE2
:1002F000500C50F1000041EB045141EA050130BDC2
:100300005FEA4C0C404141EB010111F4801FA4F164
:100310000104E9D191F0000F04BF01460020B1FAB9
:1003200081F308BF2033A3F10B03B3F120020CDAF1
:100330000C3208DD02F1140CC2F10C0201FA0CF0CF
:1003400021FA02F10CE002F11402D8BFC2F1200C34
:1003500001FA02F120FA0CFCDCBF41EA0C019040EA
:10036000E41AA2BF01EB0451294330BD6FEA040433
:100370001F3C1CDA0C340EDC04F11404C4F120021E
:1003800020FA04F001FA02F340EA030021FA04F330
:1003900045EA030130BDC4F10C04C4F1200220FA87
:1003A00002F001FA04F340EA0300294630BD21FAC5
:1003B00004F0294630BD94F0000F83F4801306BF8B
:1003C00081F480110134013D4EE77FEA645C18BF7F
:1003D0007FEA655C29D094EA050F08BF90EA020F16
:1003E00005D054EA000C04BF1946104630BD91EA0E
:1003F000030F1EBF0021002030BD5FEA545C05D111
:100400004000494128BF41F0004130BD14F580044F
:100410003CBF01F5801130BD01F0004545F0FE41C3
:1004200041F470014FF0000030BD7FEA645C1ABFF8
:10043000194610467FEA655C1CBF0B46024650EA2F
:10044000013406BF52EA033591EA030F41F400215B
:1004500030BD00BF90F0000F04BF0021704730B5E1
:100460004FF4806404F132044FF000054FF00001B6
:1004700050E700BF90F0000F04BF0021704730B577
:100480004FF4806404F1320410F0004548BF40424C
:100490004FF000013EE700BF42004FEAE2014FEAA1
:1004A00031014FEA02701FBF12F07F4393F07F4F7C
:1004B00081F06051704732F07F4208BF704793F07F
:1004C0007F4F04BF41F40021704730B54FF4607492
:1004D00001F0004521F000411CE700BF50EA010295
:1004E00008BF704730B54FF000050AE050EA01023E
:1004F00008BF704730B511F0004502D5404261EBAE
:1005000041014FF4806404F132045FEA915C3FF4EE
:10051000D8AE4FF003025FEADC0C18BF03325FEA8B
:10052000DC0C18BF033202EBDC02C2F1200300FA3C
:1005300003FC20FA02F001FA03FE40EA0E0021FA61
:1005400002F11444BDE600BF70B54FF0FF0C4CF44F
:10055000E06C1CEA11541DBF1CEA135594EA0C0F01
:1005600095EA0C0F00F0DEF82C4481EA030621EA3C
:100570004C5123EA4C5350EA013518BF52EA033577
:1005800041F4801143F4801338D0A0FB02CE4FF029
:100590000005E1FB02E506F00042E0FB03E54FF059
:1005A0000006E1FB03569CF0000F18BF4EF0010E51
:1005B000A4F1FF04B6F5007F64F5407404D25FEA4D
:1005C0004E0E6D4146EB060642EAC62141EA555100
:1005D0004FEAC52040EA5E504FEACE2EB4F1FD0C42
:1005E00088BFBCF5E06F1ED8BEF1004F08BF5FEAC0
:1005F000500E50F1000041EB045170BD06F0004672
:1006000046EA010140EA020081EA0301B4EB5C041E
:10061000C2BFD4EB0C0541EA045170BD41F4801116
:100620004FF0000E013C00F3AB8014F1360FDEBF3B
:10063000002001F0004170BDC4F10004203C35DA17
:100640000C341BDC04F11404C4F1200500FA05F39A
:1006500020FA04F001FA05F240EA020001F000423B
:1006600021F0004110EBD37021FA04F642EB0601B1
:100670005EEA430E08BF20EAD37070BDC4F10C04DB
:10068000C4F1200500FA04F320FA05F001FA04F29F
:1006900040EA020001F0004110EBD37041F100018B
:1006A0005EEA430E08BF20EAD37070BDC4F1200596
:1006B00000FA05F24EEA020E20FA04F301FA05F2FE
:1006C00043EA020321FA04F001F0004121FA04F2A6
:1006D00020EA020000EBD3705EEA430E08BF20EA76
:1006E000D37070BD94F0000F0FD101F000464000B0
:1006F00041EB010111F4801F08BF013CF7D041EA32
:10070000060195F0000F18BF704703F00046520035
:1007100043EB030313F4801F08BF013DF7D043EA06
:100720000603704794EA0C0F0CEA135518BF95EABC
:100730000C0F0CD050EA410618BF52EA4306D1D143
:1007400081EA030101F000414FF0000070BD50EA62
:10075000410606BF1046194652EA430619D094EAEC
:100760000C0F02D150EA013613D195EA0C0F05D1D6
:1007700052EA03361CBF104619460AD181EA03012A
:1007800001F0004141F0FE4141F470014FF00000E2
:1007900070BD41F0FE4141F4780170BD70B54FF07D
:1007A000FF0C4CF4E06C1CEA11541DBF1CEA1355FD
:1007B00094EA0C0F95EA0C0F00F0A7F8A4EB0504DF
:1007C00081EA030E52EA03354FEA013100F08880D6
:1007D0004FEA03334FF0805545EA131343EA12639F
:1007E0004FEA022245EA111545EA10654FEA002654
:1007F0000EF000419D4208BF964244F1FD0404F50D
:10080000407402D25B084FEA3202B61A65EB030568
:100810005B084FEA32024FF480104FF4002CB6EB25
:10082000020E75EB030E22BFB61A754640EA0C00A5
:100830005B084FEA3202B6EB020E75EB030E22BFE5
:10084000B61A754640EA5C005B084FEA3202B6EB26
:10085000020E75EB030E22BFB61A754640EA9C00E5
:100860005B084FEA3202B6EB020E75EB030E22BFB5
:10087000B61A754640EADC0055EA060E18D04FEA73
:10088000051545EA16754FEA06164FEAC30343EA13
:1008900052734FEAC2025FEA1C1CC0D111F4801FE0
:1008A0000BD141EA00014FF000004FF0004CB6E7D9
:1008B00011F4801F04BF01430020B4F1FD0C88BF78
:1008C000BCF5E06F3FF6AFAEB5EB030C04BFB6EB83
:1008D000020C5FEA500C50F1000041EB045170BD76
:1008E0000EF0004E4EEA113114EB5C04C2BFD4EBA3
:1008F0000C0541EA045170BD41F480114FF0000E27
:10090000013C90E645EA060E8DE60CEA135594EAA2
:100910000C0F08BF95EA0C0F3FF43BAF94EA0C0FA5
:100920000AD150EA01347FF434AF95EA0C0F7FF41A
:1009300025AF104619462CE795EA0C0F06D152EA6E
:1009400003353FF4FDAE1046194622E750EA410652
:1009500018BF52EA43067FF4C5AE50EA41047FF463
:100960000DAF52EA43057FF4EBAE12E74A0011D215
:1009700012F5001211D20DD56FF47873B3EB6252F9
:100980000ED44FEAC12343F0004343EA505323FA05
:1009900002F070474FF00000704750EA013002D17A
:1009A0004FF0FF3070474FF0000070474FEA4102B0
:1009B000B2F1E04324BFB3F5001CDCF1FE5C0DD9BD
:1009C00001F0004C4FEAC0024CEA5070B2F1004F07
:1009D00040EB830008BF20F00100704711F0804F0A
:1009E00021D113F13872BCBF01F00040704741F4CF
:1009F00080114FEA5252C2F11802C2F1200C10FAD3
:100A00000CF320FA02F018BF40F001004FEAC123B6
:100A10004FEAD32303FA0CFC40EA0C0023FA02F35A
:100A20004FEA4303CCE77FEA625307D150EA013330
:100A30001EBF4FF0FE4040F44000704701F0004000
:100A400040F0FE4040F40000704700BF53B94AB97F
:100A5000002908BF00281CBF4FF0FF314FF0FF30C6
:100A600000F072B9ADF1080C6DE904CE00F006F8A3
:100A7000DDF804E0DDE9022304B070472DE9F0471A
:100A8000089E04468846002B4BD18A42154667D9FA
:100A9000B2FA82F24AB1C2F1200701FA02F320FA57
:100AA00007F7954047EA030894404FEA154E230C98
:100AB000B8FBFEF71FFA85FC0EFB178843EA0843D4
:100AC00007FB0CF1994209D9EB1807F1FF3080F0D0
:100AD0001B81994240F21881023F2B445B1AA4B259
:100AE000B3FBFEF00EFB103344EA034400FB0CFCA6
:100AF000A44509D92C1900F1FF3380F00781A445E2
:100B000040F2048102382C4440EA0740A4EB0C0474
:100B100000271EB1D4400023C6E900433946BDE892
:100B2000F0878B4209D9002E00F0EB800027C6E940
:100B3000000138463946BDE8F087B3FA83F7002F45
:100B400047D18B4202D3824200F2FA80841A61EBD1
:100B5000030301209846002EE0D0C6E90048DDE7F7
:100B600002B9FFDEB2FA82F2002A40F08F80491B00
:100B70004FEA154E1FFA85F80127B1FBFEFC230C46
:100B80000EFB1C1143EA014308FB0CF1994207D903
:100B9000EB180CF1FF3002D2994200F2CD8084466E
:100BA000591AA3B2B1FBFEF00EFB101443EA044441
:100BB00008FB00F8A04507D92C1900F1FF3302D239
:100BC000A04500F2B6801846A4EB080440EA0C40A9
:100BD0009FE7C7F1200CBB4022FA0CFE4EEA030E41
:100BE00001FA07F420FA0CF521FA0CF34FEA1E483B
:100BF0002543B3FBF8F92C0C08FB19331FFA8EFAC6
:100C000044EA034309FB0AF49C4202FA07F200FAA1
:100C100007F10BD91EEB030309F1FF3080F0878049
:100C20009C4240F28480A9F1020973441B1BADB2BF
:100C3000B3FBF8F008FB103345EA034400FB0AFA63
:100C4000A24508D91EEB040400F1FF336BD2A24584
:100C500069D90238744440EA0940A0FB0289A4EB38
:100C60000A044C45C2464B4654D351D0002E69D09D
:100C7000B1EB0A0564EB030404FA0CFCFD40FC40F4
:100C80004CEA0505C6E90054002747E7C2F12003F6
:100C900020FA03F7954001FA02F021FA03F34FEA34
:100CA000154E3843010CB3FBFEF71FFA85F80EFB17
:100CB000173341EA034107FB08F38B4204FA02F4BD
:100CC00007D9691807F1FF3C2FD28B422DD9023F7B
:100CD0002944CB1A81B2B3FBFEF00EFB103341EA7C
:100CE000034100FB08F38B4207D9691800F1FF3C70
:100CF00017D28B4215D902382944C91A40EA07474E
:100D00003BE73746304609E70746E7E61846FBE685
:100D10004145ABD2B8EB020A69EB0E02013813462B
:100D2000A4E76046E9E7184695E76746D1E78146BC
:100D30007CE702382C4447E7ACF1020C2B442FE748
:100D4000384608E73746E9E6704700BF034613F820
:100D5000012B002AFBD1181A01387047000000004F
:100D600001F0FF01102A2BDB10F0070F08D010F85C
:100D7000013B013A8B422DD010F0070F42B3F6D160
:100D8000F0B441EA012141EA014122F007047FF079
:100D900000070023F0E80256083C85EA010586EAD0
:100DA000010685FA47F5A3FA87F586FA47F6A5FA0C
:100DB00087F68EB9EED1F0BC01F0FF0102F0070218
:100DC00032B110F8013B013A83EA010313B1F8D1C3
:100DD0000020704701387047002D06BF35460338A4
:100DE000073815F0010F07D1013015F4807F02BFDD
:100DF000013015F4C03F0130F0BC0138704700BF2E
:100E0000F1EE103A43F08073E1EE103A704700BF04
:100E100070B50D4E0D4CA41BA4100025A54209D1A0
:100E20000B4E0C4C06F0F6FBA41BA4100025A542AB
:100E300005D170BD56F8253098470135EEE756F8D4
:100E4000253098470135F2E7D8770008D8770008B1
:100E5000D8770008E077000802440346934200D1A7
:100E6000704703F8011BF9E738B50B4B1C687CB1E0
:100E700013460A460146A5682079A8470446064B52
:100E80001B681A7812B15B6901209847204638BD6B
:100E90006FF07E04FAE700BF9C00002038B5064BD7
:100EA0001C6834B113460A460146E5682079A84714
:100EB00038BD6FF07E00FBE79C00002030B583B0AA
:100EC00000238DF807308DF80630114B1860D8B12B
:100ED000C46801230DF1070200210079A0470446F0
:100EE0000B4D2B689DF807205A7001220DF1060169
:100EF0003E20FFF7D3FF54FA80F040B22B689DF8F4
:100F000006205A7103B030BD6FF07E00FAE700BFD3
:100F10009C000020184B1B6833B3052827D80528F0
:100F200028D8DFE800F00307121D0C170020987086
:100F3000D870704702229A700020D8707047022241
:100F40009A700122DA700020704704229A70002003
:100F5000D870704704229A700122DA70002070471E
:100F600001229A70002070476FF07E0070476FF08A
:100F700001007047002070479C0000202DE9F041DF
:100F800082B000238DF807308DF806308DF80530DB
:100F9000454B1C68002C00F084800546E668012360
:100FA0000DF1070211212079B04704463E4E30680A
:100FB000C76801230DF1060212210079B84754FADF
:100FC00080F4E4B233685B7943F00C038DF80530AC
:100FD0002846FFF79FFF54FA80F4E4B233689F7805
:100FE000DB789DF8062022F0400252B29B0103F00C
:100FF000400313438DF8063001220DF10601122043
:10100000FFF732FF54FA80F05FFA80F84FFA88F465
:1010100033685B690120984733681B78012B24D023
:10102000042B22D09DF8073003F01F0343EA471733
:1010300002A901F8017D01221120FFF715FF54FAE2
:1010400080F4E4B2184E33685B69012098470122AE
:101050000DF105013E20FFF707FF54FA80F040B282
:1010600033681D7002B0BDE8F081002DDAD19DF823
:10107000073003F01F0343F0800302A901F8013D8C
:1010800001221120FFF7F0FE58FA80F0C4B20122CD
:101090000DF105013E20FFF7E7FE54FA80F464B23B
:1010A000C0E76FF07E00DDE79C000020F0B583B064
:1010B00000238DF807308DF806305B4B1C68002C40
:1010C00000F0AE800E460546E76801230DF10702E9
:1010D00016212079B8470446534B1868C768012386
:1010E0000DF1060217210079B84754FA80F464B272
:1010F00006F001010B2D00F29080DFE805F00623D9
:101100002C36404A535D67717B859DF8066026F05A
:10111000080676B246EAC1018DF8061001220DF1EB
:1011200007011620FFF7A0FE54FA80F4E4B2012272
:101130000DF106011720FFF797FE54FA80F040B238
:1011400003B0F0BD9DF8066026F0010676B231438B
:101150008DF80610E2E79DF8066026F0020676B2EA
:1011600046EA41018DF80610D8E79DF8066026F0A2
:10117000040676B246EA81018DF80610CEE79DF8A6
:10118000066026F0100676B246EA01118DF80610C8
:10119000C4E79DF8076026F0010676B231438DF86A
:1011A0000710BBE79DF8076026F0020676B246EA14
:1011B00041018DF80710B1E79DF8076026F004069D
:1011C00076B246EA81018DF80710A7E79DF807601F
:1011D00026F0200676B246EA41118DF807109DE709
:1011E0009DF8076026F0100676B246EA01118DF8E8
:1011F000071093E79DF8076026F0400676B246EAAE
:1012000081118DF8071089E79DF8076006F07F06C9
:1012100046EAC1118DF8071080E76FF001047DE701
:101220006FF07E008CE700BF9C00002070B582B09C
:1012300000228DF80720244A1468002C41D00D4666
:1012400020B1012820D06FF001001BE0E6680123E7
:101250000DF1070219212079B04704469DF80710C7
:1012600021F004014BB2A90001F0040119438DF8EB
:10127000071001220DF107011920FFF7F5FD54FABF
:1012800080F040B202B070BDE66801230DF10702A4
:101290001B212079B04704469DF8073023F0040352
:1012A0005AB2AB0003F0040313438DF80730012258
:1012B0000DF107011B20FFF7D7FD54FA80F040B273
:1012C000E0E76FF07E00DDE79C00002070B582B0A3
:1012D00000238DF80730614B1D68002D00F0B780AA
:1012E0000C46052800F2B680DFE800F003203D5AE6
:1012F0007794EE6801230DF107021E212879B0478B
:1013000005469DF8073023F001035BB204F00104A9
:101310001C438DF8074001220DF107011E20FFF745
:10132000A3FD55FA80F040B202B070BDEE68012313
:101330000DF107021E212879B04705469DF80730B8
:1013400023F002035BB2640004F002041C438DF836
:10135000074001220DF107011E20FFF785FD55FA18
:1013600080F040B2E0E7EE6801230DF107021E2194
:101370002879B04705469DF8073023F004035BB297
:10138000A40004F004041C438DF8074001220DF171
:1013900007011E20FFF768FD55FA80F040B2C3E751
:1013A000EE6801230DF107021E212879B04705469A
:1013B0009DF8073023F008035BB2E40004F0080452
:1013C0001C438DF8074001220DF107011E20FFF795
:1013D0004BFD55FA80F040B2A6E7EE6801230DF10F
:1013E00007021E212879B04705469DF8073023F0F3
:1013F00010035BB2240104F010041C438DF8074075
:1014000001220DF107011E20FFF72EFD55FA80F095
:1014100040B289E7EE6801230DF107021E21287909
:10142000B04705469DF8073023F020035BB2640106
:1014300004F020041C438DF8074001220DF1070140
:101440001E20FFF711FD55FA80F040B26CE76FF0F7
:101450007E0069E76FF0010066E700BF9C00002096
:1014600070B582B000228DF80720244A1468002C41
:1014700041D00D4620B1012820D06FF001001BE0C3
:10148000E66801230DF1070220212079B0470446C8
:101490009DF8071021F002014BB2690001F0020132
:1014A00019438DF8071001220DF107012020FFF7E5
:1014B000DBFC54FA80F040B202B070BDE668012354
:1014C0000DF1070220212079B04704469DF807302E
:1014D00023F008035AB2EB0003F0080313438DF81E
:1014E000073001220DF107012020FFF7BDFC54FA5F
:1014F00080F040B2E0E76FF07E00DDE79C00002066
:1015000030B583B0044600238DF80730164B1868B9
:1015100018B30F2C24D8631E0E2B1CD8C5680123CA
:101520000DF1070221210079A84705469DF80730F3
:1015300023F00F035BB204F00F0423438DF8073050
:1015400001220DF107012120FFF78EFC55FA80F0F2
:1015500040B203B030BD0024E0E76FF07E00F8E752
:101560006FF00100F5E700BF9C000020194B1B68DD
:1015700053B300B583B00B46032828D8DFE800F04A
:10158000020C141C02A901F8013D01222320FFF7DF
:101590006BFC03B05DF804FB02A901F8013D0122D8
:1015A0002620FFF761FCF4E702A901F8013D0122C2
:1015B0002820FFF759FCECE702A901F8013D0122C0
:1015C0002920FFF751FCE4E76FF07E0070476FF0D1
:1015D0000100DEE79C00002008B500F031FB08BDEB
:1015E00010B584B0069C02940193009201230A4630
:1015F0000146044801F02EFF10B9012004B010BDCF
:101600000020FBE7404C002010B584B0069C0294FB
:101610000193009201230A460146044801F0ECFFC1
:1016200010B9012004B010BD0020FBE7404C0020A1
:1016300010B582B0002401E00134E4B29C42FBD337
:101640004FF47A7400944000FFF7CAFF18B94FF0C6
:10165000FF3002B010BD0020FBE710B582B04FF4A0
:101660007A7400944000FFF7CFFF18B94FF0FF30B5
:1016700002B010BD0020FBE708B500F043F808BD3C
:1016800008B5FFF7A9FF054B054A9A60054ADA60DD
:10169000054A5A6118221A71002008BD1C4C00200E
:1016A000311600085B1600087916000808B5FFF728
:1016B000E7FF1348FFF702FC0020FFF75FFC002163
:1016C0000846FFF7CDFE28210220FFF74FFF01203B
:1016D000FFF716FF01210520FFF7E8FC0121062096
:1016E000FFF7E4FC01210720FFF7E0FC01210220C5
:1016F000FFF7ECFD01210020FFF798FD08BD00BFBA
:101700001C4C002010B5044604F01BFB012803D03C
:10171000204601F0CDFC10BD204604F051FBFAE755
:1017200000B583B002A941F8040D4FF6FF73012202
:10173000034801F09EFB019803B05DF804FB00BF75
:10174000C44D002070B51646002405E04D1C0878F5
:10175000FFF7E6FF01342946B442F7DB304670BD9F
:1017600010B543F6103200210A48FFF775FB0A4B0B
:101770001A68012111701968084C4FF4FA7204318B
:10178000204600F05FFF2268136843F010031360E7
:1017900010BD00BFA000002064000020C44D002048
:1017A00008B5002204211E2003F08AFD014B1860B9
:1017B00008BD00BFB43B002010B582B00446002332
:1017C0000193102805D0022C0BD0402C0ED002B073
:1017D00010BD0F4B19784A1C1A700E4804F0E6FD34
:1017E000F1E70D4A138801331380EEE701A90B4B93
:1017F000186803F0F2FD019B002BE8D0084B4FF076
:1018000080521A60BFF34F8FBFF36F8FDFE700BFC7
:10181000B03B002074760008B23B0020344C00201E
:1018200004ED00E0836E1A68136823F0010313606F
:101830007047000030B583B0002301930368DA6974
:1018400012F0100F0BD1019B3BB1274B4FF0805290
:101850001A60BFF34F8FBFF36F8F03B030BD0446E4
:1018600010221A6200F044FF2268204B9A42EAD10B
:10187000E36E1B685A68B2F5FA7F0BD85A681C4BA6
:101880001968C2F5FA724A801A68032151701B6800
:101890005B8883B9164B1B685B88012B1BD900231F
:1018A0001D2B18D8C3EB8311CA0012498A5C52B1B0
:1018B0000133DBB2F4E7002301AA0D490E480068AA
:1018C00003F025FDE6E7C3EB8310C2005518084876
:1018D000056001338B54064B19684FF4FA720431DA
:1018E000204600F0AFFEAEE704ED00E00038014016
:1018F00064000020A0000020B43B002000B583B0AD
:101900000E4B9A6C42F001029A649B6C03F0010347
:101910000193019B002205210E2003F06FF90E2098
:1019200003F0A0F9002205210F2003F067F90F2032
:1019300003F098F903B05DF804FB00BF001002400B
:1019400010B586B000F00AFB144804F0A3FD14485B
:1019500004F0A0FD00F01CFB124804F09BFD0022E7
:10196000002301930293039304930593541CE4B260
:101970000D4901A804F096FD01A8FFF7E7F9C1B2EF
:1019800001A800F035FB01A9084804F00FFD4FF451
:101990007A7001F08DFB2246E2E700BF88760008EE
:1019A00098760008A8760008B8760008C476000883
:1019B00070B592B04022002102A8FFF74DFAFFF760
:1019C00075FE0A2004F0FCF94FF47A7004F0F8F97F
:1019D0004022002102A8FFF73FFA294D01220421ED
:1019E000284602F00EFF274C00262680322004F005
:1019F000E7F932460421284602F003FF248807EE67
:101A0000904AF8EE677A17EE900AFEF745FD00223D
:101A10001D4BFEF799FD18A3D3E90023FEF7DCFB6D
:101A2000FEF7C4FF07EE900ABCEEE77A17EE103A15
:101A30009BB2C3EB431103EB8101CA0092B29FED4D
:101A4000137A27EE877A07EE902AF8EEE77A77EE98
:101A5000677AFCEEE77A17EE902A92B2009222465D
:101A60000B4902A804F01EFD02A90A4804F09EFCDE
:101A7000AAE700BFAFF30080000000000008494063
:101A800000040048B23B00200000B03F00007A4450
:101A9000C8760008C4760008034B0360034B0B6054
:101AA00080231360704700BFB83D0020B83B002082
:101AB00070B58EB00F4C07AD26460FCE0FC596E819
:101AC000070085E80700002107A804F043F90A4B46
:101AD00018606D461C340FCC0FC594E8070085E8EC
:101AE00007000021684604F035F9044B18600EB079
:101AF00070BD00BF30760008384C00203C4C002000
:101B0000F0B589B0002403940494059406940794D6
:101B1000474BDA6C42F00402DA64DA6C02F0040239
:101B20000092009ADA6C42F00102DA64DA6C02F098
:101B300001020192019ADA6C42F00202DA64DB6C73
:101B400003F002030293029B224640F681014FF00C
:101B5000904002F056FE374D224641F224012846BD
:101B600002F04FFE40F6810303930126049605948C
:101B7000069403A94FF0904002F072FD08230393EE
:101B80000494059403A94FF0904002F069FD1023DE
:101B90000393294B0493059403A94FF0904002F05E
:101BA0005FFD40230393254F0497059403A94FF04D
:101BB000904002F055FD022303930497059403A976
:101BC000284602F04DFD04230393049605960694DF
:101BD00003A9284602F044FD4FF481530393049671
:101BE0000594069403A9284602F03AFD18230393AE
:101BF0000494059403A9284602F032FD22460521EB
:101C0000072002F0FBFF072003F02CF822460521F5
:101C10000A2002F0F3FF0A2003F024F822460521EF
:101C2000172002F0EBFF172003F01CF809B0F0BDFD
:101C300000100240000400480000211000001110B4
:101C400008B51248124B0360124B436000238360B7
:101C50000122C260036143618361C361036201F0D9
:101C60009BFB50B90021094801F09CFD40B90021BF
:101C7000064801F0C5FD30B908BD00F0B5F8F1E740
:101C800000F0B2F8F3E700F0AFF8F5E7404C0020C1
:101C900000580040EC9C901010B588B000230393CE
:101CA00004930593069307930268144B9A4201D05C
:101CB00008B010BD124CE36C43F00203E364E36C24
:101CC00003F002030193019B4FF44063039312233B
:101CD000049301230593032306930423079303A985
:101CE000084802F0BDFCA36D43F48003A365A36D17
:101CF00003F480030293029BDAE700BF0058004020
:101D0000001002400004004830B5AFB0442200216A
:101D10001DA8FFF7A1F80024189419941A941B9495
:101D20001C9460252A4621466846FFF795F802F084
:101D3000FBFE1B4AD2F8903023F01803C2F8903013
:101D400014231D9301231F9323932494259502228A
:101D500027922893299328232A9307232B932C92A5
:101D60002D921DA801F01AFE0F2318930323199337
:101D70001A941B941C9404210DEB050002F02CF91D
:101D80008123009308940D94684602F0B1FA4FF451
:101D9000007002F0D9FE02F05BFC2FB030BD00BF36
:101DA0000010024008B501F061F9FFF7ADFF032212
:101DB0000021012003F084FA0A4B1860FFF7F0FCC1
:101DC000FFF79EFEFFF79AFD00F096FBFFF738FF46
:101DD00000F00CF8FFF7C4FCFFF76AFE03F0ACFF5D
:101DE000FEE700BF344C00207047000008B51048E3
:101DF000104B03604FF482734360002383604FF401
:101E0000E062C260036143614FF400728261182294
:101E1000C2610362436283620722C26203630823D2
:101E2000436303F00AF800B908BDFFF7DDFFFBE7E5
:101E30008C4C00200038004000B589B0002303938B
:101E400004930593069307930268144B9A4202D0B9
:101E500009B05DF804FB03F5EC339A6D42F480425F
:101E60009A659A6D02F480420192019ADA6C42F00E
:101E70000202DA64DB6C03F002030293029B4FF46C
:101E800060430393022304930323069305230793DC
:101E900003A9034802F0E4FBDAE700BF0038004082
:101EA0000004004800B583B00D4B1A6E42F00102E9
:101EB0001A661A6E02F001020092009A9A6D42F0C0
:101EC00080529A659B6D03F080530193019B002221
:101ED0000F216FF0010002F091FE03B05DF804FBEA
:101EE000001002407047FEE7FEE7FEE7FEE770479E
:101EF00008B501F0CBF803F0B1FE012801D004F0E1
:101F000061F908BD08B5022002F080FC08BD08B5E3
:101F1000102002F07BFC08BD08B5024802F0A0FDCD
:101F200008BD00BF344D002008B5024802F098FDFE
:101F300008BD00BF7C4D002008B5402002F066FCC3
:101F400008BD000010B5044C2046FFF773FC204686
:101F500000F06EFC10BD00BFC44D00200A4B0122F2
:101F60001A70A02119710A21597107219971074B23
:101F70001A7012221A7200225A7214229A722022A5
:101F8000DA7240221A737047F04C0020004D002096
:101F900010B500F054F8012000F03AFA4FF4FA704E
:101FA00001F086F8002000F0BDF8094C207800F020
:101FB000D1F8204600F026F9064800F077F90648E7
:101FC00000F0DEF80021084600F00DF910BD00BF5A
:101FD000F04C0020004D002080D2999008B5034BB2
:101FE0009872184600F062F908BD00BF004D00204D
:101FF00030B583B005460C460846FFF7EFFF0021D9
:102000000D2000F0E1F8074B188800231A4601461E
:1020100000F0D2F9044B1A682146284600F03CFA39
:1020200003B030BD680000206876000808B50821BC
:102030004FF0904002F0DEFB0128F8D008BD08B553
:10204000142001F035F8002201214FF0904002F0F9
:10205000D8FB322001F02CF8012211464FF09040BD
:1020600002F0CFFB142001F023F808BD08B54FF0B3
:10207000FF330A460146024802F037FF08BD00BFA1
:102080008C4C00202DE9F843054689469046541CA7
:10209000A4B2FFF7CBFF0F4E00224FF48051304621
:1020A00002F0AFFB0C4F384600F8015B4246494650
:1020B00004F070F921463846FFF7D8FF01224FF4AB
:1020C0008051304602F09DFB842D01D0FFF7AEFF1A
:1020D000BDE8F883000400480C3E002070B5961C53
:1020E0000E4C1A2323706070A01C04F053F9FFF704
:1020F0009DFF0B4D00224FF48051284602F081FBDA
:1021000031462046FFF7B2FF01224FF480512846A6
:1021100002F077FBFFF78AFF70BD00BF0C3E002086
:102120000004004800B583B002A901F8010D0122A6
:102130008020FFF7A7FF9DF807302BB1044B022248
:102140001A7003B05DF804FB014B01221A70F8E726
:102150000C3F002000B583B002A901F8010D044B2B
:10216000187001228A20FFF78DFF03B05DF804FB91
:102170000D3F0020014B1878704700BF0D3F002035
:1021800000B583B0FEF766F90DA3D3E90023FEF78F
:10219000DBF9FEF7EBFBC0F307438DF80430C0F327
:1021A00007238DF805308DF80600032201A986204B
:1021B000FFF768FF03B05DF804FB00BFAFF30080DA
:1021C0005F2491141DA6743F00B583B012308DF8C2
:1021D00004008DF80510022201A98E20FFF752FF9E
:1021E00003B05DF804FB00B583B08DF804008DF8F2
:1021F0000510022201A98F20FFF744FF03B05DF80C
:1022000004FB000010B582B004460078254B1B7813
:1022100098420CD123780F2B15D8DFE803F00B1B65
:102220001B2731141414141414141414143BFFF742
:1022300091FFEFE763788DF80430A3788DF80530CF
:10224000E3788DF80630032201A98B20FFF71AFFEF
:1022500002B010BD23798DF8043063798DF8053014
:10226000A2798DF80620104A1370ECE7E3798DF817
:102270000430237A8DF80530637A8DF80630E2E772
:10228000A37A8DF80430E37A8DF80530237B8DF83E
:102290000630D8E700238DF804308DF805308DF82E
:1022A0000630D0E70D3F00200B3F002010B582B074
:1022B000044600783F4B1B7898420CD123780F2BB3
:1022C00021D8DFE803F00B27273C522020202020D4
:1022D000202020202066FFF73DFFEFE763788DF890
:1022E0000030A3788DF80130E3788DF8023023793F
:1022F0008DF8033063798DF80430A3798DF80530BB
:10230000E3798DF80630072269468C20FFF7BAFE84
:1023100002B010BD237A8DF80030637A8DF8013059
:10232000A37A8DF80230E37A8DF80330237B8DF8A1
:10233000043000238DF805308DF80630E3E7637B29
:102340008DF80030A37B8DF80130E37B8DF80230EF
:10235000237C8DF80330637C8DF80430A37C8DF8EA
:102360000530E37C8DF80630CDE7237D8DF8003015
:10237000637D8DF80130A37D8DF80230E37D8DF80B
:10238000033000238DF804308DF805308DF80630C9
:10239000B9E700238DF800308DF801308DF8023058
:1023A0008DF803308DF804308DF805308DF8063047
:1023B000A9E700BF0D3F002010B582B0040A8DF8D8
:1023C00000408DF80100080A8DF802008DF8031016
:1023D000110A8DF804108DF805201A0A8DF80620D0
:1023E0008DF80730082269468D20FFF74BFE02B0BA
:1023F00010BD00B583B0030A8DF804308DF80500D8
:10240000022201A99720FFF73DFE03B05DF804FB0F
:1024100000B583B002A901F8010D01229620FFF753
:1024200031FE03B05DF804FB08B50A460146002002
:10243000FFF754FE08BD00B583B002A901F8040DF2
:102440000122A320FFF71EFE03B05DF804FB00008D
:1024500000B585B001908DF80C00000C030A8DF8D2
:102460000D308DF80E004FF6FF70FFF7C2FFFFF73B
:1024700081FE02280AD0032203A98320FFF702FE6F
:10248000044B04221A7005B05DF804FB0120FFF72D
:10249000D2FFF0E70C3F002000B583B00192FFF7B8
:1024A000C3FF0198FFF7D4FF03B05DF804FB000001
:1024B0000F49D1F8883043F47003C1F888300D4BD0
:1024C0001A6842F001021A60002098601A6822F02F
:1024D000A85222F410221A604FF48052DA601A686F
:1024E00022F480221A6098614FF000638B6070477D
:1024F00000ED00E00010024008B50B480B4B0360F4
:102500004FF4E133436000238360C36003610C2216
:1025100042618361C3610362436200F04CFD00B914
:1025200008BDFFF761FCFBE7C44D00200038014007
:1025300030B589B000230393049305930693079362
:1025400002682E4B9A4201D009B030BD044603F513
:1025500058431A6E42F480421A661A6E02F48042A0
:102560000192019ADA6C42F00202DA64DB6C03F049
:1025700002030293029BC0230393022504950323C5
:1025800006930723079303A91D4802F069F81D4825
:102590001D4B0360456000238360C360802202619D
:1025A00043618361C361036202F056F900BB154BBE
:1025B000E3669C621548164B0360022343601023B8
:1025C00083600023C3608022026143618361C36131
:1025D000036202F041F970B90C4BA3669C620022C1
:1025E0000521252002F00AFB252002F03BFBABE78A
:1025F000FFF7FAFBDBE7FFF7F7FBEDE700380140F9
:10260000000400487C4D002058000240344D00205A
:10261000440002400268136823F0C00313602023C3
:10262000436770470268136823F49073136002686D
:10263000936823F0010393602023836700230366DC
:102640007047000010B5846F202C43D1002943D07F
:10265000002A43D090F87030012B41D01346044635
:10266000012280F870204165A0F858300022C2672E
:1026700022228267C26E8AB11A49D162C26E1A4999
:102680001163C26E19495163C26E002191630168E2
:10269000426D2431C06E02F05BF990B9002084F8DD
:1026A00070002268136843F4807313602268936893
:1026B00043F0010393602268936843F04003936002
:1026C00009E01023E367002384F870302023636758
:1026D000012000E0022010BD0120FCE70120FAE704
:1026E0000220F8E793270008D3270008DF27000817
:1026F00038B50446416F856F03689A6812F0800F01
:1027000001D0212908D023689A6812F0400F30D0F8
:10271000222D17D000202DE09A6822F080029A60C6
:10272000806E10B102F04FF918B92046FFF772FF22
:10273000E9E7A06E02F0F6F92028F6D11023E3674E
:10274000032017E09A6822F040029A60E06E10B110
:1027500002F039F920B92046FFF764FF002009E0B4
:10276000E06E02F0DFF92028F5D11023E3670320A3
:1027700000E0002038BD08B501680A6822F0400278
:102780000A602022426700224266FFF74BF808BD2C
:10279000704708B5836A0268126812F0200F13D1DF
:1027A0000022A3F85A2019680A6822F480720A608D
:1027B00019688A6822F001028A6019688A6822F022
:1027C00040028A6020229A671846FFF7E1FF08BDA1
:1027D000704708B5806AFFF7FBFF08BD704738B542
:1027E000846A626FA56F23689B6813F0800F01D025
:1027F000212A0ED023689B6813F0400F01D0222DB0
:102800000ED0E36F43F01003E3672046FFF7E6FFC7
:1028100038BD0023A4F852302046FFF7FBFEE9E75D
:102820000023A4F85A302046FFF7FCFEE9E7000039
:1028300038B504460268D3691168906813F00F0533
:102840000CD113F0200F09D011F0200F06D0236E09
:10285000002B00F09380204698478FE0002D6FD02A
:1028600010F0010502D111F4907F69D013F0010F2F
:1028700007D011F4807F04D001201062E26F024380
:10288000E26713F0020F07D035B122680220106210
:10289000E26F42F00402E26713F0040F07D035B193
:1028A000226804201062E26F42F00202E26713F035
:1028B000080F09D011F0200F00D12DB12268082097
:1028C0001062E26F0243E267E26F002A56D013F013
:1028D000200F06D011F0200F03D0236E0BB120463D
:1028E0009847E26F23689B6813F0400F02D112F003
:1028F000080F1FD02046FFF795FE23689A6812F054
:10290000400F13D09A6822F040029A60E36E4BB1F8
:102910001D4A9A63E06E02F07BF878B3E06E836B39
:1029200098472BE02046FFF759FF27E02046FFF7A6
:1029300055FF23E02046FFF751FF0023E3671DE02A
:1029400013F4801F02D010F4800F0AD113F0800F0F
:102950000ED011F0800F0BD0636E7BB120469847EC
:102960000CE04FF480131362204600F055FB05E0A5
:1029700013F0400F02D011F0400F00D138BD2046B7
:10298000FFF7F9FEFAE700BF8D29000808B5806A55
:102990000023A0F85A30A0F85230FFF71FFF08BDFF
:1029A0002DE9F048044601688368026913434269CF
:1029B0001343C269134308689E4A024013430B60E5
:1029C0002268536823F44053E1680B435360A169C4
:1029D0002268994B9A4201D0236A1943936823F4E1
:1029E00030630B4393602368944A93421FD0944A08
:1029F000934230D0934A934246D08F4A934259D063
:102A000010258D4A934276D0E369B3F5004F00F06C
:102A1000ED80082D00F28981DFE815F049015F01A2
:102A20006901870174018701870187017E0102F531
:102A30005842D2F8882002F00302032A09D8DFE8BE
:102A400002F0020452060125DBE70425D9E7082538
:102A5000D7E71025D5E702F5E632D2F8882002F054
:102A60000C020C2A0ED8DFE802F0070D0D0D090D3F
:102A70000D0D400D0D0D0B000025C2E70425C0E72C
:102A80000825BEE71025BCE702F5E432D2F888201D
:102A900002F03002102A09D005D9202A27D0302A86
:102AA00006D10825ADE71AB90025AAE70425A8E74D
:102AB0001025A6E702F5C832D2F8882002F4406259
:102AC000B2F5806F0BD007D9B2F5006F11D0B2F517
:102AD000406F06D1082594E71AB9002591E704252F
:102AE0008FE710258DE702258BE7022589E7022570
:102AF00087E7022585E7082D00F21A81DFE815F047
:102B00000C00180114001801110018011801180117
:102B100009004FF4004008E001F010FB28B9002044
:102B2000D6E000F0E1FEF9E74748626802EB4203B5
:102B3000834200F2FF80B0EB023F00F2FD80082DDF
:102B400051D8DFE805F00550205030505050430078
:102B500001F0F4FA0025070E0602626850082B46C1
:102B600016EB000B47F1000C58466146FDF76EFF6F
:102B700003462846A3F54071344A914200F2DE80B4
:102B80002268D360A4E0560800252B46DFF8C0B0C9
:102B90004FF0000C1BEB06004CF10001FDF756FF57
:102BA00003462846E6E700F09FFE0025070E0602D2
:102BB000626850082B4616EB000B47F1000C584694
:102BC0006146FDF743FF03462846D3E75008002738
:102BD00000252B4610F5000047F10001FDF736FFF8
:102BE00003462846C6E701200023C3E7082D5BD82B
:102BF000DFE805F005303B5A465A5A5A510001F0B9
:102C00009DFA6268530803EB4003B3FBF2F39BB2F7
:102C10000020A3F110014FF6EF72914200F2908074
:102C20009AB222F00F02C3F3420313432268D36027
:102C30004EE000BFF369FFEF008000400038014024
:102C400000440040004800400024F400FFFC0F0056
:102C5000000024F401F084FA6268530803EB400397
:102C6000B3FBF2F39BB20020D3E76268530803F191
:102C7000F47303F59043B3FBF2F39BB20020C8E773
:102C800000F032FE6268530803EB4003B3FBF2F33B
:102C90009BB20020BDE76268530803F58033B3FBA5
:102CA000F2F39BB20020B4E701200023B1E701F06A
:102CB00045FA636800EB5302B2FBF3F292B20020D4
:102CC000A2F110014FF6EF7399423BD82368DA6006
:102CD000002222666266BDE8F08801F041FA63686E
:102CE00000EB5302B2FBF3F292B20020E8E7636814
:102CF0005A0802F5740202F51052B2FBF3F292B2D6
:102D00000020DDE700F0F0FD636800EB5302B2FB4A
:102D1000F3F292B20020D3E763685A0802F500424A
:102D2000B2FBF3F292B20020CAE701200022C7E70B
:102D30000120CDE70120CBE70120C9E70120C7E74B
:102D40000120C5E70120C3E7436A13F0010F06D055
:102D50000268536823F40033816A0B435360436A6B
:102D600013F0020F06D00268536823F48033C16A5F
:102D70000B435360436A13F0040F06D00268536894
:102D800023F48023016B0B435360436A13F0080F55
:102D900006D00268536823F40043416B0B43536031
:102DA000436A13F0100F06D00268936823F480532F
:102DB000816B0B439360436A13F0200F06D00268C7
:102DC000936823F40053C16B0B439360436A13F081
:102DD000400F0AD00268536823F48013016C0B4340
:102DE0005360036CB3F5801F0BD0436A13F0800F60
:102DF00006D00268536823F40023816C0B435360B0
:102E000070470268536823F4C003416C0B4353605E
:102E1000EBE72DE9F04105460F4616469846069C1D
:102E20002B68DB6937EA03030CBF01230023B3429D
:102E30001CD1B4F1FF3FF3D000F034F9A0EB08004F
:102E4000A04201D8002CEBD12A68136823F4D07378
:102E500013602A68936823F00103936020236B6753
:102E6000AB67002385F87030032000E00020BDE848
:102E7000F0812DE9F04182B01E46436F202B55D1E1
:102E800004460D469046002955D0002A55D090F8AA
:102E90007030012B53D0012380F870300023C367BA
:102EA0002123436700F0FEF80746A4F85080A4F8F9
:102EB0005280A368B3F5805F02D04FF0000813E0A2
:102EC000236913B14FF000080EE0A84600250BE07F
:102ED00038F8023B2268C3F308031385B4F8523074
:102EE000013B9BB2A4F85230B4F852309BB273B19C
:102EF00000963B46002280212046FFF78AFF00BB58
:102F0000002DE5D0236815F8012B1A85E6E7009619
:102F10003B46002240212046FFF77BFF034690B945
:102F200020226267002284F8702000E00223184605
:102F300002B0BDE8F0810123F9E70123F7E702239E
:102F4000F5E70323F3E70323F1E730B583B0044645
:102F50000023C36700F0A6F8054623681B6813F03A
:102F6000080F0CD123681B6813F0040F15D1202320
:102F70006367A367002084F8700003B030BD6FF072
:102F80007E430093034600224FF400112046FFF7D2
:102F900040FF0028E6D00320EFE76FF07E43009368
:102FA0002B4600224FF480012046FFF732FF002815
:102FB000DDD00320E1E768B310B50446436F03B3E7
:102FC000242363672268136823F0010313602046FB
:102FD000FFF7E6FC012813D0636ABBB92268536887
:102FE00023F4904353602268936823F02A0393608C
:102FF0002268136843F0010313602046FFF7A5FF22
:1030000010BD80F87030FFF793FAD9E72046FFF73C
:103010009BFEE3E70120704770470000104B1B68E0
:103020000BB90120704710B504464FF47A70B0FB1D
:10303000F3F30C4A1068B0FBF3F001F021FE68B91D
:103040000F2C01D901200AE0002221464FF0FF3069
:1030500001F0D4FD044B1C60002000E0012010BDF5
:10306000700000206C0000207400002010B50320C8
:1030700001F0B2FD0F20FFF7D1FF10B1012420466F
:1030800010BD0446FEF70EFFF9E70000034A13687F
:10309000034909680B441360704700BF444E002089
:1030A00070000020014B1868704700BF444E00209C
:1030B00038B50446FFF7F6FF0546B4F1FF3F02D0EE
:1030C000044B1B681C44FFF7EDFF401BA042FAD3E2
:1030D00038BD00BF7000002003689A6912F0020F2B
:1030E00001D000229A6203689A6912F0010F03D19D
:1030F0009A6942F001029A61704770B4039E0568B4
:103100006868740D04F4806444F07F7444F45834A7
:1031100044F47F7444F0030420EA0400C1F309017D
:1031200041EA0241194331430143696070BC704771
:1031300070B504460D46164603689B6913F0100FE0
:103140001CD023689A6912F0200F19D1B5F1FF3F06
:10315000F7D0FFF7A7FF801BA84201D8002DF0D1C0
:10316000636C43F020036364202384F84130002320
:1031700084F8423084F84030012020E000201EE036
:103180001022DA6123682025DD612046FFF7A4FFC5
:103190002268536823F0FF7323F48B3323F4FF7307
:1031A00023F001035360636C43F00403636484F809
:1031B0004150002384F8423084F84030012070BD33
:1031C00070B504460D46164623689B6913F0020F3E
:1031D0001DD1324629462046FFF7AAFFC8B9B5F1EE
:1031E000FF3FF1D0FFF75EFF801BA84201D8002D02
:1031F000EAD1636C43F020036364202384F84130F8
:10320000002384F8423084F84030012000E00020A0
:1032100070BD0120FCE7F8B505460F4616461C4672
:103220002B689B6937EA03030CBF01230023B342D9
:1032300018D1B4F1FF3FF3D0FFF734FF069BC01A5B
:10324000A04201D8002CEBD16B6C43F020036B64DF
:10325000202385F84130002385F8423085F840303E
:10326000012000E00020F8BD70B582B0044616468B
:103270001D46184B00934FF08073EAB2FFF73DFFF5
:10328000079A06992046FFF79BFFE8B9012D0ED15A
:103290002368F6B29E62079B0093069B0022802162
:1032A0002046FFF7B8FF034678B101230DE02368FD
:1032B000320A9A62079A06992046FFF781FF38B9C9
:1032C0002368F6B29E62E6E70123184602B070BD9D
:1032D0000123FAE70020008070B582B0044616464C
:1032E0001D46184B00930023EAB2FFF706FF079A2A
:1032F00006992046FFF764FFE8B9012D0ED1236837
:10330000F6B29E62079B0093069B00224021204656
:10331000FFF781FF034678B101230DE02368320AED
:103320009A62079A06992046FFF74AFF38B9236840
:10333000F6B29E62E6E70123184602B070BD012393
:10334000FAE700BF0020008070B505460C4616461F
:103350002B689B6913F0200F1AD13246214628466C
:10336000FFF7E6FEB0B9FFF79DFE801BA04201D833
:10337000002CEDD16B6C43F020036B64202385F8A7
:103380004130002385F8423085F84030012070BD7F
:103390000020FCE70120FAE7002859D010B50446C8
:1033A00090F84130002B43D0242384F84130226828
:1033B000136823F0010313606368226823F07063CD
:1033C00013612268936823F400439360E368012B40
:1033D00033D0A368226843F404439360E368022B6C
:1033E00031D02268536843F0007343F400435360C4
:1033F0002268D36823F40043D360236962691343CE
:10340000A169226843EA0123D360E369216A226843
:103410000B4313602268136843F00103136000201C
:103420006064202384F84130206384F8420010BD9A
:1034300080F84030FEF730FCB6E7A368226843F41A
:1034400000439360CAE723684FF400625A60C8E7FC
:10345000012070472DE9F04782B0BDF82C7090F83C
:103460004150EDB2202D40F0BA800A9CDCB1D7B1BA
:1034700090F84040012C00F0B780984691460D46E8
:1034800004464FF0010A80F840A0FFF70BFE064605
:103490000090192352464FF400412046FFF7BBFE2F
:1034A00030B101239CE04FF400734364012397E0A3
:1034B000212384F84130402384F8423000236364A0
:1034C0000A9A62626785636301960C9B0093434688
:1034D0004A4629462046FFF7C7FE70B9638D9BB266
:1034E000FF2B0FD9FF222285002300934FF080731A
:1034F00029462046FFF701FE21E0002384F84030F2
:1035000053466DE0628D92B22285002300934FF006
:103510000073D2B229462046FFF7EFFD0FE0628D1F
:1035200092B22285002300934FF00073D2B2294655
:103530002046FFF7E2FD638D9BB2002B32D032466E
:103540000C992046FFF73CFE00284FD1626A2368A1
:1035500012789A62636A01336362638D013B9BB2A6
:103560006385238D013B9BB22385628D92B2002A35
:10357000E1D0002BDFD100960C9B00228021204659
:10358000FFF749FEA0BB638D9BB2FF2BC7D9FF227B
:103590002285002300934FF0807329462046FFF7D1
:1035A000ACFDC8E732460C992046FFF7CDFE034636
:1035B00000BB22682021D1612068426822F0FF729E
:1035C00022F48B3222F4FF7222F00102426084F86E
:1035D0004110002284F8422084F8402000E00223B9
:1035E000184602B0BDE8F0870223F9E70123F7E7A8
:1035F0000123F5E70123F3E72DE9F04782B0BDF899
:103600002C7090F84150EDB2202D40F0BC800A9C07
:10361000DCB1D7B190F84040012C00F0B980984659
:1036200091460D4604464FF0010A80F840A0FFF78E
:1036300039FD06460090192352464FF400412046BA
:10364000FFF7E9FD30B101239EE04FF400734364BE
:10365000012399E0222384F84130402384F842304A
:10366000002363640A9A62626785636301960C9B18
:10367000009343464A4629462046FFF72DFE70B97F
:10368000638D9BB2FF2B0FD9FF222285444B009301
:103690004FF0807329462046FFF72FFD21E00023DD
:1036A00084F8403053466FE0628D92B222853C4BE5
:1036B00000934FF00073D2B229462046FFF71DFD5C
:1036C0000FE0628D92B22285002300934FF00073C9
:1036D000D2B229462046FFF710FD638D9BB2002B26
:1036E00034D000960C9B002204212046FFF793FD66
:1036F00000284FD123685A6A636A1A70636A0133DB
:103700006362238D013B9BB22385628D013A92B2A5
:103710006285628D92B2002ADFD0002BDDD1009647
:103720000C9B002280212046FFF775FDA0BB638D16
:103730009BB2FF2BC5D9FF222285002300934FF0B7
:10374000807329462046FFF7D8FCC6E732460C991D
:103750002046FFF7F9FD034600BB22682021D16116
:103760002068426822F0FF7222F48B3222F4FF724A
:1037700022F00102426084F84110002284F84220C5
:1037800084F8402000E00223184602B0BDE8F0872C
:103790000223F9E70123F7E70123F5E70123F3E724
:1037A0000024008090F84130DBB2202B24D190F827
:1037B0004030012B22D0012380F84030242380F8B0
:1037C00041300268136823F0010313600268136834
:1037D00023F4805313600268136819431160026870
:1037E000136843F001031360202380F84130002365
:1037F00080F840301846704702207047022070471A
:1038000090F84130DBB2202B22D190F84030012BD0
:1038100020D0012380F84030242380F84130026812
:10382000136823F0010313600268136823F47063C4
:1038300043EA012111600268136843F00103136039
:10384000202380F84130002380F84030184670472C
:10385000022070470220704730B583B00546204BE8
:103860009B6D13F0805F0BD001F066F9B0F5007F1F
:1038700017D0802D1FD82DD0702D2DD000211BE00A
:10388000174CA36D43F08053A365A36D03F08053E1
:103890000193019B01F050F9A36D23F08053A365C0
:1038A000E4E7802D03D9A02D03D9022104E00021F3
:1038B00002E0012100E003210A4A136823F0070314
:1038C0000B431360136803F007038B4206D00120FB
:1038D00003B030BD0221EFE70121EDE70020F7E75B
:1038E0000010024000200240284A9368D26802F08B
:1038F000030213F00C030AD00C2B06D0042B1FD0AC
:10390000082B20D00020024610E0012AF6D11F4AE1
:10391000126812F0080F0CD11C4AD2F89420C2F39E
:1039200003221B4951F8222043B100200C2B0DD05B
:103930007047164A1268C2F30312F2E71046F5E721
:1039400014480022F2E714480022EFE70F4BDB682F
:1039500003F00303022B15D0032B15D00B4BD868B3
:10396000C0F302100130D968C1F3062102FB01F255
:10397000B2FBF0F2D868C0F3416001304000B2FB06
:10398000F0F0D5E7034AE9E7034AE7E70010024011
:10399000007700080024F40000127A00002800F0EC
:1039A0000883F0B583B00446AD4B9D6805F00C0567
:1039B000DE6806F00306036813F0100F5ED0E5B171
:1039C0000C2D18D0A369002B00F0B880A44A13680E
:1039D00043F001031360FFF765FB0746A04B1B682C
:1039E00013F0020F40F09780FFF75CFBC01B02282A
:1039F000F4D90323E9E2012EE4D1994B1B6813F0BB
:103A0000020F03D0A369002B00F0D682206A944BEA
:103A10001B6813F0080F5ED0914B1B6803F0F00396
:103A200098425FD9FFF718FF002840F0C7828C4BFF
:103A30001A6842F008021A601A6822F0F002216A3D
:103A40000A431A605A6822F47F42E16942EA01227D
:103A50005A60FFF749FF824B9B68C3F30313814A07
:103A6000D35C03F01F03D8407F4B18607F4B18686E
:103A7000FFF7D4FA0346002840F0A782236813F02A
:103A8000010F7AD0082D6FD00C2D6BD06368B3F581
:103A9000803F00F09180B3F5A02F00F09380704B31
:103AA0001A6822F480321A601A6822F480221A609E
:103AB0006368002B00F09380FFF7F4FA0746684B29
:103AC0001B6813F4003F58D1FFF7ECFAC01B6428C1
:103AD000F5D9032379E2624BD3F894301B0903F044
:103AE000F0039DE75E4B1A6842F008021A601A68FC
:103AF00022F0F002216A0A431A605A6822F47F42D7
:103B0000E16942EA01225A60206AFFF7A5FE002817
:103B10009FD0012359E2524B1A6842F008021A6002
:103B20001A6822F0F002216A0A431A605A6822F4E5
:103B30007F42E16942EA01225A609FE7484A1368DE
:103B400023F001031360FFF7ADFA0746444B1B68EF
:103B500013F0020F92D0FFF7A5FAC01B0228F5D987
:103B6000032332E2032E91D13D4B1B6813F4003F37
:103B700003D06368002B00F02382236813F0020F48
:103B80004FD0042D3CD00C2D38D0E368002B78D0DA
:103B9000334A136843F480731360FFF783FA0646D1
:103BA0002F4B1B6813F4806F62D1FFF77BFA801BE9
:103BB0000228F5D9032308E2294A136843F4803325
:103BC000136075E703F18043A3F53C331A6842F4B0
:103BD00080221A601A6842F480321A6068E7FFF7A0
:103BE00061FA07461E4B1B6813F4003FC5D0FFF770
:103BF00059FAC01B6428F5D90323E6E1022EC4D18B
:103C0000174B1B6813F4806F03D0E368002B00F0A0
:103C1000D981134A536823F0F853216943EA0163B9
:103C20005360236813F0080F56D06369002B3CD013
:103C30000B4AD2F8943043F00103C2F89430FFF7F6
:103C400031FA0646064BD3F8943013F0020F43D1F5
:103C5000FFF728FA801B0228F4D90323B5E100BF3F
:103C600000100240E87600086C000020740000207C
:103C7000B64A536823F0F853216943EA016353605D
:103C8000CFE7B24A136823F480731360FFF70AFA90
:103C90000646AE4B1B6813F4806FC2D0FFF702FAE2
:103CA000801B0228F5D903238FE1A84AD2F894306B
:103CB00023F00103C2F89430FFF7F4F90646A34B52
:103CC000D3F8943013F0020F06D0FFF7EBF9801B06
:103CD0000228F4D9032378E1236813F0040F7AD083
:103CE0009A4B9B6D13F0805F0BD1984B9A6D42F00D
:103CF00080529A659B6D03F080530193019B0126CE
:103D000000E00026924B1B6813F4807F26D0A36846
:103D1000012B37D0052B3DD08C4BD3F8902022F0CF
:103D20000102C3F89020D3F8902022F00402C3F8D7
:103D30009020A368002B3BD0FFF7B4F90746834BD4
:103D4000D3F8903013F0020F44D1FFF7ABF9C01B4A
:103D500041F288339842F2D9032336E17C4A136852
:103D600043F480731360FFF79DF90746784B1B6897
:103D700013F4807FCBD1FFF795F9C01B0228F5D94A
:103D8000032322E1714AD2F8903043F00103C2F8D4
:103D90009030CEE76D4BD3F8902042F00402C3F888
:103DA0009020D3F8902042F00102C3F89020C0E7A1
:103DB000FFF778F90746654BD3F8903013F0020F00
:103DC00008D0FFF76FF9C01B41F288339842F2D94F
:103DD0000323FAE0E6B9236813F0200F35D0636AB5
:103DE000E3B15A4AD2F8983043F00103C2F8983050
:103DF000FFF758F90646554BD3F8983013F0020FE9
:103E000023D1FFF74FF9801B0228F4D90323DCE00C
:103E10004E4A936D23F080539365DCE74B4AD2F80A
:103E2000983023F00103C2F89830FFF73BF90646BB
:103E3000464BD3F8983013F0020F06D0FFF732F953
:103E4000801B0228F4D90323BFE0A36A002B00F0F3
:103E5000BB800C2D6FD0022B23D03C4B1A6822F074
:103E600080721A601B6813F0006F04D1374AD36860
:103E700023F00303D360354AD36823F0887323F417
:103E80008033D360FFF70EF90446304B1B6813F004
:103E9000007F4ED0FFF706F9001B0228F5D9032357
:103EA00093E02A4A136823F080731360FFF7FAF84F
:103EB0000546264B1B6813F0007F06D0FFF7F2F88B
:103EC000401B0228F5D903237FE0204AD36821490B
:103ED0001940E36A206B013843EA0013606B43EA40
:103EE0000023E06B4008013843EA4053206C40084F
:103EF000013843EA4063A06B43EAC0630B43D360DD
:103F0000136843F080731360D36843F08073D36009
:103F1000FFF7C8F804460D4B1B6813F0007F06D16D
:103F2000FFF7C0F8001B0228F5D903234DE000235A
:103F30004BE0002349E0012B4AD0044BDB6803F03F
:103F40000301E26A914207D001233EE000100240E3
:103F5000007000408C809D0103F07002216B0139DC
:103F6000B2EB011F01D001232FE003F4FE42616B8D
:103F7000B2EB012F01D0012327E003F07842A16BBF
:103F8000B2EBC16F01D001231FE003F4C001E26B6B
:103F90005208013AB1EB425F01D0012315E003F072
:103FA000C063226C5208013AB3EB426F12D0012376
:103FB0000BE0012318467047012306E0012304E0CB
:103FC000012302E0012300E00023184603B0F0BD06
:103FD0000123FAE70023F8E7002800F09B8070B582
:103FE00004464E4B1B6803F007038B420CD24B4A2E
:103FF000136823F007030B431360136803F00703F0
:104000008B4201D0012070BD0D46236813F0010FD3
:1040100039D06368032B09D0022B26D063BB404AFA
:10402000126812F0020F06D10120ECE73C4A126838
:1040300012F0007F70D03A498A6822F003021343DD
:104040008B60FFF72FF80646354B9B6803F00C0397
:104050006268B3EB820F16D0FFF724F8801B41F2A1
:1040600088339842F0D90320CDE72D4A126812F424
:10407000003FE0D10120C6E7294A126812F4806FA0
:10408000D9D10120BFE7236813F0020F06D0244ADC
:10409000936823F0F003A1680B4393601F4B1B68E8
:1040A00003F00703AB420CD91C4A136823F0070343
:1040B0002B431360136803F00703AB4201D00120C8
:1040C000A1E7236813F0040F06D0154A936823F480
:1040D000E063E1680B439360236813F0080F07D097
:1040E0000F4A936823F46053216943EAC103936044
:1040F000FFF7FAFB0A4B9B68C3F30313094AD35C2F
:1041000003F01F03D840084B1860084B1868FEF7EF
:1041100085FF78E701207047012074E70020024006
:1041200000100240E87600086C00002074000020B7
:10413000014B1868704700BF6C00002008B5FFF7FE
:10414000F7FF054B9B68C3F30223044AD35C03F0DB
:104150001F03D84008BD00BF00100240F8760008D9
:1041600008B5FFF7E5FF054B9B68C3F3C223044A7C
:10417000D35C03F01F03D84008BD00BF001002400D
:10418000F8760008F8B5594BDB6813F0030F18D028
:10419000564BDB6803F003030268934202D001250B
:1041A0002846F8BD002A00F09F80504BDB68C3F31F
:1041B000021301334268934201D00125F0E7002544
:1041C0001AE00368022B58D0032B5DD0012B01D0DD
:1041D00001250FE0454A126812F0020F60D0434DEE
:1041E000EA6822F073024468013C43EA0413134373
:1041F000EB600025002DD3D10F4604463B4A1368DF
:1042000023F080631360FEF74DFF0646374B1B68B3
:1042100013F0006F05D0FEF745FF801B0228F5D98B
:104220000325002DBCD1002F3CD130490B6923F070
:10423000784323F4FE43A068E268D20642EA0022F3
:1042400013430B61294A136843F080631360FEF740
:1042500029FF0646254B1B6813F0006F05D1FEF7BA
:1042600021FF801B0228F5D90325002D98D11F4A74
:104270001369A1690B43136192E71C4A126812F497
:10428000806FACD10125B5E7184A126812F4003FDF
:10429000A5D1164A126812F4802FA0D10125A9E7F2
:1042A0000125A7E7012F0FD01048026922F0C06254
:1042B00022F4FE42A16863695B08013B5B0643EAA6
:1042C000012313430361BDE70848026922F4C002D9
:1042D00022F4FE42A16823695B08013B5B0543EAC7
:1042E000012313430361ADE7012559E700100240A4
:1042F0002DE9F04182B00446036813F4006F26D024
:10430000436CB3F5000F06D0B3F5400F1DD09BB141
:10431000012637461DE0BD4AD36843F48033D3609D
:104320000027BA4AD2F8883023F44003616C0B436B
:10433000C2F8883000260CE000210430FFF722FF8D
:1043400007460028EDD0064603E00027E9E70026EF
:104350003746236813F4003F6BD0AC4B9B6D13F0D2
:10436000805F4CD1A94B9A6D42F080529A659B6D4B
:1043700003F080530193019B4FF00108A44A136896
:1043800043F480731360FEF78DFE0546A04B1B6857
:1043900013F4807F05D1FEF785FE401B0228F5D976
:1043A0000327002F40D1994BD3F8903013F440737A
:1043B00015D0E26D9A4212D0944AD2F8903023F48C
:1043C0004073D2F8901041F48031C2F89010D2F8C6
:1043D000901021F48031C2F89010C2F8903013F0A0
:1043E000010F0FD1002F40F0F780884AD2F89030AB
:1043F00023F44073E16D0B43C2F8903015E04FF0A9
:104400000008BBE7FEF74EFE0546804BD3F8903020
:1044100013F0020FE6D1FEF745FE401B41F2883350
:104420009842F2D90327DDE73E46B8F1000F40F08D
:10443000D580236813F0010F08D0744AD2F8883071
:1044400023F00303216A0B43C2F88830236813F07A
:10445000020F08D06D4AD2F8883023F00C03616A4D
:104460000B43C2F88830236813F0040F08D0674A62
:10447000D2F8883023F03003A16A0B43C2F88830A9
:10448000236813F0200F08D0604AD2F8883023F454
:104490004063E16A0B43C2F88830236813F4007F5D
:1044A00008D05A4AD2F8883023F44023E16B0B43FA
:1044B000C2F88830236813F4806F08D0534AD2F8CA
:1044C000883023F44013216C0B43C2F888302368F2
:1044D00013F0400F08D04D4AD2F8883023F44053EF
:1044E000216B0B43C2F88830236813F0800F08D08B
:1044F000464AD2F8883023F44043616B0B43C2F83C
:104500008830236813F4807F08D0404AD2F888307E
:1045100023F44033A16B0B43C2F88830236813F4B3
:10452000005F0FD0394AD2F8883023F04063A16C85
:104530000B43C2F88830A36CB3F1006F54D0B3F1D1
:10454000806F56D0236813F4002F0FD02F4AD2F873
:10455000883023F04063E16C0B43C2F88830E36C91
:10456000B3F1006F4DD0B3F1806F53D0236813F4D3
:10457000802F0FD0254AD2F8883023F04063216D78
:104580000B43C2F88830236DB3F1006F4AD0B3F10A
:10459000806F4CD0236813F4804F0CD01B4AD2F8A4
:1045A000883023F04053616D0B43C2F88830636D4F
:1045B000B3F1805F43D0236813F4004F08D0134A4F
:1045C000D2F8883023F08043A16D0B43C2F88830C5
:1045D000304602B0BDE8F0813E4626E70B4A936DB7
:1045E00023F08053936524E7D36843F48013D360AA
:1045F000A8E70121201DFFF7C5FD0028A2D006462F
:10460000A0E7D36843F48013D360AFE70010024003
:10461000007000400121201DFFF7B4FD0028A5D047
:104620000646A3E7D36843F48013D360B2E70121C1
:10463000201DFFF7A7FD0028ACD00646AAE70221FF
:10464000201DFFF79FFD0028B5D00646B3E700BF49
:10465000024A136843F004031360704700100240DD
:10466000F0B482B0002336E0042400E00024B4401B
:104670003C4302355B4E46F825405B4C2568D443ED
:1046800004EA05064F6817F4803F01D042EA0506A8
:10469000554D2E606D6804EA05064F6817F4003F1B
:1046A00001D042EA0506504D6E60AD6804EA050689
:1046B0004F6817F4801F01D042EA05064A4DAE60EC
:1046C000ED682C404E6816F4001F01D042EA050444
:1046D000454AD46001330A6832FA03F47ED00124DB
:1046E0009C402240F6D04D68022D01D0122D10D1F1
:1046F000DE08083650F826C003F00705AF000F2586
:10470000BD402CEA050C0D69BD4045EA0C0540F89A
:10471000265006685F000325BD40ED4305EA060C00
:104720004E6806F00306BE4046EA0C0606604E6878
:1047300006F1FF3CBCF1010F03D9112E01D0122E5E
:1047400010D1866805EA060CCE68BE4046EA0C0623
:104750008660466826EA04044E68C6F300169E404A
:1047600026434660C46825408C68BC402C43C46026
:104770004C6814F0805FADD01C4C256E45F00105EF
:104780002566246E04F001040194019C9D08AE1C72
:10479000144C54F8267003F00304A6000F24B44010
:1047A00027EA0407B0F1904F3FF460AF104CA042ED
:1047B0000ED004F58064A0420CD004F58064A042C1
:1047C0000AD004F58064A0423FF44EAF07244EE7C0
:1047D00001244CE702244AE7032448E702B0F0BC76
:1047E000704700BF0000014000040140001002407B
:1047F000000400480369194201D1002070470120DC
:1048000070470AB9816270478161704708B5054BEE
:104810005B69034200D108BD024B5861FCF7CCFF35
:10482000F9E700BF0004014070B4446C04F01C05BB
:10483000066C0124AC407460046863608368102BCC
:1048400005D0036899600368DA6070BC704703683C
:104850009A600368D960F8E7002869D010B403466D
:104860000168344A914245D8334A0A443349A1FB8E
:104870000212120992004264314A0264022283F851
:1048800025201868016821F4FF4121F070019A6821
:10489000DC6822431C6922435C6922439C692243F1
:1048A000DC6922431C6A22430A4302609A68B2F51B
:1048B000804F15D0196C224A914226D0214A1168A6
:1048C000586C00F01C040F20A04021EA0001116088
:1048D000116858685C6C04F01C04A040014311602E
:1048E0000020D863012283F8252083F824005DF896
:1048F000044B7047144A0A441049A1FB02121209E2
:1049000092004264114A0264B8E7A8321168586CF8
:1049100000F01C040F20A04021EA00011160116882
:1049200058685C6C04F01C04A04001431160D7E798
:104930000120704707040240F8FFFDBFCDCCCCCC6E
:1049400000000240A8040240F8FBFDBF0004024042
:1049500038B590F82440012C33D0012480F824404D
:1049600090F82540E4B2012C04D0002380F82430D4
:10497000022038BD0446022084F825000020E063B0
:104980002568286820F0010028602046FFF74CFFCA
:10499000236B5BB12268136843F00E031360226837
:1049A000136843F0010313600020E2E722681368F4
:1049B00023F0040313602268136843F00A031360B2
:1049C000EDE70220D5E790F82530DBB2022B06D0C8
:1049D0000423C363002380F8243001207047026859
:1049E000136823F00E0313600268136823F00103B9
:1049F0001360436C03F01C03016C012202FA03F301
:104A00004B6080F82520002380F82430184670473A
:104A100008B590F82530DBB2022B03D00423C36322
:104A2000012008BD0268136823F00E0313600268BA
:104A3000136823F001031360436C03F01C03016C43
:104A4000012202FA03F34B6080F82520002380F84E
:104A50002430836B13B198470020E2E70020E0E7A1
:104A600038B5036C196804682568436C03F01C03AF
:104A700004229A400A4215D015F0040F12D0236880
:104A800013F0200F03D1236823F004032360436C49
:104A900003F01C02016C042393404B60036B03B1D1
:104AA000984738BD02229A400A421CD015F0020FE6
:104AB00019D0236813F0200F06D1236823F00A03CE
:104AC0002360012380F82530436C03F01C02016C45
:104AD000022393404B60002380F82430C36A002BEC
:104AE000DFD09847DDE7082202FA03F30B42D8D063
:104AF00015F0080FD5D0236823F00E032360436C14
:104B000003F01C03016C012202FA03F34B60C26341
:104B100080F82520002380F82430436B002BC0D080
:104B20009847BEE7C06B7047024A136843F480732E
:104B30001360704700700040024B186800F4C060BA
:104B4000704700BF00700040B0F5007F0FD01F4BD2
:104B50001B6803F4C063B3F5806F34D01B4A13683D
:104B600023F4C06343F48063136000207047174B45
:104B70001B6803F4C063B3F5007F22D0134A1368A7
:104B800023F4C06343F400731360114B1A6832239B
:104B900003FB02F30F4AA2FB03239B0C013300E04B
:104BA000013B0A4A526912F4806F01D0002BF7D101
:104BB000064B5B6913F4806F01D10020704703201E
:104BC0007047002070470020704700BF0070004011
:104BD0006C00002083DE1B43074AD36823F4E063A4
:104BE0001B041B0C000200F4E060184340F0BF609F
:104BF00040F40030D060704700ED00E030B4174B57
:104C0000DB68C3F30223C3F10704042C28BF042488
:104C10001D1D062D18D9033B4FF0FF3505FA04F48E
:104C200021EA0401994005FA03F322EA0303194338
:104C300000280BDB0901C9B200F1604000F56140BA
:104C400080F8001330BC70470023E5E700F00F0048
:104C50000901C9B2024B1954F4E700BF00ED00E0AE
:104C600014ED00E0002807DB00F01F0240090123DB
:104C70009340024A42F82030704700BF00E100E054
:104C80000138B0F1807F0AD2064B5860064AF02105
:104C900082F823100020986007221A6070470120D4
:104CA000704700BF10E000E000ED00E0F8B50546F9
:104CB0000F4616461C462B689B6837EA03030CBF59
:104CC00001230023B34237D0B4F1FF3FF3D0FEF706
:104CD000E9F9069BC01AA04201D2002CEBD12A6848
:104CE000536823F0E00353606B68B3F5827F0BD009
:104CF000AB6AB3F5005F14D0012385F85D30002363
:104D000085F85C30032018E0AB68B3F5004F02D0A3
:104D1000B3F5806FECD12A68136823F04003136069
:104D2000E6E72A68136823F4005313602A681368BF
:104D300043F400531360DFE70020F8BDF8B50746E1
:104D40000C4615461E4602E0B6F1FF3F0BD13A680D
:104D500093682340AB423BD0B4F5C06FF4D1002D33
:104D6000F2D1137BF0E7FEF79DF9069BC01AB04223
:104D700001D2002EEBD13A68536823F0E003536070
:104D80007B68B3F5827F0BD0BB6AB3F5005F14D0AC
:104D9000012387F85D30002387F85C30032018E09A
:104DA000BB68B3F5004F02D0B3F5806FECD13A6821
:104DB000136823F040031360E6E73A68136823F4AE
:104DC000005313603A68136843F400531360DFE73D
:104DD0000020F8BD70B582B004460D46164600921C
:104DE0000B4600224FF4C051FFF7A8FFB8B9009658
:104DF0002B46002280212046FFF758FFB8B90096C5
:104E00002B4600224FF4C0612046FFF797FF034670
:104E100050B1236E43F020032366032304E0236E86
:104E200043F0200323660323184602B070BD236EAF
:104E300043F0200323660323F6E7002853D010B580
:104E400004460023836290F85D30002B40D002239B
:104E500084F85D302268136823F040031360E36830
:104E6000B3F5E06F39D90022B3F5706F04D0B3F514
:104E7000E06F01D00021A162216B21B9B3F5E06F91
:104E80002ED9022323636368A1680B4321690B4376
:104E900061690B43A16901F400710B43E1690B43A4
:104EA000216A0B43A06A216803430B60638B03F004
:104EB0000403616A0B43616B0B43E1680B43216898
:104EC00013434B6000202066012384F85D3010BD41
:104ED00080F85C30FCF7B0FFB9E74FF48052C3E7CD
:104EE00001232363CFE7012070472DE9F04182B011
:104EF00090F85C40012C00F0E4801E461546884680
:104F00000446012380F85C30FEF7CCF8074694F89D
:104F10005D20D2B2012A09D00220012384F85D303D
:104F2000002384F85C3002B0BDE8F081B8F1000FD6
:104F300000F0B980002D00F0B880032384F85D30C4
:104F400000232366C4F83880A587E5872364A4F886
:104F50004430A4F846302365E364A368B3F5004FFA
:104F60001CD023681A6812F0400F03D11A6842F06F
:104F700040021A60E368B3F5E06F33D963680BB1A0
:104F8000012D1BD1A26B23681288DA60A36B023358
:104F9000A363E38F013B9BB2E3870FE022681368B2
:104FA00043F480431360DCE7FEF77CF8C01BB0429B
:104FB00002D3B6F1FF3F7AD1002E7AD0E38F9BB2B5
:104FC000002B5BD023689A6812F0020FECD0A26B22
:104FD0001288DA60A36B0233A363E38F013B9BB2B9
:104FE000E387EBE763680BB1012D30D1E38F9BB210
:104FF000012B0BD9A26B23681288DA60A36B0233F2
:10500000A363E38F023B9BB2E38720E0A26B23689C
:1050100012781A73A36B0133A363E38F013B9BB236
:10502000E38714E0A36B1B781373A36B0133A363B3
:10503000E38F013B9BB2E38709E0FEF733F8C01B27
:10504000B04202D3B6F1FF3F35D1002E35D0E38F09
:105050009BB29BB12268936813F0020FEDD0E38FEF
:105060009BB2012BDED9A36B1B88D360A36B0233E9
:10507000A363E38F023B9BB2E387E8E73A463146FE
:105080002046FFF7A7FE08B120232366A36833B9A3
:1050900001932368DA6801929B680193019B236E58
:1050A0006BB9002039E7012037E7012035E70320FD
:1050B00033E7032031E703202FE703202DE701200A
:1050C0002BE702202FE70000DFF834D0002103E0B7
:1050D0000C4B5B58435004310B480C4B42189A421E
:1050E000F6D30B4A02E0002342F8043B094B9A42F4
:1050F000F9D3FDF7DDF9FBF78BFEFCF753FEFEE776
:1051000000000120E8770008000000208000002057
:10511000800000204C4E0020FEE700F108034360B1
:105120004FF0FF328260C360036100230360704769
:1051300000230361704743684B609A688A609A68ED
:10514000516099600861036801330360704730B4AF
:105150000D68B5F1FF3F02D000F1080202E00269DC
:1051600004E01A4653681C68AC42FAD953684B6095
:1051700099608A605160086103680133036030BC44
:105180007047036942688168916082684168516034
:105190005A68824206D0002202611A68013A1A60F7
:1051A0001868704782685A60F5E770B5044616467D
:1051B000856B026C5AB903681BB100200135A563E9
:1051C00070BD406800F05AFD00236360F6E76EB9D9
:1051D000806801F0DFF8226CA3681344A360626862
:1051E000934219D32368A3600020E7E7C06801F069
:1051F000D1F8226C5242E3681344E36021688B4289
:1052000002D263681A44E260022E01D00020D5E782
:1052100025B1013D0020D1E70020CFE70020CDE7F8
:1052200038B540B94FF0500383F31188BFF36F8F47
:10523000BFF34F8FFEE704460D4600F053FF216891
:10524000E26B236C03FB021060600020A063A1608E
:10525000013A02FB0313E360FF2384F8443084F82F
:105260004530A5B923691BB900F05EFF012038BDA8
:1052700004F1100000F0ACFC0028F5D0084B4FF012
:1052800080521A60BFF34F8FBFF36F8FECE704F1CA
:105290001000FFF742FF04F12400FFF73EFFE3E7B1
:1052A00004ED00E010B5029B0C4639B11A60D863DA
:1052B0001C6401211846FFF7B3FF10BD1B60F6E721
:1052C00040B94FF0500383F31188BFF36F8FBFF3E2
:1052D0004F8FFEE7F0B583B0064611B101FB00F039
:1052E00000E0002017460C46483000F0D3FD05468C
:1052F00050B1002380F8463000903B4600F1480250
:1053000021463046FFF7CEFF284603B0F0BD2DE919
:10531000F84360B1044699B9006C88B14FF050036E
:1053200083F31188BFF36F8FBFF34F8FFEE74FF00A
:10533000500383F31188BFF36F8FBFF34F8FFEE7E6
:10534000022B0BD1E06B012808D04FF0500383F300
:105350001188BFF36F8FBFF34F8FFEE71F46904654
:10536000894600F0E9FFEFF311864FF0500383F315
:105370001188BFF36F8FBFF34F8FA26BE36B9A421D
:1053800003D3022F01D000200FE094F845506DB2F6
:105390003A4649462046FFF708FFB5F1FF3F08D0DF
:1053A0006B1C5BB284F84530012086F31188BDE8A0
:1053B000F883636A5BB104F1240000F009FC40B19A
:1053C000B8F1000F07D00120C8F80000EDE7012078
:1053D000EBE70120E9E70120E7E760B170B504469B
:1053E000036C8BB14FF0500383F31188BFF36F8FC1
:1053F000BFF34F8FFEE74FF0500383F31188BFF3E5
:105400006F8FBFF34F8FFEE703682BB30E4600F09C
:1054100093FFEFF311854FF0500383F31188BFF32F
:105420006F8FBFF34F8FA26BE36B934226D994F833
:1054300045305BB20132A263B3F1FF3F18D1636A1A
:10544000F3B104F1240000F0C3FBD8B1E6B10120B0
:10545000306085F3118870BD4368002BD6D04FF0C3
:10546000500383F31188BFF36F8FBFF34F8FFEE7B5
:1054700001335BB284F845300120EAE70020E8E719
:105480000120E6E70120E4E70120E2E7084B1B6882
:105490001B683BB1064B1B68DB68DB685A68054B31
:1054A0001A607047034B4FF0FF321A60704700BF1D
:1054B000143F0020E83F00202DE9F0478046994640
:1054C000089D099F0A9C266B02F18042013A06EB77
:1054D000820626F0070600230F2B07D8C85CE218C7
:1054E00082F83400CA5C0AB10133F5E7002384F87E
:1054F0004330062D00D90625E56265644FF0000AA9
:10550000C4F848A0201DFFF713FE04F11800FFF7B0
:105510000FFE2461C5F10705A5616462C4F84CA0C3
:1055200084F850A04A464146304600F0ADFD206068
:1055300007B13C60BDE8F08738B5002407E004EB14
:10554000840293000E481844FFF7E7FD0134062C4F
:10555000F5D90C4D2846FFF7E0FD0B4C2046FFF730
:10556000DCFD0A48FFF7D9FD0948FFF7D6FD0948D9
:10557000FFF7D3FD084B1D60084B1C6038BD00BF12
:105580001C3F0020C03F0020D43F0020F03F0020FF
:105590001C40002008400020143F0020183F00203D
:1055A00010B5044600F09EFD204A136801331360D5
:1055B0001F4B1B685BB11F4B1B686BB91C4B1B68F7
:1055C000DA6AE36A9A4207D8194B1C6004E0184B68
:1055D0001C601368012B26D0174A1368013313602F
:1055E000E36A01229A401549086802430A6003EB06
:1055F00083039A00211D12481044FFF79CFD00F020
:1056000093FD0C4B1B686BB1094B1B68DA6AE36AAC
:105610009A4207D20B4B4FF080521A60BFF34F8F64
:10562000BFF36F8F10BDFFF787FFD5E7A83F0020BE
:10563000103F002004400020B83F0020BC3F002065
:105640001C3F002004ED00E010B5044690F85130F6
:1056500033B9006B00F0A2FC204600F09FFC10BDA7
:10566000012B0AD0022BFAD04FF0500383F311889C
:10567000BFF36F8FBFF34F8FFEE700F08FFCEEE7B5
:105680000F4B1B68D3B110B500F02CFD0D4BDB6840
:10569000DC68201DFFF775FD0B4A1368013B1360A2
:1056A000074A1368013B136000F03EFD2046FFF7F8
:1056B000CBFF034B1B68002BE6D110BD704700BF2A
:1056C000AC3F00201C400020A83F002008B5FFF799
:1056D000D7FF064B1B68012BF9D9054B4FF08052C1
:1056E0001A60BFF34F8FBFF36F8FF0E71C3F0020AE
:1056F00004ED00E070B504460E461D4B1D681D4BC1
:1057000018680430FFF73DFD50B91A4B1B68DA6A80
:10571000012303FA02F218490B6823EA02030B6023
:10572000B4F1FF3F13D02C44124B1B685C60A542C0
:1057300016D8124B18680F4B19680431FFF707FD94
:105740000F4B1B68A34212D90D4B1C600FE0002EBB
:10575000E9D0084B196804310A48FFF7ECFC06E071
:10576000094B1868034B19680431FFF7F0FC70BD52
:1057700030400020103F0020BC3F0020143F00209C
:10578000E83F002008400020183F002070B586B098
:105790000B9D0C9C45B94FF0500383F31188BFF368
:1057A0006F8FBFF34F8FFEE744B94FF0500383F381
:1057B0001188BFF36F8FBFF34F8FFEE75426049617
:1057C000049E542E08D04FF0500383F31188BFF38A
:1057D0006F8FBFF34F8FFEE72563022584F851508A
:1057E00000250395029405AD01950A9D0095FFF7EC
:1057F00063FE2046FFF7D4FE059806B070BD2DE984
:10580000F04385B00746884615469946900000F05B
:1058100041FB08B30646542000F03CFB0446B8B1F7
:105820000663E4B1002384F85130039302940D9B86
:1058300001930C9B00934B462A4641463846FFF79E
:105840003BFE2046FFF7ACFE012005B0BDE8F0832B
:10585000304600F0A3FBE4E74FF0FF30F5E74FF0F0
:10586000FF30F2E710B588B000240594069407AA2B
:1058700006A905A8FCF710F9059B0293069B019366
:1058800000942346079A0D490D48FFF77FFF08B99A
:1058900008B010BD4FF0500383F31188BFF36F8F32
:1058A000BFF34F8F074B4FF0FF321A60064B0122B8
:1058B0001A60064B1C6000F0B7FCE9E7307700087F
:1058C000CD560008E83F0020044000203040002072
:1058D000024A136801331360704700BFB43F0020D1
:1058E000F8B53A4B1B68002B64D1394B1D68013564
:1058F0001D60C5B9374B1B681B6843B14FF050039F
:1059000083F31188BFF36F8FBFF34F8FFEE7314AE8
:105910001168314B186810601960304A1368013300
:105920001360FFF7B3FD2E4B1B68AB4238D9002440
:105930002C4B1B68DB6A03EB83039A002A4B9B58B2
:10594000012B3CD901243AE00124224B1B681B683F
:1059500043B3204B1B68DB68DE6873689D4226D327
:10596000371D3846FFF70DFCB36A1BB106F118006E
:10597000FFF707FCF36A01229A401C4908680243BA
:105980000A6003EB83039A00394617481044FFF777
:10599000D2FBF26A134B1B68DB6A9A42D4D2D4E77B
:1059A0000024D2E70E4B4FF0FF321A60C0E70C4ADA
:1059B0001360BDE70E4A13680133136000240D4BDA
:1059C0001B6803B101242046F8BD00BFB43F00208E
:1059D00030400020143F0020183F0020EC3F002002
:1059E000E83F0020103F00201C3F0020BC3F00206B
:1059F000B03F00203440002038B5334B1B6843B91A
:105A00004FF0500383F31188BFF36F8FBFF34F8FB5
:105A1000FEE700F067FB2C4B1A68013A1A601B681E
:105A2000002B4DD1294B1B6823B9002400F07CFBCF
:105A3000204638BD0024264B1B681BB3244BDB6873
:105A4000DC6804F11800FFF79CFB251D2846FFF7D2
:105A500098FBE36A01229A401E49086802430A60E3
:105A600003EB83039A0029461B481044FFF763FBAE
:105A7000E26A1A4B1B68DB6A9A42DCD3184B01229C
:105A80001A60D8E70CB1FFF701FD164B1C6854B142
:105A9000FFF726FF10B1124B01221A60013CF7D12B
:105AA000104B00221A600E4B1B685BB10E4B4FF07F
:105AB00080521A60BFF34F8FBFF36F8F0124B5E799
:105AC0000024B3E70024B1E7B43F0020A83F002042
:105AD000F03F0020BC3F00201C3F0020103F002072
