:020000040800F2
:100000000000012075420008FD190008FF190008D2
:10001000011A0008031A0008051A00080000000071
:1000200000000000000000000000000081540008F3
:10003000071A00080000000021550008091A0008EE
:10004000C5420008C5420008C5420008C542000874
:10005000C5420008C5420008C54200081D1A000834
:10006000C5420008C5420008271A0008C54200081A
:10007000C5420008C5420008311A0008411A0008AC
:10008000C5420008C5420008C5420008C542000834
:10009000C5420008C5420008C5420008C542000824
:1000A000C5420008C5420008C5420008C542000814
:1000B000C54200080000000000000000C542000822
:1000C000C5420008C5420008C5420008C5420008F4
:1000D000C5420008511A0008C5420008C542000880
:1000E000C5420008C54200080000000000000000F2
:1000F0000000000000000000000000000000000000
:1001000000000000C542000800000000C5420008D1
:100110000000000000000000C5420008C5420008C1
:10012000C5420008C5420008C5420008C542000893
:10013000C5420008000000000000000000000000B0
:10014000C5420008C5420008C5420008C542000873
:10015000C5420008C5420008C5420008C542000863
:10016000C5420008C5420008C54200080000000062
:10017000C5420008C5420008C54200080000000052
:10018000C5420008C5420008C54200080000000042
:1001900010B5054C237833B9044B13B10448AFF3C1
:1001A00000800123237010BDE80100200000000042
:1001B000486C000808B5034B1BB103490348AFF373
:1001C000008008BD00000000EC010020486C000821
:1001D00081F0004102E000BF83F0004330B54FEAF8
:1001E00041044FEA430594EA050F08BF90EA020F65
:1001F0001FBF54EA000C55EA020C7FEA645C7FEAF8
:10020000655C00F0E2804FEA5454D4EB5555B8BF1A
:100210006D420CDD2C4480EA020281EA030382EA8B
:10022000000083EA010180EA020281EA0303362D1D
:1002300088BF30BD11F0004F4FEA01314FF4801CF0
:100240004CEA113102D0404261EB410113F0004F02
:100250004FEA03334CEA133302D0524263EB4303B9
:1002600094EA050F00F0A780A4F10104D5F1200E57
:100270000DDB02FA0EFC22FA05F2801841F10001B2
:1002800003FA0EF2801843FA05F359410EE0A5F186
:1002900020050EF1200E012A03FA0EFC28BF4CF0B7
:1002A000020C43FA05F3C01851EBE37101F000456D
:1002B00007D54FF0000EDCF1000C7EEB00006EEB7A
:1002C0000101B1F5801F1BD3B1F5001F0CD3490804
:1002D0005FEA30004FEA3C0C04F101044FEA44525B
:1002E00012F5800F80F09A80BCF1004F08BF5FEAE2
:1002F000500C50F1000041EB045141EA050130BDC2
:100300005FEA4C0C404141EB010111F4801FA4F164
:100310000104E9D191F0000F04BF01460020B1FAB9
:1003200081F308BF2033A3F10B03B3F120020CDAF1
:100330000C3208DD02F1140CC2F10C0201FA0CF0CF
:1003400021FA02F10CE002F11402D8BFC2F1200C34
:1003500001FA02F120FA0CFCDCBF41EA0C019040EA
:10036000E41AA2BF01EB0451294330BD6FEA040433
:100370001F3C1CDA0C340EDC04F11404C4F120021E
:1003800020FA04F001FA02F340EA030021FA04F330
:1003900045EA030130BDC4F10C04C4F1200220FA87
:1003A00002F001FA04F340EA0300294630BD21FAC5
:1003B00004F0294630BD94F0000F83F4801306BF8B
:1003C00081F480110134013D4EE77FEA645C18BF7F
:1003D0007FEA655C29D094EA050F08BF90EA020F16
:1003E00005D054EA000C04BF1946104630BD91EA0E
:1003F000030F1EBF0021002030BD5FEA545C05D111
:100400004000494128BF41F0004130BD14F580044F
:100410003CBF01F5801130BD01F0004545F0FE41C3
:1004200041F470014FF0000030BD7FEA645C1ABFF8
:10043000194610467FEA655C1CBF0B46024650EA2F
:10044000013406BF52EA033591EA030F41F400215B
:1004500030BD00BF90F0000F04BF0021704730B5E1
:100460004FF4806404F132044FF000054FF00001B6
:1004700050E700BF90F0000F04BF0021704730B577
:100480004FF4806404F1320410F0004548BF40424C
:100490004FF000013EE700BF42004FEAE2014FEAA1
:1004A00031014FEA02701FBF12F07F4393F07F4F7C
:1004B00081F06051704732F07F4208BF704793F07F
:1004C0007F4F04BF41F40021704730B54FF4607492
:1004D00001F0004521F000411CE700BF50EA010295
:1004E00008BF704730B54FF000050AE050EA01023E
:1004F00008BF704730B511F0004502D5404261EBAE
:1005000041014FF4806404F132045FEA915C3FF4EE
:10051000D8AE4FF003025FEADC0C18BF03325FEA8B
:10052000DC0C18BF033202EBDC02C2F1200300FA3C
:1005300003FC20FA02F001FA03FE40EA0E0021FA61
:1005400002F11444BDE600BF70B54FF0FF0C4CF44F
:10055000E06C1CEA11541DBF1CEA135594EA0C0F01
:1005600095EA0C0F00F0DEF82C4481EA030621EA3C
:100570004C5123EA4C5350EA013518BF52EA033577
:1005800041F4801143F4801338D0A0FB02CE4FF029
:100590000005E1FB02E506F00042E0FB03E54FF059
:1005A0000006E1FB03569CF0000F18BF4EF0010E51
:1005B000A4F1FF04B6F5007F64F5407404D25FEA4D
:1005C0004E0E6D4146EB060642EAC62141EA555100
:1005D0004FEAC52040EA5E504FEACE2EB4F1FD0C42
:1005E00088BFBCF5E06F1ED8BEF1004F08BF5FEAC0
:1005F000500E50F1000041EB045170BD06F0004672
:1006000046EA010140EA020081EA0301B4EB5C041E
:10061000C2BFD4EB0C0541EA045170BD41F4801116
:100620004FF0000E013C00F3AB8014F1360FDEBF3B
:10063000002001F0004170BDC4F10004203C35DA17
:100640000C341BDC04F11404C4F1200500FA05F39A
:1006500020FA04F001FA05F240EA020001F000423B
:1006600021F0004110EBD37021FA04F642EB0601B1
:100670005EEA430E08BF20EAD37070BDC4F10C04DB
:10068000C4F1200500FA04F320FA05F001FA04F29F
:1006900040EA020001F0004110EBD37041F100018B
:1006A0005EEA430E08BF20EAD37070BDC4F1200596
:1006B00000FA05F24EEA020E20FA04F301FA05F2FE
:1006C00043EA020321FA04F001F0004121FA04F2A6
:1006D00020EA020000EBD3705EEA430E08BF20EA76
:1006E000D37070BD94F0000F0FD101F000464000B0
:1006F00041EB010111F4801F08BF013CF7D041EA32
:10070000060195F0000F18BF704703F00046520035
:1007100043EB030313F4801F08BF013DF7D043EA06
:100720000603704794EA0C0F0CEA135518BF95EABC
:100730000C0F0CD050EA410618BF52EA4306D1D143
:1007400081EA030101F000414FF0000070BD50EA62
:10075000410606BF1046194652EA430619D094EAEC
:100760000C0F02D150EA013613D195EA0C0F05D1D6
:1007700052EA03361CBF104619460AD181EA03012A
:1007800001F0004141F0FE4141F470014FF00000E2
:1007900070BD41F0FE4141F4780170BD70B54FF07D
:1007A000FF0C4CF4E06C1CEA11541DBF1CEA1355FD
:1007B00094EA0C0F95EA0C0F00F0A7F8A4EB0504DF
:1007C00081EA030E52EA03354FEA013100F08880D6
:1007D0004FEA03334FF0805545EA131343EA12639F
:1007E0004FEA022245EA111545EA10654FEA002654
:1007F0000EF000419D4208BF964244F1FD0404F50D
:10080000407402D25B084FEA3202B61A65EB030568
:100810005B084FEA32024FF480104FF4002CB6EB25
:10082000020E75EB030E22BFB61A754640EA0C00A5
:100830005B084FEA3202B6EB020E75EB030E22BFE5
:10084000B61A754640EA5C005B084FEA3202B6EB26
:10085000020E75EB030E22BFB61A754640EA9C00E5
:100860005B084FEA3202B6EB020E75EB030E22BFB5
:10087000B61A754640EADC0055EA060E18D04FEA73
:10088000051545EA16754FEA06164FEAC30343EA13
:1008900052734FEAC2025FEA1C1CC0D111F4801FE0
:1008A0000BD141EA00014FF000004FF0004CB6E7D9
:1008B00011F4801F04BF01430020B4F1FD0C88BF78
:1008C000BCF5E06F3FF6AFAEB5EB030C04BFB6EB83
:1008D000020C5FEA500C50F1000041EB045170BD76
:1008E0000EF0004E4EEA113114EB5C04C2BFD4EBA3
:1008F0000C0541EA045170BD41F480114FF0000E27
:10090000013C90E645EA060E8DE60CEA135594EAA2
:100910000C0F08BF95EA0C0F3FF43BAF94EA0C0FA5
:100920000AD150EA01347FF434AF95EA0C0F7FF41A
:1009300025AF104619462CE795EA0C0F06D152EA6E
:1009400003353FF4FDAE1046194622E750EA410652
:1009500018BF52EA43067FF4C5AE50EA41047FF463
:100960000DAF52EA43057FF4EBAE12E74FEA4102C6
:10097000B2F1E04324BFB3F5001CDCF1FE5C0DD9FD
:1009800001F0004C4FEAC0024CEA5070B2F1004F47
:1009900040EB830008BF20F00100704711F0804F4A
:1009A00021D113F13872BCBF01F00040704741F40F
:1009B00080114FEA5252C2F11802C2F1200C10FA13
:1009C0000CF320FA02F018BF40F001004FEAC123F7
:1009D0004FEAD32303FA0CFC40EA0C0023FA02F39B
:1009E0004FEA4303CCE77FEA625307D150EA013371
:1009F0001EBF4FF0FE4040F44000704701F0004041
:100A000040F0FE4040F40000704700BF53B94AB9BF
:100A1000002908BF00281CBF4FF0FF314FF0FF3006
:100A200000F072B9ADF1080C6DE904CE00F006F8E3
:100A3000DDF804E0DDE9022304B070472DE9F0475A
:100A4000089E04468846002B4BD18A42154667D93A
:100A5000B2FA82F24AB1C2F1200701FA02F320FA97
:100A600007F7954047EA030894404FEA154E230CD8
:100A7000B8FBFEF71FFA85FC0EFB178843EA084314
:100A800007FB0CF1994209D9EB1807F1FF3080F010
:100A90001B81994240F21881023F2B445B1AA4B299
:100AA000B3FBFEF00EFB103344EA034400FB0CFCE6
:100AB000A44509D92C1900F1FF3380F00781A44522
:100AC00040F2048102382C4440EA0740A4EB0C04B5
:100AD00000271EB1D4400023C6E900433946BDE8D3
:100AE000F0878B4209D9002E00F0EB800027C6E981
:100AF000000138463946BDE8F087B3FA83F7002F86
:100B000047D18B4202D3824200F2FA80841A61EB11
:100B1000030301209846002EE0D0C6E90048DDE737
:100B200002B9FFDEB2FA82F2002A40F08F80491B40
:100B30004FEA154E1FFA85F80127B1FBFEFC230C86
:100B40000EFB1C1143EA014308FB0CF1994207D943
:100B5000EB180CF1FF3002D2994200F2CD808446AE
:100B6000591AA3B2B1FBFEF00EFB101443EA044481
:100B700008FB00F8A04507D92C1900F1FF3302D279
:100B8000A04500F2B6801846A4EB080440EA0C40E9
:100B90009FE7C7F1200CBB4022FA0CFE4EEA030E81
:100BA00001FA07F420FA0CF521FA0CF34FEA1E487B
:100BB0002543B3FBF8F92C0C08FB19331FFA8EFA06
:100BC00044EA034309FB0AF49C4202FA07F200FAE2
:100BD00007F10BD91EEB030309F1FF3080F087808A
:100BE0009C4240F28480A9F1020973441B1BADB200
:100BF000B3FBF8F008FB103345EA034400FB0AFAA4
:100C0000A24508D91EEB040400F1FF336BD2A245C4
:100C100069D90238744440EA0940A0FB0289A4EB78
:100C20000A044C45C2464B4654D351D0002E69D0DD
:100C3000B1EB0A0564EB030404FA0CFCFD40FC4034
:100C40004CEA0505C6E90054002747E7C2F1200336
:100C500020FA03F7954001FA02F021FA03F34FEA74
:100C6000154E3843010CB3FBFEF71FFA85F80EFB57
:100C7000173341EA034107FB08F38B4204FA02F4FD
:100C800007D9691807F1FF3C2FD28B422DD9023FBB
:100C90002944CB1A81B2B3FBFEF00EFB103341EABC
:100CA000034100FB08F38B4207D9691800F1FF3CB0
:100CB00017D28B4215D902382944C91A40EA07478E
:100CC0003BE73746304609E70746E7E61846FBE6C6
:100CD0004145ABD2B8EB020A69EB0E02013813466C
:100CE000A4E76046E9E7184695E76746D1E78146FD
:100CF0007CE702382C4447E7ACF1020C2B442FE789
:100D0000384608E73746E9E6704700BF10F8012B80
:100D100011F8013B012A28BF9A42F7D0D01A704738
:100D2000034613F8012B002AFBD1181A013870472B
:100D300001F0FF01102A2BDB10F0070F08D010F88C
:100D4000013B013A8B422DD010F0070F42B3F6D190
:100D5000F0B441EA012141EA014122F007047FF0A9
:100D600000070023F0E80256083C85EA010586EA00
:100D7000010685FA47F5A3FA87F586FA47F6A5FA3C
:100D800087F68EB9EED1F0BC01F0FF0102F0070248
:100D900032B110F8013B013A83EA010313B1F8D1F3
:100DA0000020704701387047002D06BF35460338D4
:100DB000073815F0010F07D1013015F4807F02BF0D
:100DC000013015F4C03F0130F0BC0138704700BF5E
:100DD000F1EE103A43F08073E1EE103A704700BF35
:100DE00000B585B08DF80C008DF80D1009E00D48A8
:100DF00001F064FF2028FAD10A4801F062FF0428BC
:100E00000DD142F210730093022303AA2421054856
:100E100001F0D8FD0028EAD000F072FDE7E705B048
:100E20005DF804FB084D002030B585B00C46154632
:100E30008DF80F0009E01E4801F040FF2028FAD18C
:100E40001B4801F03EFF04280ED141F28833009385
:100E500001230DF10F022421154801F0B3FD0028F4
:100E6000E9D000F04DFDE6E7642001F0FDFB09E06C
:100E70000F4801F023FF2028FAD10D4801F021FF8F
:100E800004280DD141F2883300932B4622462421B9
:100E9000074801F055FE0028EAD000F031FDE7E7F1
:100EA000034801F00BFF2028FAD105B030BD00BF88
:100EB000084D002008B501461120FFF791FF08BD3D
:100EC00008B5B6213620FFF78BFF642001F0CCFB7C
:100ED00000213620FFF784FF08BD30B583B0002520
:100EE00002AC04F8015D8020FFF7E4FF642001F00C
:100EF000BBFBFFF7E5FF8020FFF7DCFF642001F07C
:100F0000B3FB012221462846FFF78EFF9DF80730EC
:100F1000B02B29D002210F20FFF762FFE221102021
:100F2000FFF75EFF07211820FFF75AFF01211A2063
:100F3000FFF756FF00212C20FFF752FF0A212E2039
:100F4000FFF74EFF00212020FFF74AFF82211120EA
:100F5000FFF746FF80215F20FFF742FF00215F205F
:100F6000FFF73EFF03B030BD01210F20FFF738FF30
:100F700005211020FFF734FF01212B20FFF730FF60
:100F800020211620FFF72CFF20211920FFF728FF32
:100F900029462020FFF724FF80211120FFF720FFA2
:100FA000E0E7000008B5FFF798FF024804F00AFCEC
:100FB00008BD00BF986C000808B50022114604F077
:100FC000ADFDC0B2012801D9052008BDBFF34F8F88
:100FD0000549CA6802F4E062044B1343CB60BFF3D7
:100FE0004F8F00BFFDE700BF00ED00E00400FA05F1
:100FF000014B1880704700BF0000002010B5084961
:1010000004F0BCFC0022114604F088FD84B22046A6
:10101000FFF7EEFF2146034804F0D4FB002010BD8B
:10102000C86C0008CC6C0008F8B504460F4616469C
:101030000E4904F088FC10B1024600230FE0346032
:10104000012211E05D1C46F823401446002304F8F9
:10105000013B0649204604F076FC02462B46002A56
:10106000F0D15A1C46F823403A60F8BDC86C00081D
:1010700000B593B001AA11A9FFF7D6FF052013B060
:101080005DF804FB00B587B06A4605A9FFF7CCFF01
:10109000052007B05DF804FB00B587B06A4605A9D6
:1010A000FFF7C2FF052007B05DF804FB2DE9F0470C
:1010B00084B0844804F086FB0025BDE04FF4FA724A
:1010C0000431814800F09AFDC2E04846FFF728FE4F
:1010D000023087421ED04846FFF722FE0130874289
:1010E00049D04846FFF71CFE0130874205D94846E3
:1010F000FFF716FE335C3D2B59D04846FFF710FE34
:1011000087426FD0B8F1050F00F08880002D00F005
:10111000888084E04846FFF703FE6C493044FFF7BF
:10112000F5FD0028D7D108EB88039A00684B1344DB
:101130005868C8B10222674904F0F3FB28B9664A2F
:10114000A021204604F056FBDCE708EB880A4FEAB2
:101150008A025F4B13445B6800934B465F4AA021B1
:10116000204604F047FBCDE74B465D4AA0212046D0
:1011700004F040FBC6E74846FFF7D2FD335C3F2B47
:10118000AFD10AEB8A0A4FEA8A02514B13449B689B
:10119000002B3DD0984705460028B3D1514B009312
:1011A0004B46514AA021204604F024FBAAE70AEB53
:1011B0008A0A4FEA8A02464B1344DD6855B3484613
:1011C000FFF7AEFD01303044A847054620B1B0F12D
:1011D000FF3F97D1082595E73F4AA021204604F01C
:1011E00009FB8FE70AEB8A0A4FEA8A02384B13445D
:1011F0001B698BB19847054620B1B0F1FF3F81D103
:1012000008257FE7344AA021204604F0F3FA79E765
:10121000022577E7022575E7022573E70125FF2DF3
:1012200043D1FF2D49D1039B5A880021204604F069
:10123000C0FA039B00221A704FF0FF3203A92B4B18
:10124000186803F0F7F903994B88012B3FF436AF88
:10125000039B1C1D9E1D5B889A1E97B2E21812F814
:10126000012C0A2ADFD1234413F8023C0D2BDAD1DA
:101270004FF00008B8F1040F3FF644AFC24608EB48
:1012800088029300124A52F803904846FFF748FD3F
:1012900002464946304604F044FB00283FF415AFAF
:1012A00008F101085FFA88F8E4E70095104B114A4D
:1012B000A021204604F09EFAB3E7204604F082FA0B
:1012C000B1E700BF386D0008484E0020486D0008A7
:1012D000D46C00084C6D0008646D0008506D000867
:1012E000606D0008040200206C6D0008983D00202D
:1012F0007C6D0008886D000800B583B002A941F834
:10130000040D4FF6FF730122034801F08EF8019897
:1013100003B05DF804FB00BF484E002070B51646D0
:10132000002405E04D1C0878FFF7E6FF013429464C
:10133000B442F7DB304670BD10B543F610320021E1
:101340000A4804F036FA0A4B1A680121117019682C
:10135000084C4FF4FA720431204600F04FFC22682A
:10136000136843F01003136010BD00BF8402002017
:1013700004000020484E002008B5002204211E2051
:1013800003F0CAF8014B186008BD00BF983D00206B
:1013900010B50446102802D0022C08D010BD064B10
:1013A00019784A1C1A70054804F00CFAF4E7044A4C
:1013B000138801331380F1E7943D0020C06D0008CD
:1013C000963D0020836E1A68136823F001031360B2
:1013D0007047000030B583B0002301930368DA69D9
:1013E00012F0100F0BD1019B3BB1274B4FF08052F5
:1013F0001A60BFF34F8FBFF36F8F03B030BD044649
:1014000010221A6200F050FC2268204B9A42EAD166
:10141000E36E1B685A68B2F5FA7F0BD85A681C4B0A
:101420001968C2F5FA724A801A68032151701B6864
:101430005B8883B9164B1B685B88012B1BD9002383
:101440001D2B18D8C3EB8311CA0012498A5C52B114
:101450000133DBB2F4E7002301AA0D490E4800680E
:1014600003F081F8E6E7C3EB8310C2005518084883
:10147000056001338B54064B19684FF4FA7204313E
:10148000204600F0BBFBAEE704ED00E00038014071
:101490000400002084020020983D002000B583B0A5
:1014A0000E4B9A6C42F001029A649B6C03F00103AC
:1014B0000193019B002205210E2002F02BFE0E203D
:1014C00002F05CFE002205210F2002F023FE0F2017
:1014D00002F054FE03B05DF804FB00BF00100240B0
:1014E00008B5FFF7E3FDFCE770B592B0402200219C
:1014F00002A804F05EF9FFF755FD4FF47A7003F08F
:1015000040FE4022002102A804F053F92E4D012292
:101510000421284602F000FC2C4C002626803220B4
:1015200003F02FFE32460421284602F0F5FB248802
:1015300007EE904AF8EE677A17EE900AFEF7ACFFD6
:101540000022234BFFF700F81DA3D3E90023FEF789
:1015500043FEFFF70BFA1F490860D1ED007AFCEE5D
:10156000E77A17EE903A9BB2C3EB431203EB820388
:10157000DA0093B207EE903A91ED007ADFED166A49
:1015800027EE267AF8EEE77A77EE677AFCEEE77ACE
:1015900017EE903A9BB2D1ED007AFCEEE77A009319
:1015A00017EE903A9BB222460C4902A804F056F975
:1015B00002A90B4804F006F99FE700BFAFF30080D3
:1015C000000000000008494000040048963D00204B
:1015D0000000B03F004D002000007A44D46D0008A8
:1015E000E06D0008034B0360034B0B608023136026
:1015F000704700BF9C3F00209C3D002070B58EB01E
:101600000F4C07AD26460FCE0FC596E8070085E8BC
:101610000700002107A803F07EFD0A4B18606D4605
:101620001C340FCC0FC594E8070085E807000021A3
:10163000684603F070FD044B18600EB070BD00BF2B
:10164000606C0008FC4C0020044D002070B588B090
:101650000024039404940594069407943F4BDA6C99
:1016600042F00402DA64DA6C02F004020092009A9A
:10167000DA6C42F00102DA64DA6C02F001020192E3
:10168000019ADA6C42F00202DA64DB6C03F00203C6
:101690000293029B224640F6C1014FF0904002F0B7
:1016A0003BFB2F4D224641F22401284602F034FB39
:1016B00040F6C1030393012604960594069403A9FA
:1016C0004FF0904002F05EFA0823039304940594CF
:1016D00003A94FF0904002F055FA10230393214BD9
:1016E0000493059403A94FF0904002F04BFA0223B3
:1016F00003931D4B0493059403A9284602F042FA74
:101700000423039304960596069403A9284602F041
:1017100039FA4FF48153039304960594069403A970
:10172000284602F02FFA182303930494059403A982
:10173000284602F027FA22460521072002F0EAFC9B
:10174000072002F01BFD224605210A2002F0E2FCE0
:101750000A2002F013FD08B070BD00BF0010024067
:1017600000040048000021100000111008B51248C4
:10177000124B0360124B4360002383600122C2605E
:10178000036143618361C361036201F0BDF850B935
:101790000021094801F097FA40B90021064801F0FC
:1017A000C0FA30B908BD00F0ABF8F1E700F0A8F8D6
:1017B000F3E700F0A5F8F5E7084D002000580040D9
:1017C000EC9C901010B588B000230393049305930C
:1017D000069307930268144B9A4201D008B010BDDB
:1017E000124CE36C43F00203E364E36C03F0020386
:1017F0000193019B4FF4406303931223049301234D
:101800000593032306930423079303A9084802F0D2
:10181000B9F9A36D43F48003A365A36D03F48003BA
:101820000293029BDAE700BF00580040001002401C
:101830000004004830B5AFB0442200211DA803F0D9
:10184000B8FF0024189419941A941B941C946025D2
:101850002A462146684603F0ACFF02F0F1FB1B4A22
:10186000D2F8903023F01803C2F8903014231D935F
:1018700001231F93239324942595022227922893D2
:10188000299328232A9307232B932C922D921DA86A
:1018900001F016FB0F231893032319931A941B943A
:1018A0001C9404210DEB050001F028FE8123009318
:1018B00008940D94684601F0ADFF4FF4007002F0FB
:1018C000CFFB02F057F92FB030BD00BF001002402F
:1018D00008B500F0A7FEFFF7ADFFFFF74DFDFFF7DE
:1018E000B5FEFFF7DBFD00F0E3F8FFF73FFF00F088
:1018F00009F8FFF721FDFFF781FE03F007FCFEE783
:101900007047000008B51048104B03604FF4827315
:101910004360002383604FF4E062C260036143616F
:101920004FF4007282611822C261036243628362D3
:101930000722C26203630823436302F043FC00B939
:1019400008BDFFF7DDFFFBE7544D002000380040E5
:1019500000B589B00023039304930593069307937E
:101960000268144B9A4202D009B05DF804FB03F5FB
:10197000EC339A6D42F480429A659A6D02F480428B
:101980000192019ADA6C42F00202DA64DB6C03F035
:1019900002030293029B4FF46043039302230493D8
:1019A000032306930523079303A9034802F0EAF8EB
:1019B000DAE700BF003800400004004800B583B0FB
:1019C0000D4B1A6E42F001021A661A6E02F0010205
:1019D0000092009A9A6D42F080529A659B6D03F0D6
:1019E00080530193019B00220F216FF0010002F050
:1019F00091FB03B05DF804FB001002407047FEE766
:101A0000FEE7FEE7FEE7704708B500F01BFE03F0B7
:101A10000FFB012801D003F0B5FD08BD08B5022079
:101A200002F080F908BD08B5102002F07BF908BD6E
:101A300008B5024802F0A0FA08BD00BFB84D00206A
:101A400008B5024802F098FA08BD00BF004E002019
:101A500010B5044C2046FFF7BDFC204600F0C4F949
:101A600010BD00BF484E00200F49D1F8883043F424
:101A70007003C1F888300D4B1A6842F001021A60F9
:101A8000002098601A6822F0A85222F410221A60EE
:101A90004FF48052DA601A6822F480221A6098614A
:101AA0004FF000638B60704700ED00E000100240D3
:101AB00008B50B480B4B03604FF4E1334360002340
:101AC0008360C36003610C2242618361C36103626E
:101AD000436200F04CFD00B908BDFFF711FFFBE7C2
:101AE000484E00200038014030B589B000230393F0
:101AF000049305930693079302682E4B9A4201D0F4
:101B000009B030BD044603F558431A6E42F48042D2
:101B10001A661A6E02F480420192019ADA6C42F05F
:101B20000202DA64DB6C03F002030293029BC0231F
:101B3000039302250495032306930723079303A920
:101B40001D4802F01FF81D481D4B0360456000232F
:101B50008360C3608022026143618361C361036269
:101B600002F006F900BB154BE3669C621548164B64
:101B7000036002234360102383600023C36080223C
:101B8000026143618361C361036202F0F1F870B9DD
:101B90000C4BA3669C6200220521252002F0BAFAB4
:101BA000252002F0EBFAABE7FFF7AAFEDBE7FFF731
:101BB000A7FEEDE70038014000040048004E002079
:101BC00058000240B84D00204400024002681368EB
:101BD00023F0C00313602023436770470268136833
:101BE00023F4907313600268936823F001039360F9
:101BF00020238367002303667047000010B5846FBD
:101C0000202C43D1002943D0002A43D090F87030D3
:101C1000012B41D013460446012280F87020416513
:101C2000A0F858300022C26722228267C26E8AB1B1
:101C30001A49D162C26E1A491163C26E19495163C1
:101C4000C26E002191630168426D2431C06E02F0C2
:101C50000BF990B9002084F870002268136843F4EF
:101C6000807313602268936843F0010393602268D5
:101C7000936843F04003936009E01023E367002377
:101C800084F8703020236367012000E0022010BD3B
:101C90000120FCE70120FAE70220F8E74B1D0008CD
:101CA0008B1D0008971D000838B50446416F856FED
:101CB00003689A6812F0800F01D0212908D02368A8
:101CC0009A6812F0400F30D0222D17D000202DE05E
:101CD0009A6822F080029A60806E10B102F0FFF8DC
:101CE00018B92046FFF772FFE9E7A06E02F0A6F9E7
:101CF0002028F6D11023E367032017E09A6822F02A
:101D000040029A60E06E10B102F0E9F820B9204676
:101D1000FFF764FF002009E0E06E02F08FF9202851
:101D2000F5D11023E367032000E0002038BD08B59B
:101D300001680A6822F040020A60202242670022FD
:101D40004266FFF73FFB08BD704708B5836A02682B
:101D5000126812F0200F13D10022A3F85A2019683C
:101D60000A6822F480720A6019688A6822F0010207
:101D70008A6019688A6822F040028A6020229A6785
:101D80001846FFF7E1FF08BD704708B5806AFFF706
:101D9000FBFF08BD704738B5846A626FA56F236882
:101DA0009B6813F0800F01D0212A0ED023689B6816
:101DB00013F0400F01D0222D0ED0E36F43F010033B
:101DC000E3672046FFF7E6FF38BD0023A4F8523052
:101DD0002046FFF7FBFEE9E70023A4F85A3020462F
:101DE000FFF7FCFEE9E7000038B504460268D36956
:101DF0001168906813F00F050CD113F0200F09D073
:101E000011F0200F06D0236E002B00F093802046A7
:101E100098478FE0002D6FD010F0010502D111F42A
:101E2000907F69D013F0010F07D011F4807F04D0A8
:101E300001201062E26F0243E26713F0020F07D045
:101E400035B1226802201062E26F42F00402E267BC
:101E500013F0040F07D035B1226804201062E26F3E
:101E600042F00202E26713F0080F09D011F0200FD0
:101E700000D12DB1226808201062E26F0243E267B0
:101E8000E26F002A56D013F0200F06D011F0200F79
:101E900003D0236E0BB120469847E26F23689B68FE
:101EA00013F0400F02D112F0080F1FD02046FFF7A9
:101EB00095FE23689A6812F0400F13D09A6822F0BA
:101EC00040029A60E36E4BB11D4A9A63E06E02F0E5
:101ED0002BF878B3E06E836B98472BE02046FFF732
:101EE00059FF27E02046FFF755FF23E02046FFF784
:101EF00051FF0023E3671DE013F4801F02D010F4AC
:101F0000800F0AD113F0800F0ED011F0800F0BD08C
:101F1000636E7BB1204698470CE04FF48013136248
:101F2000204600F055FB05E013F0400F02D011F001
:101F3000400F00D138BD2046FFF7F9FEFAE700BF99
:101F4000451F000808B5806A0023A0F85A30A0F8A1
:101F50005230FFF71FFF08BD2DE9F0480446016825
:101F600083680269134342691343C26913430868D3
:101F70009E4A024013430B602268536823F4405387
:101F8000E1680B435360A1692268994B9A4201D0E2
:101F9000236A1943936823F430630B4393602368E7
:101FA000944A93421FD0944A934230D0934A93422A
:101FB00046D08F4A934259D010258D4A934276D00D
:101FC000E369B3F5004F00F0ED80082D00F2898140
:101FD000DFE815F049015F0169018701740187019C
:101FE000870187017E0102F55842D2F8882002F06D
:101FF0000302032A09D8DFE802F002045206012591
:10200000DBE70425D9E70825D7E71025D5E702F552
:10201000E632D2F8882002F00C020C2A0ED8DFE853
:1020200002F0070D0D0D090D0D0D400D0D0D0B00EE
:102030000025C2E70425C0E70825BEE71025BCE758
:1020400002F5E432D2F8882002F03002102A09D0DA
:1020500005D9202A27D0302A06D10825ADE71AB99C
:102060000025AAE70425A8E71025A6E702F5C8324F
:10207000D2F8882002F44062B2F5806F0BD007D905
:10208000B2F5006F11D0B2F5406F06D1082594E784
:102090001AB9002591E704258FE710258DE7022561
:1020A0008BE7022589E7022587E7022585E7082DCA
:1020B00000F21A81DFE815F00C0018011400180175
:1020C000110018011801180109004FF4004008E040
:1020D00001F0C6FA28B90020D6E000F097FEF9E733
:1020E0004748626802EB4203834200F2FF80B0EB94
:1020F000023F00F2FD80082D51D8DFE805F00550C1
:10210000205030505050430001F0AAFA0025070E2D
:102110000602626850082B4616EB000B47F1000CD4
:1021200058466146FEF772FC03462846A3F5407107
:10213000344A914200F2DE802268D360A4E056085F
:1021400000252B46DFF8C0B04FF0000C1BEB06005B
:102150004CF10001FEF75AFC03462846E6E700F082
:1021600055FE0025070E0602626850082B4616EB46
:10217000000B47F1000C58466146FEF747FC03464A
:102180002846D3E75008002700252B4610F500000D
:1021900047F10001FEF73AFC03462846C6E7012056
:1021A0000023C3E7082D5BD8DFE805F005303B5A74
:1021B000465A5A5A510001F053FA6268530803EB29
:1021C0004003B3FBF2F39BB20020A3F110014FF6E2
:1021D000EF72914200F290809AB222F00F02C3F3A4
:1021E000420313432268D3604EE000BFF369FFEF60
:1021F000008000400038014000440040004800409A
:102200000024F400FFFC0F00000024F401F03AFA6F
:102210006268530803EB4003B3FBF2F39BB2002068
:10222000D3E76268530803F1F47303F59043B3FBFB
:10223000F2F39BB20020C8E700F0E8FD62685308A3
:1022400003EB4003B3FBF2F39BB20020BDE76268EF
:10225000530803F58033B3FBF2F39BB20020B4E7DD
:1022600001200023B1E701F0FBF9636800EB5302A2
:10227000B2FBF3F292B20020A2F110014FF6EF731D
:1022800099423BD82368DA60002222666266BDE884
:10229000F08801F0F7F9636800EB5302B2FBF3F248
:1022A00092B20020E8E763685A0802F5740202F56A
:1022B0001052B2FBF3F292B20020DDE700F0A6FD6F
:1022C000636800EB5302B2FBF3F292B20020D3E753
:1022D00063685A0802F50042B2FBF3F292B20020A2
:1022E000CAE701200022C7E70120CDE70120CBE7A4
:1022F0000120C9E70120C7E70120C5E70120C3E7A6
:10230000436A13F0010F06D00268536823F40033C8
:10231000816A0B435360436A13F0020F06D00268D0
:10232000536823F48033C16A0B435360436A13F04C
:10233000040F06D00268536823F48023016B0B431B
:102340005360436A13F0080F06D00268536823F401
:102350000043416B0B435360436A13F0100F06D0E8
:102360000268936823F48053816B0B439360436A44
:1023700013F0200F06D00268936823F40053C16B5A
:102380000B439360436A13F0400F0AD0026853680E
:1023900023F48013016C0B435360036CB3F5801F6F
:1023A0000BD0436A13F0800F06D00268536823F401
:1023B0000023816C0B43536070470268536823F419
:1023C000C003416C0B435360EBE72DE9F041054638
:1023D0000F4616469846069C2B68DB6937EA0303CE
:1023E0000CBF01230023B3421CD1B4F1FF3FF3D053
:1023F00000F034F9A0EB0800A04201D8002CEBD18A
:102400002A68136823F4D07313602A68936823F052
:102410000103936020236B67AB67002385F870305E
:10242000032000E00020BDE8F0812DE9F04182B0FA
:102430001E46436F202B55D104460D469046002979
:1024400055D0002A55D090F87030012B53D001237D
:1024500080F870300023C3672123436700F0FEF843
:102460000746A4F85080A4F85280A368B3F5805FB3
:1024700002D04FF0000813E0236913B14FF00008B9
:102480000EE0A84600250BE038F8023B2268C3F3B3
:1024900008031385B4F85230013B9BB2A4F85230C4
:1024A000B4F852309BB273B100963B4600228021B3
:1024B0002046FFF78AFF00BB002DE5D0236815F802
:1024C000012B1A85E6E700963B4600224021204674
:1024D000FFF77BFF034690B920226267002284F851
:1024E000702000E00223184602B0BDE8F08101230D
:1024F000F9E70123F7E70223F5E70323F3E70323D3
:10250000F1E730B583B004460023C36700F0A6F8B6
:10251000054623681B6813F0080F0CD123681B685D
:1025200013F0040F15D120236367A367002084F8FC
:10253000700003B030BD6FF07E430093034600226D
:102540004FF400112046FFF740FF0028E6D003209B
:10255000EFE76FF07E4300932B4600224FF480019B
:102560002046FFF732FF0028DDD00320E1E768B303
:1025700010B50446436F03B32423636722681368CE
:1025800023F0010313602046FFF7E6FC012813D077
:10259000636ABBB92268536823F49043536022688E
:1025A000936823F02A0393602268136843F00103C1
:1025B00013602046FFF7A5FF10BD80F87030FFF7CD
:1025C00093FAD9E72046FFF79BFEE3E70120704727
:1025D00070470000104B1B680BB90120704710B505
:1025E00004464FF47A70B0FBF3F30C4A1068B0FB6A
:1025F000F3F001F0D1FD68B90F2C01D901200AE0F8
:10260000002221464FF0FF3001F084FD044B1C6096
:10261000002000E0012010BD0C0000200800002078
:102620001000002010B5032001F062FD0F20FFF71D
:10263000D1FF10B10124204610BD0446FFF7BEF9BA
:10264000F9E70000034A1368034909680B44136063
:10265000704700BFC84E00200C000020014B1868D6
:10266000704700BFC84E002038B50446FFF7F6FF9C
:102670000546B4F1FF3F02D0044B1B681C44FFF732
:10268000EDFF401BA042FAD338BD00BF0C00002074
:1026900003689A6912F0020F01D000229A6203685F
:1026A0009A6912F0010F03D19A6942F001029A610E
:1026B000704770B4039E05686868740D04F4806404
:1026C00044F07F7444F4583444F47F7444F00304B9
:1026D00020EA0400C1F3090141EA024119433143F0
:1026E0000143696070BC704770B504460D461646DC
:1026F00003689B6913F0100F1CD023689A6912F0CD
:10270000200F19D1B5F1FF3FF7D0FFF7A7FF801BCE
:10271000A84201D8002DF0D1636C43F0200363641C
:10272000202384F84130002384F8423084F840307C
:10273000012020E000201EE01022DA61236820251D
:10274000DD612046FFF7A4FF2268536823F0FF7382
:1027500023F48B3323F4FF7323F001035360636C82
:1027600043F00403636484F84150002384F842304A
:1027700084F84030012070BD70B504460D46164601
:1027800023689B6913F0020F1DD13246294620466B
:10279000FFF7AAFFC8B9B5F1FF3FF1D0FFF75EFF21
:1027A000801BA84201D8002DEAD1636C43F02003BE
:1027B0006364202384F84130002384F8423084F895
:1027C0004030012000E0002070BD0120FCE7F8B59A
:1027D00005460F4616461C462B689B6937EA0303DD
:1027E0000CBF01230023B34218D1B4F1FF3FF3D053
:1027F000FFF734FF069BC01AA04201D8002CEBD192
:102800006B6C43F020036B64202385F84130002378
:1028100085F8423085F84030012000E00020F8BD06
:1028200070B505460C4616462B689B6913F0200FC1
:102830001AD1324621462846FFF756FFB0B9FFF7B6
:102840000DFF801BA04201D8002CEDD16B6C43F032
:1028500020036B64202385F84130002385F8423043
:1028600085F84030012070BD0020FCE70120FAE728
:1028700070B504460D46164623689B6913F0040F95
:102880003ED1324629462046FFF72EFF014600285A
:1028900038D123689A6912F0200F13D1FFF7DEFEBA
:1028A000801BA84201D8002DE6D1636C43F02003C1
:1028B0006364202384F84130002384F840300121F0
:1028C000084670BD9A6912F0040F02D0228D002ACA
:1028D000F6D12022DA6121684B6823F0FF7323F4DC
:1028E0008B3323F4FF7323F001034B6000236364F5
:1028F00084F8412084F8423084F840300121DFE739
:102900000021DDE70121DBE7002859D010B504469E
:1029100090F84130002B43D0242384F841302268C2
:10292000136823F0010313606368226823F0706367
:1029300013612268936823F400439360E368012BDA
:1029400033D0A368226843F404439360E368022B06
:1029500031D02268536843F0007343F4004353605E
:102960002268D36823F40043D36023696269134368
:10297000A169226843EA0123D360E369216A2268DE
:102980000B4313602268136843F0010313600020B7
:102990006064202384F84130206384F8420010BD35
:1029A00080F84030FEF70EFFB6E7A368226843F4D4
:1029B00000439360CAE723684FF400625A60C8E797
:1029C000012070472DE9F04383B090F84150EDB2FB
:1029D000202D40F0A48090F84040012C00F0A4800D
:1029E000984617460E4604464FF0010980F840907D
:1029F000FFF734FE0546009019234A464FF4004184
:102A00002046FFF7E4FE002840F09080212384F860
:102A10004130102384F84230002363646762A4F8D5
:102A20002A806363638D9BB2FF2B0AD9FF22228524
:102A3000424B00934FF0807331462046FFF739FE3A
:102A400018E0628D92B222853C4B00934FF00073E8
:102A5000D2B231462046FFF72CFE0BE0628D92B2D7
:102A60002285002300934FF00073D2B231462046F6
:102A7000FFF71FFE638D9BB2002B33D02A460A99C5
:102A80002046FFF779FE002852D1626A2368127847
:102A90009A62636A01336362638D013B9BB2638513
:102AA000238D013B9BB22385628D92B2002AE1D037
:102AB000002BDFD100950A9B002280212046FFF7E2
:102AC00086FE002836D1638D9BB2FF2BC6D9FF222C
:102AD0002285002300934FF0807331462046FFF794
:102AE000E8FDC7E72A460A992046FFF799FE034604
:102AF00010BB22682021D1612068426822F0FF7259
:102B000022F48B3222F4FF7222F00102426084F838
:102B10004110002284F8422084F8402000E0022383
:102B2000184603B0BDE8F0830223F9E70123F7E775
:102B30000123F5E70123F3E70123F1E700200080FB
:102B40002DE9F04383B090F84150EDB2202D40F0D4
:102B5000A48090F84040012C00F0A48098461746CD
:102B60000E4604464FF0010980F84090FFF776FDCD
:102B70000546009019234A464FF400412046FFF7CE
:102B800026FE002840F09080222384F84130102354
:102B900084F84230002363646762A4F82A80636388
:102BA000638D9BB2FF2B0AD9FF222285424B0093F3
:102BB0004FF0807331462046FFF77BFD18E0628DB1
:102BC00092B222853C4B00934FF00073D2B2314653
:102BD0002046FFF76EFD0BE0628D92B22285002346
:102BE00000934FF00073D2B231462046FFF761FDEB
:102BF000638D9BB2002B33D02A460A992046FFF7FB
:102C000037FE002852D123685A6A636A1A70636AD1
:102C100001336362238D013B9BB22385628D013AB0
:102C200092B26285628D92B2002AE1D0002BDFD190
:102C300000950A9B002280212046FFF7C8FD00284E
:102C400036D1638D9BB2FF2BC6D9FF22228500238C
:102C500000934FF0807331462046FFF72AFDC7E707
:102C60002A460A992046FFF7DBFD034610BB22687F
:102C70002021D1612068426822F0FF7222F48B3259
:102C800022F4FF7222F00102426084F84110002217
:102C900084F8422084F8402000E00223184603B064
:102CA000BDE8F0830223F9E70123F7E70123F5E705
:102CB0000123F3E70123F1E70024008090F84100AD
:102CC0007047406C704790F84130DBB2202B24D124
:102CD00090F84030012B22D0012380F8403024238B
:102CE00080F841300268136823F001031360026822
:102CF000136823F48053136002681368194311604A
:102D00000268136843F001031360202380F8413008
:102D1000002380F840301846704702207047022098
:102D2000704790F84130DBB2202B22D190F8403030
:102D3000012B20D0012380F84030242380F841303B
:102D40000268136823F0010313600268136823F418
:102D5000706343EA012111600268136843F00103C4
:102D60001360202380F84130002380F8403018465B
:102D700070470220704702207047000030B583B0D2
:102D80000546204B9B6D13F0805F0BD001F060F97E
:102D9000B0F5007F17D0802D1FD82DD0702D2DD0ED
:102DA00000211BE0174CA36D43F08053A365A36D76
:102DB00003F080530193019B01F04AF9A36D23F0C6
:102DC0008053A365E4E7802D03D9A02D03D9022108
:102DD00004E0002102E0012100E003210A4A136817
:102DE00023F007030B431360136803F007038B42C0
:102DF00006D0012003B030BD0221EFE70121EDE74D
:102E00000020F7E70010024000200240284A9368A3
:102E1000D26802F0030213F00C030AD00C2B06D088
:102E2000042B1FD0082B20D00020024610E0012ADE
:102E3000F6D11F4A126812F0080F0CD11C4AD2F8C2
:102E40009420C2F303221B4951F8222043B10020F1
:102E50000C2B0DD07047164A1268C2F30312F2E72A
:102E60001046F5E714480022F2E714480022EFE785
:102E70000F4BDB6803F00303022B15D0032B15D097
:102E80000B4BD868C0F302100130D968C1F306219A
:102E900002FB01F2B2FBF0F2D868C0F341600130EE
:102EA0004000B2FBF0F0D5E7034AE9E7034AE7E761
:102EB00000100240106E00080024F40000127A0096
:102EC000002800F00883F0B583B00446AD4B9D6840
:102ED00005F00C05DE6806F00306036813F0100F1A
:102EE0005ED0E5B10C2D18D0A369002B00F0B8809E
:102EF000A44A136843F001031360FFF7AFFB0746D2
:102F0000A04B1B6813F0020F40F09780FFF7A6FB61
:102F1000C01B0228F4D90323E9E2012EE4D1994B26
:102F20001B6813F0020F03D0A369002B00F0D682B8
:102F3000206A944B1B6813F0080F5ED0914B1B68FE
:102F400003F0F00398425FD9FFF718FF002840F024
:102F5000C7828C4B1A6842F008021A601A6822F085
:102F6000F002216A0A431A605A6822F47F42E1693A
:102F700042EA01225A60FFF749FF824B9B68C3F384
:102F80000313814AD35C03F01F03D8407F4B1860C2
:102F90007F4B1868FFF71EFB0346002840F0A7820E
:102FA000236813F0010F7AD0082D6FD00C2D6BD051
:102FB0006368B3F5803F00F09180B3F5A02F00F077
:102FC0009380704B1A6822F480321A601A6822F4D7
:102FD00080221A606368002B00F09380FFF73EFBAD
:102FE0000746684B1B6813F4003F58D1FFF736FBC8
:102FF000C01B6428F5D9032379E2624BD3F89430DF
:103000001B0903F0F0039DE75E4B1A6842F00802CB
:103010001A601A6822F0F002216A0A431A605A689C
:1030200022F47F42E16942EA01225A60206AFFF7F6
:10303000A5FE00289FD0012359E2524B1A6842F0A6
:1030400008021A601A6822F0F002216A0A431A6024
:103050005A6822F47F42E16942EA01225A609FE7FE
:10306000484A136823F001031360FFF7F7FA074695
:10307000444B1B6813F0020F92D0FFF7EFFAC01B0E
:103080000228F5D9032332E2032E91D13D4B1B6870
:1030900013F4003F03D06368002B00F02382236801
:1030A00013F0020F4FD0042D3CD00C2D38D0E36824
:1030B000002B78D0334A136843F480731360FFF712
:1030C000CDFA06462F4B1B6813F4806F62D1FFF7D1
:1030D000C5FA801B0228F5D9032308E2294A1368A0
:1030E00043F48033136075E703F18043A3F53C3369
:1030F0001A6842F480221A601A6842F480321A6018
:1031000068E7FFF7ABFA07461E4B1B6813F4003F56
:10311000C5D0FFF7A3FAC01B6428F5D90323E6E165
:10312000022EC4D1174B1B6813F4806F03D0E368E1
:10313000002B00F0D981134A536823F0F85321691A
:1031400043EA01635360236813F0080F56D06369A4
:10315000002B3CD00B4AD2F8943043F00103C2F864
:103160009430FFF77BFA0646064BD3F8943013F001
:10317000020F43D1FFF772FA801B0228F4D9032310
:10318000B5E100BF00100240F86D00080800002003
:1031900010000020B64A536823F0F853216943EA2F
:1031A00001635360CFE7B24A136823F4807313605E
:1031B000FFF754FA0646AE4B1B6813F4806FC2D07B
:1031C000FFF74CFA801B0228F5D903238FE1A84AA8
:1031D000D2F8943023F00103C2F89430FFF73EFA9E
:1031E0000646A34BD3F8943013F0020F06D0FFF736
:1031F00035FA801B0228F4D9032378E1236813F001
:10320000040F7AD09A4B9B6D13F0805F0BD1984BD3
:103210009A6D42F080529A659B6D03F08053019342
:10322000019B012600E00026924B1B6813F4807F6F
:1032300026D0A368012B37D0052B3DD08C4BD3F87B
:10324000902022F00102C3F89020D3F8902022F0C1
:103250000402C3F89020A368002B3BD0FFF7FEF9CF
:103260000746834BD3F8903013F0020F44D1FFF799
:10327000F5F9C01B41F288339842F2D9032336E1B5
:103280007C4A136843F480731360FFF7E7F907463D
:10329000784B1B6813F4807FCBD1FFF7DFF9C01B9D
:1032A0000228F5D9032322E1714AD2F8903043F085
:1032B0000103C2F89030CEE76D4BD3F8902042F076
:1032C0000402C3F89020D3F8902042F00102C3F822
:1032D0009020C0E7FFF7C2F90746654BD3F890305E
:1032E00013F0020F08D0FFF7B9F9C01B41F2883381
:1032F0009842F2D90323FAE0E6B9236813F0200FCD
:1033000035D0636AE3B15A4AD2F8983043F00103EA
:10331000C2F89830FFF7A2F90646554BD3F898301B
:1033200013F0020F23D1FFF799F9801B0228F4D97B
:103330000323DCE04E4A936D23F080539365DCE772
:103340004B4AD2F8983023F00103C2F89830FFF7C7
:1033500085F90646464BD3F8983013F0020F06D095
:10336000FFF77CF9801B0228F4D90323BFE0A36A8E
:10337000002B00F0BB800C2D6FD0022B23D03C4BD8
:103380001A6822F080721A601B6813F0006F04D173
:10339000374AD36823F00303D360354AD36823F058
:1033A000887323F48033D360FFF758F90446304B19
:1033B0001B6813F0007F4ED0FFF750F9001B022866
:1033C000F5D9032393E02A4A136823F0807313602E
:1033D000FFF744F90546264B1B6813F0007F06D023
:1033E000FFF73CF9401B0228F5D903237FE0204A70
:1033F000D36821491940E36A206B013843EA00137E
:10340000606B43EA0023E06B4008013843EA405315
:10341000206C4008013843EA4063A06B43EAC06374
:103420000B43D360136843F080731360D36843F099
:103430008073D360FFF712F904460D4B1B6813F03D
:10344000007F06D1FFF70AF9001B0228F5D90323F4
:103450004DE000234BE0002349E0012B4AD0044B10
:10346000DB6803F00301E26A914207D001233EE0EA
:1034700000100240007000408C809D0103F070023B
:10348000216B0139B2EB011F01D001232FE003F4BE
:10349000FE42616BB2EB012F01D0012327E003F064
:1034A0007842A16BB2EBC16F01D001231FE003F49E
:1034B000C001E26B5208013AB1EB425F01D0012337
:1034C00015E003F0C063226C5208013AB3EB426F7F
:1034D00012D001230BE0012318467047012306E0B8
:1034E000012304E0012302E0012300E00023184649
:1034F00003B0F0BD0123FAE70023F8E7002800F04D
:103500009B8070B504464E4B1B6803F007038B424B
:103510000CD24B4A136823F007030B431360136864
:1035200003F007038B4201D0012070BD0D462368D4
:1035300013F0010F39D06368032B09D0022B26D07A
:1035400063BB404A126812F0020F06D10120ECE77B
:103550003C4A126812F0007F70D03A498A6822F023
:10356000030213438B60FFF779F80646354B9B68DF
:1035700003F00C036268B3EB820F16D0FFF76EF80E
:10358000801B41F288339842F0D90320CDE72D4AC1
:10359000126812F4003FE0D10120C6E7294A126800
:1035A00012F4806FD9D10120BFE7236813F0020F16
:1035B00006D0244A936823F0F003A1680B4393607C
:1035C0001F4B1B6803F00703AB420CD91C4A13685E
:1035D00023F007032B431360136803F00703AB4288
:1035E00001D00120A1E7236813F0040F06D0154A8B
:1035F000936823F4E063E1680B439360236813F05E
:10360000080F07D00F4A936823F46053216943EAF7
:10361000C1039360FFF7FAFB0A4B9B68C3F30313E4
:10362000094AD35C03F01F03D840084B1860084BCD
:103630001868FEF7CFFF78E701207047012074E794
:103640000020024000100240F86D00080800002031
:1036500010000020014B1868704700BF08000020D0
:1036600008B5FFF7F7FF054B9B68C3F30223044A35
:10367000D35C03F01F03D84008BD00BF0010024018
:10368000086E000808B5FFF7E5FF054B9B68C3F31C
:10369000C223044AD35C03F01F03D84008BD00BF17
:1036A00000100240086E0008F8B5594BDB6813F0B3
:1036B000030F18D0564BDB6803F0030302689342F4
:1036C00002D001252846F8BD002A00F09F80504B0B
:1036D000DB68C3F3021301334268934201D0012532
:1036E000F0E700251AE00368022B58D0032B5DD0C9
:1036F000012B01D001250FE0454A126812F0020F9C
:1037000060D0434DEA6822F073024468013C43EA0A
:1037100004131343EB600025002DD3D10F4604465C
:103720003B4A136823F080631360FEF797FF064659
:10373000374B1B6813F0006F05D0FEF78FFF801B1F
:103740000228F5D90325002DBCD1002F3CD13049EA
:103750000B6923F0784323F4FE43A068E268D206A5
:1037600042EA002213430B61294A136843F0806345
:103770001360FEF773FF0646254B1B6813F0006FBE
:1037800005D1FEF76BFF801B0228F5D90325002D1C
:1037900098D11F4A1369A1690B43136192E71C4A30
:1037A000126812F4806FACD10125B5E7184A12688F
:1037B00012F4003FA5D1164A126812F4802FA0D14E
:1037C0000125A9E70125A7E7012F0FD010480269BD
:1037D00022F0C06222F4FE42A16863695B08013BEB
:1037E0005B0643EA012313430361BDE7084802690E
:1037F00022F4C00222F4FE42A16823695B08013B67
:103800005B0543EA012313430361ADE7012559E753
:10381000001002402DE9F04182B00446036813F421
:10382000006F26D0436CB3F5000F06D0B3F5400F00
:103830001DD09BB1012637461DE0BD4AD36843F435
:103840008033D3600027BA4AD2F8883023F440038B
:10385000616C0B43C2F8883000260CE00021043074
:10386000FFF722FF07460028EDD0064603E00027B9
:10387000E9E700263746236813F4003F6BD0AC4BD2
:103880009B6D13F0805F4CD1A94B9A6D42F0805232
:103890009A659B6D03F080530193019B4FF00108E3
:1038A000A44A136843F480731360FEF7D7FE0546FD
:1038B000A04B1B6813F4807F05D1FEF7CFFE401BA1
:1038C0000228F5D90327002F40D1994BD3F8903027
:1038D00013F4407315D0E26D9A4212D0944AD2F894
:1038E000903023F44073D2F8901041F48031C2F844
:1038F0009010D2F8901021F48031C2F89010C2F8E4
:10390000903013F0010F0FD1002F40F0F780884A5C
:10391000D2F8903023F44073E16D0B43C2F890303D
:1039200015E04FF00008BBE7FEF798FE0546804B18
:10393000D3F8903013F0020FE6D1FEF78FFE401B54
:1039400041F288339842F2D90327DDE73E46B8F1C9
:10395000000F40F0D580236813F0010F08D0744A9F
:10396000D2F8883023F00303216A0B43C2F8883071
:10397000236813F0020F08D06D4AD2F8883023F084
:103980000C03616A0B43C2F88830236813F0040FFC
:1039900008D0674AD2F8883023F03003A16A0B437D
:1039A000C2F88830236813F0200F08D0604AD2F89C
:1039B000883023F44063E16A0B43C2F888302368FF
:1039C00013F4007F08D05A4AD2F8883023F44023F9
:1039D000E16B0B43C2F88830236813F4806F08D082
:1039E000534AD2F8883023F44013216C0B43C2F8B9
:1039F0008830236813F0400F08D04D4AD2F8883041
:103A000023F44053216B0B43C2F88830236813F032
:103A1000800F08D0464AD2F8883023F44043616BC7
:103A20000B43C2F88830236813F4807F08D0404AE3
:103A3000D2F8883023F44033A16B0B43C2F88830AE
:103A4000236813F4005F0FD0394AD2F8883023F08E
:103A50004063A16C0B43C2F88830A36CB3F1006FD4
:103A600054D0B3F1806F56D0236813F4002F0FD0D9
:103A70002F4AD2F8883023F04063E16C0B43C2F840
:103A80008830E36CB3F1006F4DD0B3F1806F53D049
:103A9000236813F4802F0FD0254AD2F8883023F002
:103AA0004063216D0B43C2F88830236DB3F1006F82
:103AB0004AD0B3F1806F4CD0236813F4804F0CD000
:103AC0001B4AD2F8883023F04053616D0B43C2F893
:103AD0008830636DB3F1805F43D0236813F4004FE7
:103AE00008D0134AD2F8883023F08043A16D0B43ED
:103AF000C2F88830304602B0BDE8F0813E4626E785
:103B00000B4A936D23F08053936524E7D36843F405
:103B10008013D360A8E70121201DFFF7C5FD002811
:103B2000A2D00646A0E7D36843F48013D360AFE782
:103B300000100240007000400121201DFFF7B4FD7D
:103B40000028A5D00646A3E7D36843F48013D360CA
:103B5000B2E70121201DFFF7A7FD0028ACD00646E3
:103B6000AAE70221201DFFF79FFD0028B5D00646D9
:103B7000B3E700BF024A136843F0040313607047C1
:103B800000100240F0B482B0002336E0042400E0CC
:103B90000024B4403C4302355B4E46F825405B4C64
:103BA0002568D44304EA05064F6817F4803F01D026
:103BB00042EA0506554D2E606D6804EA05064F6819
:103BC00017F4003F01D042EA0506504D6E60AD6823
:103BD00004EA05064F6817F4801F01D042EA050683
:103BE0004A4DAE60ED682C404E6816F4001F01D0BF
:103BF00042EA0504454AD46001330A6832FA03F404
:103C00007ED001249C402240F6D04D68022D01D088
:103C1000122D10D1DE08083650F826C003F0070533
:103C2000AF000F25BD402CEA050C0D69BD4045EAEB
:103C30000C0540F8265006685F000325BD40ED43A3
:103C400005EA060C4E6806F00306BE4046EA0C067E
:103C500006604E6806F1FF3CBCF1010F03D9112E3E
:103C600001D0122E10D1866805EA060CCE68BE403F
:103C700046EA0C068660466826EA04044E68C6F3E7
:103C800000169E4026434660C46825408C68BC40B0
:103C90002C43C4604C6814F0805FADD01C4C256E82
:103CA00045F001052566246E04F001040194019C91
:103CB0009D08AE1C144C54F8267003F00304A600B3
:103CC0000F24B44027EA0407B0F1904F3FF460AFEF
:103CD000104CA0420ED004F58064A0420CD004F534
:103CE0008064A0420AD004F58064A0423FF44EAF45
:103CF00007244EE701244CE702244AE7032448E75F
:103D000002B0F0BC704700BF000001400004014059
:103D100000100240000400480AB9816270478161C6
:103D20007047000008B5054B5B69034200D108BD30
:103D3000024B5861FDF72CFBF9E700BF000401407E
:103D400070B4446C04F01C05066C0124AC40746033
:103D5000046863608368102B05D00368996003686A
:103D6000DA6070BC704703689A600368D960F8E74E
:103D7000002869D010B403460168344A914245D8FE
:103D8000334A0A443349A1FB0212120992004264E9
:103D9000314A0264022283F825201868016821F460
:103DA000FF4121F070019A68DC6822431C692243BC
:103DB0005C6922439C692243DC6922431C6A2243DA
:103DC0000A4302609A68B2F5804F15D0196C224AF6
:103DD000914226D0214A1168586C00F01C040F2033
:103DE000A04021EA00011160116858685C6C04F081
:103DF0001C04A040014311600020D863012283F815
:103E0000252083F824005DF8044B7047144A0A44C7
:103E10001049A1FB0212120992004264114A026485
:103E2000B8E7A8321168586C00F01C040F20A040BD
:103E300021EA00011160116858685C6C04F01C04F0
:103E4000A04001431160D7E70120704707040240FA
:103E5000F8FFFDBFCDCCCCCC00000240A80402404E
:103E6000F8FBFDBF0004024038B590F82440012C57
:103E700033D0012480F8244090F82540E4B2012C8E
:103E800004D0002380F82430022038BD04460220EC
:103E900084F825000020E0632568286820F00100F0
:103EA00028602046FFF74CFF236B5BB12268136844
:103EB00043F00E0313602268136843F0010313609C
:103EC0000020E2E72268136823F0040313602268ED
:103ED000136843F00A031360EDE70220D5E790F87A
:103EE0002530DBB2022B06D00423C363002380F805
:103EF0002430012070470268136823F00E0313601A
:103F00000268136823F001031360436C03F01C0381
:103F1000016C012202FA03F34B6080F82520002394
:103F200080F824301846704708B590F82530DBB289
:103F3000022B03D00423C363012008BD0268136869
:103F400023F00E0313600268136823F0010313606B
:103F5000436C03F01C03016C012202FA03F34B6073
:103F600080F82520002380F82430836B13B1984714
:103F70000020E2E70020E0E738B5036C1968046828
:103F80002568436C03F01C0304229A400A4215D0B2
:103F900015F0040F12D0236813F0200F03D123680B
:103FA00023F004032360436C03F01C02016C042320
:103FB00093404B60036B03B1984738BD02229A408F
:103FC0000A421CD015F0020F19D0236813F0200FFD
:103FD00006D1236823F00A032360012380F82530EB
:103FE000436C03F01C02016C022393404B600023DE
:103FF00080F82430C36A002BDFD09847DDE7082221
:1040000002FA03F30B42D8D015F0080FD5D023687D
:1040100023F00E032360436C03F01C03016C0122A8
:1040200002FA03F34B60C26380F82520002380F876
:104030002430436B002BC0D09847BEE7C06B70475D
:10404000024A136843F480731360704700700040A5
:10405000024B186800F4C060704700BF0070004059
:10406000B0F5007F0FD01F4B1B6803F4C063B3F59E
:10407000806F34D01B4A136823F4C06343F4806319
:10408000136000207047174B1B6803F4C063B3F53F
:10409000007F22D0134A136823F4C06343F40073F3
:1040A0001360114B1A68322303FB02F30F4AA2FB81
:1040B00003239B0C013300E0013B0A4A526912F4CE
:1040C000806F01D0002BF7D1064B5B6913F4806F32
:1040D00001D1002070470320704700207047002066
:1040E000704700BF007000400800002083DE1B43C3
:1040F000074AD36823F4E0631B041B0C000200F49E
:10410000E060184340F0BF6040F40030D06070477A
:1041100000ED00E030B4174BDB68C3F30223C3F1BA
:104120000704042C28BF04241D1D062D18D9033BA9
:104130004FF0FF3505FA04F421EA0401994005FA2D
:1041400003F322EA0303194300280BDB0901C9B278
:1041500000F1604000F5614080F8001330BC70470A
:104160000023E5E700F00F000901C9B2024B195422
:10417000F4E700BF00ED00E014ED00E0002807DBED
:1041800000F01F02400901239340024A42F8203008
:10419000704700BF00E100E00138B0F1807F0AD233
:1041A000064B5860064AF02182F8231000209860E0
:1041B00007221A6070470120704700BF10E000E03E
:1041C00000ED00E0002853D010B5044600238362C0
:1041D00090F85D30002B40D0022384F85D302268D7
:1041E000136823F040031360E368B3F5E06F39D937
:1041F0000022B3F5706F04D0B3F5E06F01D0002159
:10420000A162216B21B9B3F5E06F2ED9022323639C
:104210006368A1680B4321690B4361690B43A16982
:1042200001F400710B43E1690B43216A0B43A06A5F
:10423000216803430B60638B03F00403616A0B4343
:10424000616B0B43E1680B43216813434B60002013
:104250002066012384F85D3010BD80F85C30FDF7E6
:1042600077FBB9E74FF48052C3E701232363CFE71D
:1042700001207047DFF834D0002103E00C4B5B587D
:10428000435004310B480C4B42189A42F6D30B4A68
:1042900002E0002342F8043B094B9A42F9D3FDF7B0
:1042A000E3FB01F057FAFDF713FBFEE700000120E6
:1042B0000870000800000020E8010020E80100204C
:1042C000D04E0020FEE700F1080343604FF0FF32BC
:1042D0008260C360036100230360704700230361B1
:1042E000704743684B609A688A609A685160996029
:1042F0000861036801330360704730B40D68B5F19D
:10430000FF3F02D000F1080202E0026904E01A4611
:1043100053681C68AC42FAD953684B6099608A6054
:104320005160086103680133036030BC7047036962
:104330004268816891608268416851605A6882422F
:1043400006D0002202611A68013A1A6018687047A4
:1043500082685A60F5E710B5044601F0A3F8A36B34
:1043600023B1002401F0C0F8204610BD0124F9E774
:1043700070B504461646856B026C5AB903681BB1CA
:1043800000200135A56370BD406800F061FE002388
:104390006360F6E76EB9806801F000FA226CA368EA
:1043A0001344A3606268934219D32368A36000207A
:1043B000E7E7C06801F0F2F9226C5242E368134467
:1043C000E36021688B4202D263681A44E260022EE5
:1043D00001D00020D5E725B1013D0020D1E7002024
:1043E000CFE70020CDE7026C72B110B5C36813446B
:1043F000C3604468A34201D30368C3600C46C1682C
:10440000204601F0CBF910BD704738B5054601F0E4
:1044100049F895F8454064B203E000F003FE013C22
:1044200064B2002C08DD6B6A33B105F1240000F0A2
:1044300067FD0028F3D0F0E7FF2385F8453001F051
:1044400053F801F02FF895F8444064B203E000F00F
:10445000E9FD013C64B2002C08DD2B6933B105F1A4
:10446000100000F04DFD0028F3D0F0E7FF2385F8A1
:10447000443001F039F838BD38B540B94FF0500339
:1044800083F31188BFF36F8FBFF34F8FFEE70446AE
:104490000D4601F007F82168E26B236C03FB021064
:1044A00060600020A063A160013A02FB0313E36097
:1044B000FF2384F8443084F84530A5B923691BB93B
:1044C00001F012F8012038BD04F1100000F018FDD1
:1044D0000028F5D0084B4FF080521A60BFF34F8F81
:1044E000BFF36F8FECE704F11000FFF7ECFE04F16F
:1044F0002400FFF7E8FEE3E704ED00E010B5029BBF
:104500000C4639B11A60D8631C6401211846FFF7C4
:10451000B3FF10BD1B60F6E740B94FF0500383F3C3
:104520001188BFF36F8FBFF34F8FFEE7F0B583B0F5
:10453000064611B101FB00F000E0002017460C46D2
:10454000483000F087FE054650B1002380F8463021
:1045500000903B4600F1480221463046FFF7CEFF6F
:10456000284603B0F0BD2DE9F84360B1044699B97F
:10457000006C88B14FF0500383F31188BFF36F8F45
:10458000BFF34F8FFEE74FF0500383F31188BFF363
:104590006F8FBFF34F8FFEE7022B0BD1E06B01282B
:1045A00008D04FF0500383F31188BFF36F8FBFF330
:1045B0004F8FFEE71F469046894601F09DF8EFF3C6
:1045C00011864FF0500383F31188BFF36F8FBFF351
:1045D0004F8FA26BE36B9A4203D3022F01D00020CE
:1045E0000FE094F845506DB23A4649462046FFF731
:1045F000BFFEB5F1FF3F08D06B1C5BB284F84530BD
:10460000012086F31188BDE8F883636A5BB104F189
:10461000240000F075FC40B1B8F1000F07D0012074
:10462000C8F80000EDE70120EBE70120E9E70120F1
:10463000E7E70000F0B585B0019260B1044699B992
:10464000036C8BB14FF0500383F31188BFF36F8F6E
:10465000BFF34F8FFEE74FF0500383F31188BFF392
:104660006F8FBFF34F8FFEE70F4600F0E1FC50B9AC
:10467000019B53B14FF0500383F31188BFF36F8F49
:10468000BFF34F8FFEE700263EE000263CE03946B0
:104690002046FFF7A8FE013DA563236923B900F07A
:1046A00023FF012005B0F0BD04F1100000F028FC4C
:1046B0000028F4D0344B4FF080521A60BFF34F8F74
:1046C000BFF36F8FEBE700F00FFF0020EAE702A8CF
:1046D00000F05CFC012621E0002384F8443029E04E
:1046E000002384F845302BE02046FFF78EFE00F0D3
:1046F00003FB09E02046FFF788FE00F0FDFA2046A4
:10470000FFF729FE00283DD100F0CCFEA56B002D5F
:10471000BDD1019B002BD6D0002ED8D000F0E4FEF6
:1047200000F056FA00F0BEFE94F844305BB2B3F1EC
:10473000FF3FD1D094F845305BB2B3F1FF3FCFD00B
:1047400000F0D2FE01A902A800F02CFC0028D1D173
:104750002046FFF700FE0028C6D0019904F124008E
:1047600000F0B6FB2046FFF750FE00F0C5FA002827
:10477000CAD1054B4FF080521A60BFF34F8FBFF381
:104780006F8FC1E700208DE704ED00E0084B1B6848
:104790001B683BB1064B1B68DB68DB685A68054B3E
:1047A0001A607047034B4FF0FF321A60704700BF2A
:1047B000F43F0020C84000202DE9F047804699468C
:1047C000089D099F0A9C266B02F18042013A06EB84
:1047D000820626F0070600230F2B07D8C85CE218D4
:1047E00082F83400CA5C0AB10133F5E7002384F88B
:1047F0004330062D00D90625E56265644FF0000AB6
:10480000C4F848A0201DFFF769FD04F11800FFF768
:1048100065FD2461C5F10705A5616462C4F84CA07B
:1048200084F850A04A464146304600F00DFE206014
:1048300007B13C60BDE8F08738B5002407E004EB21
:10484000840293000E481844FFF73DFD0134062C06
:10485000F5D90C4D2846FFF736FD0B4C2046FFF7E7
:1048600032FD0A48FFF72FFD0948FFF72CFD0948E4
:10487000FFF729FD084B1D60084B1C6038BD00BFC9
:10488000FC3F0020A0400020B4400020D040002089
:10489000FC400020E8400020F43F0020F83F0020CA
:1048A00010B5044600F0FEFD204A13680133136082
:1048B0001F4B1B685BB11F4B1B686BB91C4B1B6804
:1048C000DA6AE36A9A4207D8194B1C6004E0184B75
:1048D0001C601368012B26D0174A1368013313603C
:1048E000E36A01229A401549086802430A6003EB13
:1048F00083039A00211D12481044FFF7F2FC00F0D8
:10490000F3FD0C4B1B686BB1094B1B68DA6AE36A59
:104910009A4207D20B4B4FF080521A60BFF34F8F71
:10492000BFF36F8F10BDFFF787FFD5E788400020EA
:10493000F03F0020E4400020984000209C400020F0
:10494000FC3F002004ED00E010B5044690F8513023
:1049500033B9006B00F002FD204600F0FFFC10BDF3
:10496000012B0AD0022BFAD04FF0500383F31188A9
:10497000BFF36F8FBFF34F8FFEE700F0EFFCEEE762
:104980000F4B1B68D3B110B500F08CFD0D4BDB68ED
:10499000DC68201DFFF7CBFC0B4A1368013B13605A
:1049A000074A1368013B136000F09EFD2046FFF7A5
:1049B000CBFF034B1B68002BE6D110BD704700BF37
:1049C0008C400020FC4000208840002008B5FFF704
:1049D000D7FF064B1B68012BF9D9054B4FF08052CE
:1049E0001A60BFF34F8FBFF36F8FF0E7FC3F0020DB
:1049F00004ED00E070B504460E461D4B1D681D4BCE
:104A000018680430FFF793FC50B91A4B1B68DA6A38
:104A1000012303FA02F218490B6823EA02030B6030
:104A2000B4F1FF3F13D02C44124B1B685C60A542CD
:104A300016D8124B18680F4B19680431FFF75DFC4C
:104A40000F4B1B68A34212D90D4B1C600FE0002EC8
:104A5000E9D0084B196804310A48FFF742FC06E028
:104A6000094B1868034B19680431FFF746FC70BD09
:104A700010410020F03F00209C400020F43F002027
:104A8000C8400020E8400020F83F002070B586B004
:104A90000B9D0C9C45B94FF0500383F31188BFF375
:104AA0006F8FBFF34F8FFEE744B94FF0500383F38E
:104AB0001188BFF36F8FBFF34F8FFEE75426049624
:104AC000049E542E08D04FF0500383F31188BFF397
:104AD0006F8FBFF34F8FFEE72563022584F8515097
:104AE00000250395029405AD01950A9D0095FFF7F9
:104AF00063FE2046FFF7D4FE059806B070BD2DE991
:104B0000F04385B00746884615469946900000F068
:104B1000A1FB08B30646542000F09CFB0446B8B144
:104B20000663E4B1002384F85130039302940D9B93
:104B300001930C9B00934B462A4641463846FFF7AB
:104B40003BFE2046FFF7ACFE012005B0BDE8F08338
:104B5000304600F003FCE4E74FF0FF30F5E74FF09C
:104B6000FF30F2E710B588B000240594069407AA38
:104B700006A905A8FCF736FD059B0293069B019349
:104B800000942346079A0D490D48FFF77FFF08B9A7
:104B900008B010BD4FF0500383F31188BFF36F8F3F
:104BA000BFF34F8F074B4FF0FF321A60064B0122C5
:104BB0001A60064B1C6000F017FDE9E7406E000824
:104BC000CD490008C8400020E440002010410020EA
:104BD000024A136801331360704700BF94400020FD
:104BE000F8B53A4B1B68002B64D1394B1D68013571
:104BF0001D60C5B9374B1B681B6843B14FF05003AC
:104C000083F31188BFF36F8FBFF34F8FFEE7314AF5
:104C10001168314B186810601960304A136801330D
:104C20001360FFF7B3FD2E4B1B68AB4238D900244D
:104C30002C4B1B68DB6A03EB83039A002A4B9B58BF
:104C4000012B3CD901243AE00124224B1B681B684C
:104C500043B3204B1B68DB68DE6873689D4226D334
:104C6000371D3846FFF763FBB36A1BB106F1180026
:104C7000FFF75DFBF36A01229A401C490868024372
:104C80000A6003EB83039A00394617481044FFF784
:104C900028FBF26A134B1B68DB6A9A42D4D2D4E732
:104CA0000024D2E70E4B4FF0FF321A60C0E70C4AE7
:104CB0001360BDE70E4A13680133136000240D4BE7
:104CC0001B6803B101242046F8BD00BF94400020BA
:104CD00010410020F43F0020F83F0020CC4000208D
:104CE000C8400020F03F0020FC3F00209C400020F6
:104CF000904000201441002038B5334B1B6843B965
:104D00004FF0500383F31188BFF36F8FBFF34F8FC2
:104D1000FEE700F0C7FB2C4B1A68013A1A601B68CB
:104D2000002B4DD1294B1B6823B9002400F0DCFB7C
:104D3000204638BD0024264B1B681BB3244BDB6880
:104D4000DC6804F11800FFF7F2FA251D2846FFF78A
:104D5000EEFAE36A01229A401E49086802430A609B
:104D600003EB83039A0029461B481044FFF7B9FA66
:104D7000E26A1A4B1B68DB6A9A42DCD3184B0122A9
:104D80001A60D8E70CB1FFF701FD164B1C6854B14F
:104D9000FFF726FF10B1124B01221A60013CF7D138
:104DA000104B00221A600E4B1B685BB10E4B4FF08C
:104DB00080521A60BFF34F8FBFF36F8F0124B5E7A6
:104DC0000024B3E70024B1E794400020884000208D
:104DD000D04000209C400020FC3F0020F03F0020FD
:104DE000144100209040002004ED00E010B5A8B16F
:104DF00004460F4B1B6843B14FF0500383F31188F7
:104E0000BFF36F8FBFF34F8FFEE7FFF7E1FE002187
:104E10002046FFF7EFFDFFF76FFF38B9054B4FF066
:104E200080521A60BFF34F8FBFF36F8F10BD00BF6A
:104E30009440002004ED00E0204B1B681BB1204B88
:104E400001221A6070471E4B00221A601D4B1B681E
:104E5000B3FA83F3DBB2C3F11F0303EB83018A00D0
:104E600019498A5842B94FF0500383F31188BFF3B0
:104E70006F8FBFF34F8FFEE710B413489A00D4181A
:104E8000A10001444C6864684C601A4491000831E8
:104E9000084484420BD003EB83039A000A4B13446B
:104EA0005B68DA68094B1A605DF8044B704761680B
:104EB0000548142202FB03025160ECE794400020F5
:104EC000144100209C400020FC3F0020F03F0020C7
:104ED00040B94FF0500383F31188BFF36F8FBFF3D6
:104EE0004F8FFEE710B50C46044B19681831FFF7D9
:104EF00004FA01212046FFF77DFD10BDF03F0020A0
:104F000038B5C368DC6844B94FF0500383F31188A7
:104F1000BFF36F8FBFF34F8FFEE704F118052846EC
:104F2000FFF705FA134B1B68E3B9251D2846FFF769
:104F3000FEF9E36A01229A400F49086802430A60B9
:104F400003EB83039A0029460C481044FFF7C9F984
:104F5000E26A0B4B1B68DB6A9A4208D90120094BB5
:104F6000186038BD29460848FFF7BBF9F0E7002074
:104F7000F7E700BF944000209C400020FC3F002049
:104F8000F03F002014410020D0400020034B1B685C
:104F90000360034B1B684360704700BFCC40002098
:104FA00010410020F8B550B1054689B94FF05003C3
:104FB00083F31188BFF36F8FBFF34F8FFEE74FF07E
:104FC000500383F31188BFF36F8FBFF34F8FFEE75A
:104FD0000C4600F067FA114B196868680A1A2368D2
:104FE000B3F1FF3F16D02F680D4E3668B74201D09F
:104FF000884211D9934203D800232360012405E09D
:105000009B1A23602846FFF7C1FF002400F06CFACA
:105010002046F8BD0024F9E70124F7E710410020FD
:10502000CC400020014B01221A607047144100203F
:10503000054B1B6833B1054B1B680BB10020704753
:105040000220704701207047E44000209440002077
:10505000002849D038B50446264A1268824208D052
:105060004FF0500383F31188BFF36F8FBFF34F8F5F
:10507000FEE7826C42B94FF0500383F31188BFF30F
:105080006F8FBFF34F8FFEE7013A8264C06A616C95
:1050900088422BD062BB251D2846FFF748F970B91E
:1050A000E26A142303FB02F31349CB583BB90123F3
:1050B00003FA02F211490B6823EA02030B60636CE6
:1050C000E362C3F10702A261012404FA03F20B496F
:1050D000086802430A602946074A142000FB03209F
:1050E000FFF7FFF8204638BD002070470020FAE7A0
:1050F0000020F8E7F03F0020FC3F00209C4000200B
:10510000842801D0033070470020704708B5FFF7AE
:1051100029FD002008BD2DE9F04387B004460F4665
:105120004569A5B1866996B1D0F80480D0F80090A1
:10513000B0F90800FFF7E4FF22690296019500909C
:105140003B4649464046FFF7A1FC059013E06568E1
:105150002668D4F81080B4F90800FFF7D1FF05AB3A
:10516000019300903B461FFA88F231462846FFF72C
:10517000C6FC012803D1059807B0BDE8F0830020E4
:10518000FAE708B5034600B901231846FFF72EFEDB
:10519000002008BD134A12F0070F1FD0D11D21F0C7
:1051A0000701C1F53B63083313440A460E48026009
:1051B000002141601344083B23F007030B480360C0
:1051C00059601960991A51601360094B1960094BB5
:1051D0001960094B4FF000421A60704740F6B8332F
:1051E000E4E700BF1C410020E04C002018410020F3
:1051F000DC4C0020D84C0020D44C002010B4134BC1
:105200001A6882421BD359685C18844203D14068F3
:1052100001445960184641684418A24213D10C4C0D
:105220002468A2420DD05268114441601A68126885
:105230000260984200D018605DF8044B7047134636
:10524000DEE70460F5E70260F3E700BFE04C002012
:105250001841002070B50446FFF7BAFC3A4B1B68B2
:10526000BBB13A4B1B681C4263D1ACB1083414F09B
:10527000070F11D024F00704083404F007035BB1D2
:105280004FF0500383F31188BFF36F8FBFF34F8F3D
:10529000FEE7FFF77FFFE4E7002C4CD02C4B1B68A8
:1052A000A3424AD32B4B1D6801E02B4615466A6882
:1052B000A24202D22A68002AF7D1234A1268AA42DF
:1052C0003DD01E6808362A681A606B681B1B102BBD
:1052D00010D9281910F0070F08D04FF0500383F3AE
:1052E0001188BFF36F8FBFF34F8FFEE743606C6091
:1052F000FFF784FF6A6816490B689B1A0B60164912
:1053000009688B4201D214490B60104B1B68134390
:105310006B6000232B60FFF7EFFC16F0070F10D037
:105320004FF0500383F31188BFF36F8FBFF34F8F9C
:10533000FEE70026EFE70026EDE70026EBE7002674
:10534000E9E7304670BD00BF18410020D44C002072
:10535000D84C0020E04C0020DC4C002080B338B555
:105360000446A0F1080550F8042C164909680A42C1
:1053700008D14FF0500383F31188BFF36F8FBFF351
:105380004F8FFEE750F8080C40B14FF0500383F305
:105390001188BFF36F8FBFF34F8FFEE722EA010240
:1053A00044F8042CFFF714FC54F8041C064A136854
:1053B0000B4413602846FFF721FFFFF79DFC38BD23
:1053C000704700BFD44C0020D84C002082B000238E
:1053D00001930D4B1B68B3F1FF3F08D04FF0500312
:1053E00083F31188BFF36F8FBFF34F8FFEE74FF04A
:1053F000500383F31188BFF36F8FBFF34F8F019B6F
:10540000002BFCD002B07047140000200848006850
:10541000006880F308884FF0000080F3148862B6BB
:1054200061B6BFF34F8FBFF36F8F00DF00BF000087
:1054300008ED00E0DFF80C00016841F47001016044
:105440007047000088ED00E04FF0807340F8043CA6
:1054500021F0010140F8081C054B40F80C3C40F8D5
:10546000202C6FF0020340F8243C4438704700BF02
:10547000CD53000800000000000000000000000004
:10548000074B19680868B0E8F04F80F30988BFF34C
:105490006F8F4FF0000080F311887047AFF30080EA
:1054A000F03F00204FF0500383F31188BFF36F8F5C
:1054B000BFF34F8F0A4A136801331360012B00D0EA
:1054C0007047084B1B6813F0FF0FF9D04FF05003E3
:1054D00083F31188BFF36F8FBFF34F8FFEE700BFD9
:1054E0001400002004ED00E0094B1B6843B94FF0A5
:1054F000500383F31188BFF36F8FBFF34F8FFEE725
:10550000013B034A13600BB983F31188704700BF56
:105510001400002000000000000000000000000057
:10552000EFF30980BFF36F8F154B1A681EF0100F51
:1055300008BF20ED108A20E9F04F10602DE9090026
:105540004FF0500080F31188BFF34F8FBFF36F8F80
:10555000FFF772FC4FF0000080F3118809BC196856
:105560000868B0E8F04F1EF0100F08BFB0EC108ACA
:1055700080F30988BFF36F8F704700BFAFF30080DF
:10558000F03F002008B54FF0500383F31188BFF3BC
:105590006F8FBFF34F8FFFF723FB18B1034B4FF013
:1055A00080521A60002383F3118808BD04ED00E0E7
:1055B000084A0023136008490B60084B1B68084920
:1055C000A1FB03139B09013B06490B6007231360F2
:1055D000704700BF10E000E018E000E00800002085
:1055E000D34D621014E000E03A4B1A683A4B9A42ED
:1055F0000DD0384B1A68394B9A4211D14FF05003F5
:1056000083F31188BFF36F8FBFF34F8FFEE74FF027
:10561000500383F31188BFF36F8FBFF34F8FFEE703
:1056200010B582B02E4B1A78D2B20192FF221A70B6
:105630001B78DBB28DF803309DF8033003F0500384
:10564000284A1370284B07221A6009E0264A13687B
:10565000013B13609DF803305B00DBB28DF8033033
:105660009DF8033013F0800FF0D11F4B1B68032B04
:1056700008D04FF0500383F31188BFF36F8FBFF34F
:105680004F8FFEE71B0203F4E063174A1360019B90
:10569000DBB2134A1370154B1A6842F470021A6099
:1056A0001A6842F070421A60FFF782FF0024104B24
:1056B0001C60FFF7BFFE0F4A136843F040431360BE
:1056C000FFF7A4FEFFF7B8FBFFF780FE204602B00D
:1056D00010BD00BF00ED00E071C20F4170C20F416C
:1056E00000E400E0E84C0020EC4C002020ED00E05D
:1056F0001400002034EF00E0EFF305830F2B0FD9E7
:10570000104A9B5CDBB2104A12789A4208D94FF0DB
:10571000500383F31188BFF36F8FBFF34F8FFEE702
:105720000A4B1B6803F4E063094A1268934208D9E4
:105730004FF0500383F31188BFF36F8FBFF34F8F88
:10574000FEE77047F0E300E0E84C00200CED00E0DD
:10575000EC4C002070B50D4E0D4CA41BA410002580
:10576000A54209D10B4E0C4C01F06EFAA41BA410FB
:105770000025A54205D170BD56F825309847013562
:10578000EEE756F8253098470135F2E7F86F000844
:10579000F86F0008F86F00080070000810B5431E8D
:1057A0000A44914200D110BD11F8014B03F8014F9A
:1057B000F7E702440346934200D1704703F8011B08
:1057C000F9E700000FB40A4B13B51C6824B1A369B4
:1057D00013B9204600F01AFA05AB049AA1680193A8
:1057E000204600F0EFFC02B0BDE8104004B0704766
:1057F000180000200CB430B5174B0C1E9DB01D686E
:1058000008DA8B232B604FF0FF301DB0BDE830402D
:1058100002B070474FF40273ADF8143014BF04F1B6
:10582000FF332346049307934FF6FF7302900690CD
:10583000ADF81630209A21AB02A92846019300F05A
:10584000A1FB431CBCBF8B232B60002CDDD0029B33
:1058500000221A70D9E700BF180000200EB400B56E
:105860009CB01DAB029006906FF000410948079173
:105870000491094953F8042B05910068019302A98A
:1058800000F080FB029B00221A701CB05DF804EB54
:1058900003B07047180000200802FFFF10B50C4647
:1058A000B1F90E1000F02AFF0028ABBF636DA38989
:1058B0001B1823F48053ACBF6365A38110BD2DE991
:1058C000F0411F468B89DB0505460C46164605D57B
:1058D00002230022B1F90E1000F026FAA389B4F9D0
:1058E0000E1023F48053A38132463B462846BDE880
:1058F000F04100F029B910B50C46B1F90E1000F0D6
:1059000013FA431CA38915BF606523F4805343F445
:105910008053A38118BFA38110BDB1F90E1000F010
:1059200025B910B56AB10139841810F8013B11F896
:10593000012F934203D1A04201D0002BF5D1981A38
:1059400010BD1046FCE7F0B503787BB10446237820
:105950002046661C7BB14A1E631E12F8015F4DB1E2
:1059600013F8017FAF423446F7D0F0E70B78002BF5
:1059700018BF0020F0BD1846FCE70000134B2DE9CE
:10598000F0411D68AC6D06460F46B4B9502000F0DA
:10599000DDF9A865C0E90044C0E90244C0E9044457
:1059A000C0E90A44C0E90C44C0E90E44C0E910440F
:1059B000C0E91244846104774462AA6D39463046D6
:1059C0000123BDE8F04100F003B800BF180000203B
:1059D000F0B518B9106808B9F0BD204604460F4666
:1059E00014F8015B17F8016B1EB96DB915602846F4
:1059F000F2E7B542F6D1002BEFD114600370EBE76C
:105A00002B460DE026B91C4623460F4613F8015BD2
:105A100017F8016BB542F5D1002DF1D000212170AE
:105A20001360D9E72DE9F0478046894692461E4625
:105A30000F463D46089815F8014B00F071F92044D7
:105A4000437813F0080332D12D2C32D17C78BD1C61
:105A50000122002E5DD0102E09D1302C07D12B78D9
:105A600003F0DF03582B4FD16C7810260235002A43
:105A700014BF4FF000416FF000410027B1FBF6FC6E
:105A8000384606FB1C1EA4F13003092B17D81C4610
:105A9000A64223DD7B1C07D084451CD301D1A6453B
:105AA00019DB00FB0640012715F8014BEBE72F46F9
:105AB000BFE72B2C04BFBD1C7C781A46C9E7A4F1B4
:105AC0004103192B01D8373CE2E7A4F16103192BFC
:105AD00004D8573CDCE74FF0FF37E5E77B1C08D1E3
